{
  "contractName": "CaptionReview",
  "abi": [
    {
      "inputs": [],
      "stateMutability": "nonpayable",
      "type": "constructor"
    },
    {
      "inputs": [],
      "name": "chairperson",
      "outputs": [
        {
          "internalType": "address",
          "name": "",
          "type": "address"
        }
      ],
      "stateMutability": "view",
      "type": "function",
      "constant": true
    },
    {
      "inputs": [
        {
          "internalType": "string",
          "name": "_name",
          "type": "string"
        },
        {
          "internalType": "string",
          "name": "_description",
          "type": "string"
        },
        {
          "internalType": "uint256",
          "name": "_NumOfVotes",
          "type": "uint256"
        },
        {
          "internalType": "uint256",
          "name": "_NumOfCaptions",
          "type": "uint256"
        },
        {
          "internalType": "string[]",
          "name": "labels",
          "type": "string[]"
        }
      ],
      "name": "addModel",
      "outputs": [],
      "stateMutability": "payable",
      "type": "function",
      "payable": true
    },
    {
      "inputs": [
        {
          "internalType": "string",
          "name": "_caption",
          "type": "string"
        },
        {
          "internalType": "uint8",
          "name": "_lbl",
          "type": "uint8"
        },
        {
          "internalType": "uint256",
          "name": "_modelId",
          "type": "uint256"
        }
      ],
      "name": "addCaption",
      "outputs": [],
      "stateMutability": "payable",
      "type": "function",
      "payable": true
    },
    {
      "inputs": [
        {
          "internalType": "uint256",
          "name": "_idx",
          "type": "uint256"
        },
        {
          "internalType": "uint8",
          "name": "_lbl",
          "type": "uint8"
        },
        {
          "internalType": "uint256",
          "name": "_modelId",
          "type": "uint256"
        }
      ],
      "name": "reviewCaption",
      "outputs": [],
      "stateMutability": "payable",
      "type": "function",
      "payable": true
    },
    {
      "inputs": [],
      "name": "getModels",
      "outputs": [
        {
          "components": [
            {
              "internalType": "uint256",
              "name": "id",
              "type": "uint256"
            },
            {
              "internalType": "string",
              "name": "name",
              "type": "string"
            },
            {
              "internalType": "string",
              "name": "description",
              "type": "string"
            },
            {
              "internalType": "uint256",
              "name": "NumberOfVotes",
              "type": "uint256"
            },
            {
              "internalType": "uint256",
              "name": "NumberOfCaptions",
              "type": "uint256"
            },
            {
              "internalType": "string[]",
              "name": "labels",
              "type": "string[]"
            },
            {
              "internalType": "address",
              "name": "modelProviderAddr",
              "type": "address"
            }
          ],
          "internalType": "struct CaptionReview.ModelInfo[]",
          "name": "",
          "type": "tuple[]"
        }
      ],
      "stateMutability": "view",
      "type": "function",
      "constant": true
    },
    {
      "inputs": [
        {
          "internalType": "uint256",
          "name": "_idx",
          "type": "uint256"
        }
      ],
      "name": "getModel",
      "outputs": [
        {
          "components": [
            {
              "internalType": "uint256",
              "name": "id",
              "type": "uint256"
            },
            {
              "internalType": "string",
              "name": "name",
              "type": "string"
            },
            {
              "internalType": "string",
              "name": "description",
              "type": "string"
            },
            {
              "internalType": "uint256",
              "name": "NumberOfVotes",
              "type": "uint256"
            },
            {
              "internalType": "uint256",
              "name": "NumberOfCaptions",
              "type": "uint256"
            },
            {
              "internalType": "string[]",
              "name": "labels",
              "type": "string[]"
            },
            {
              "internalType": "address",
              "name": "modelProviderAddr",
              "type": "address"
            }
          ],
          "internalType": "struct CaptionReview.ModelInfo",
          "name": "",
          "type": "tuple"
        }
      ],
      "stateMutability": "view",
      "type": "function",
      "constant": true
    },
    {
      "inputs": [],
      "name": "getCaptions",
      "outputs": [
        {
          "components": [
            {
              "internalType": "string",
              "name": "content",
              "type": "string"
            },
            {
              "internalType": "uint256",
              "name": "modelId",
              "type": "uint256"
            },
            {
              "internalType": "uint8",
              "name": "proposedLabel",
              "type": "uint8"
            },
            {
              "internalType": "uint8",
              "name": "verifiedLabel",
              "type": "uint8"
            },
            {
              "internalType": "uint8[]",
              "name": "Votes",
              "type": "uint8[]"
            },
            {
              "internalType": "bool",
              "name": "verified",
              "type": "bool"
            },
            {
              "internalType": "address",
              "name": "providerAddr",
              "type": "address"
            },
            {
              "internalType": "address[]",
              "name": "voters",
              "type": "address[]"
            }
          ],
          "internalType": "struct CaptionReview.Caption[]",
          "name": "",
          "type": "tuple[]"
        }
      ],
      "stateMutability": "view",
      "type": "function",
      "constant": true
    },
    {
      "inputs": [
        {
          "internalType": "uint256",
          "name": "_idx",
          "type": "uint256"
        }
      ],
      "name": "getCaption",
      "outputs": [
        {
          "components": [
            {
              "internalType": "string",
              "name": "content",
              "type": "string"
            },
            {
              "internalType": "uint256",
              "name": "modelId",
              "type": "uint256"
            },
            {
              "internalType": "uint8",
              "name": "proposedLabel",
              "type": "uint8"
            },
            {
              "internalType": "uint8",
              "name": "verifiedLabel",
              "type": "uint8"
            },
            {
              "internalType": "uint8[]",
              "name": "Votes",
              "type": "uint8[]"
            },
            {
              "internalType": "bool",
              "name": "verified",
              "type": "bool"
            },
            {
              "internalType": "address",
              "name": "providerAddr",
              "type": "address"
            },
            {
              "internalType": "address[]",
              "name": "voters",
              "type": "address[]"
            }
          ],
          "internalType": "struct CaptionReview.Caption",
          "name": "",
          "type": "tuple"
        }
      ],
      "stateMutability": "view",
      "type": "function",
      "constant": true
    },
    {
      "inputs": [],
      "name": "getCaptionCnt",
      "outputs": [
        {
          "internalType": "uint256",
          "name": "",
          "type": "uint256"
        }
      ],
      "stateMutability": "view",
      "type": "function",
      "constant": true
    }
  ],
  "bytecode": "0x6080604052600060015534801561001557600080fd5b50336000806101000a81548173ffffffffffffffffffffffffffffffffffffffff021916908373ffffffffffffffffffffffffffffffffffffffff160217905550612f5e806100656000396000f3fe6080604052600436106100865760003560e01c8063789446b811610059578063789446b81461015b578063948b831d14610177578063b441682614610193578063cbeefb8c146101be578063eef9cd3a146101da57610086565b80630257e2491461008b57806309817d45146100c85780632e4176cf146100f35780636d3616941461011e575b600080fd5b34801561009757600080fd5b506100b260048036038101906100ad9190611d61565b610205565b6040516100bf91906120ca565b60405180910390f35b3480156100d457600080fd5b506100dd6104e6565b6040516100ea919061231a565b60405180910390f35b3480156100ff57600080fd5b506101086107b6565b604051610115919061234b565b60405180910390f35b34801561012a57600080fd5b5061014560048036038101906101409190611d61565b6107da565b6040516101529190612410565b60405180910390f35b6101756004803603810190610170919061264d565b610adb565b005b610191600480360381019061018c9190612748565b610cb3565b005b34801561019f57600080fd5b506101a8610fe1565b6040516101b591906127c6565b60405180910390f35b6101d860048036038101906101d391906127e1565b610feb565b005b3480156101e657600080fd5b506101ef611494565b6040516101fc91906129b4565b60405180910390f35b61020d6119c9565b6001548210801561021f575060008210155b61025e576040517f08c379a000000000000000000000000000000000000000000000000000000000815260040161025590612a33565b60405180910390fd5b6002828154811061027257610271612a53565b5b90600052602060002090600602016040518061010001604052908160008201805461029c90612ab1565b80601f01602080910402602001604051908101604052809291908181526020018280546102c890612ab1565b80156103155780601f106102ea57610100808354040283529160200191610315565b820191906000526020600020905b8154815290600101906020018083116102f857829003601f168201915b50505050508152602001600182015481526020016002820160009054906101000a900460ff1660ff1660ff1681526020016002820160019054906101000a900460ff1660ff1660ff168152602001600382018054806020026020016040519081016040528092919081815260200182805480156103d757602002820191906000526020600020906000905b82829054906101000a900460ff1660ff16815260200190600101906020826000010492830192600103820291508084116103a05790505b505050505081526020016004820160009054906101000a900460ff161515151581526020016004820160019054906101000a900473ffffffffffffffffffffffffffffffffffffffff1673ffffffffffffffffffffffffffffffffffffffff1673ffffffffffffffffffffffffffffffffffffffff168152602001600582018054806020026020016040519081016040528092919081815260200182805480156104d657602002820191906000526020600020905b8160009054906101000a900473ffffffffffffffffffffffffffffffffffffffff1673ffffffffffffffffffffffffffffffffffffffff168152602001906001019080831161048c575b5050505050815250509050919050565b60606003805480602002602001604051908101604052809291908181526020016000905b828210156107ad57838290600052602060002090600702016040518060e00160405290816000820154815260200160018201805461054790612ab1565b80601f016020809104026020016040519081016040528092919081815260200182805461057390612ab1565b80156105c05780601f10610595576101008083540402835291602001916105c0565b820191906000526020600020905b8154815290600101906020018083116105a357829003601f168201915b505050505081526020016002820180546105d990612ab1565b80601f016020809104026020016040519081016040528092919081815260200182805461060590612ab1565b80156106525780601f1061062757610100808354040283529160200191610652565b820191906000526020600020905b81548152906001019060200180831161063557829003601f168201915b50505050508152602001600382015481526020016004820154815260200160058201805480602002602001604051908101604052809291908181526020016000905b828210156107405783829060005260206000200180546106b390612ab1565b80601f01602080910402602001604051908101604052809291908181526020018280546106df90612ab1565b801561072c5780601f106107015761010080835404028352916020019161072c565b820191906000526020600020905b81548152906001019060200180831161070f57829003601f168201915b505050505081526020019060010190610694565b5050505081526020016006820160009054906101000a900473ffffffffffffffffffffffffffffffffffffffff1673ffffffffffffffffffffffffffffffffffffffff1673ffffffffffffffffffffffffffffffffffffffff16815250508152602001906001019061050a565b50505050905090565b60008054906101000a900473ffffffffffffffffffffffffffffffffffffffff1681565b6107e2611a2c565b600380549050821080156107f7575060008210155b610836576040517f08c379a000000000000000000000000000000000000000000000000000000000815260040161082d90612b2f565b60405180910390fd5b6003828154811061084a57610849612a53565b5b90600052602060002090600702016040518060e00160405290816000820154815260200160018201805461087d90612ab1565b80601f01602080910402602001604051908101604052809291908181526020018280546108a990612ab1565b80156108f65780601f106108cb576101008083540402835291602001916108f6565b820191906000526020600020905b8154815290600101906020018083116108d957829003601f168201915b5050505050815260200160028201805461090f90612ab1565b80601f016020809104026020016040519081016040528092919081815260200182805461093b90612ab1565b80156109885780601f1061095d57610100808354040283529160200191610988565b820191906000526020600020905b81548152906001019060200180831161096b57829003601f168201915b50505050508152602001600382015481526020016004820154815260200160058201805480602002602001604051908101604052809291908181526020016000905b82821015610a765783829060005260206000200180546109e990612ab1565b80601f0160208091040260200160405190810160405280929190818152602001828054610a1590612ab1565b8015610a625780601f10610a3757610100808354040283529160200191610a62565b820191906000526020600020905b815481529060010190602001808311610a4557829003601f168201915b5050505050815260200190600101906109ca565b5050505081526020016006820160009054906101000a900473ffffffffffffffffffffffffffffffffffffffff1673ffffffffffffffffffffffffffffffffffffffff1673ffffffffffffffffffffffffffffffffffffffff16815250509050919050565b670de0b6b3a7640000341015610b26576040517f08c379a0000000000000000000000000000000000000000000000000000000008152600401610b1d90612b9b565b60405180910390fd5b600083118015610b365750600082115b610b75576040517f08c379a0000000000000000000000000000000000000000000000000000000008152600401610b6c90612c2d565b60405180910390fd5b60036040518060e0016040528060038054905081526020018781526020018681526020018581526020018481526020018381526020013373ffffffffffffffffffffffffffffffffffffffff168152509080600181540180825580915050600190039060005260206000209060070201600090919091909150600082015181600001556020820151816001019080519060200190610c14929190611a7f565b506040820151816002019080519060200190610c31929190611a7f565b50606082015181600301556080820151816004015560a0820151816005019080519060200190610c62929190611b05565b5060c08201518160060160006101000a81548173ffffffffffffffffffffffffffffffffffffffff021916908373ffffffffffffffffffffffffffffffffffffffff16021790555050505050505050565b66038d7ea4c68000341015610cfd576040517f08c379a0000000000000000000000000000000000000000000000000000000008152600401610cf490612b9b565b60405180910390fd5b60008260ff1610158015610d3b575060038181548110610d2057610d1f612a53565b5b9060005260206000209060070201600501805490508260ff16105b610d7a576040517f08c379a0000000000000000000000000000000000000000000000000000000008152600401610d7190612c99565b60405180910390fd5b60026040518061010001604052808581526020018381526020018460ff1681526020018460ff16815260200160038481548110610dba57610db9612a53565b5b90600052602060002090600702016005018054905067ffffffffffffffff811115610de857610de761243c565b5b604051908082528060200260200182016040528015610e165781602001602082028036833780820191505090505b5081526020016000151581526020013373ffffffffffffffffffffffffffffffffffffffff168152602001600067ffffffffffffffff811115610e5c57610e5b61243c565b5b604051908082528060200260200182016040528015610e8a5781602001602082028036833780820191505090505b5081525090806001815401808255809150506001900390600052602060002090600602016000909190919091506000820151816000019080519060200190610ed3929190611a7f565b506020820151816001015560408201518160020160006101000a81548160ff021916908360ff16021790555060608201518160020160016101000a81548160ff021916908360ff1602179055506080820151816003019080519060200190610f3c929190611b65565b5060a08201518160040160006101000a81548160ff02191690831515021790555060c08201518160040160016101000a81548173ffffffffffffffffffffffffffffffffffffffff021916908373ffffffffffffffffffffffffffffffffffffffff16021790555060e0820151816005019080519060200190610fc0929190611c0c565b5050506001806000828254610fd59190612ce8565b92505081905550505050565b6000600154905090565b66038d7ea4c68000341015611035576040517f08c379a000000000000000000000000000000000000000000000000000000000815260040161102c90612b9b565b60405180910390fd5b600015156002848154811061104d5761104c612a53565b5b906000526020600020906006020160040160009054906101000a900460ff161515146110ae576040517f08c379a00000000000000000000000000000000000000000000000000000000081526004016110a590612d8a565b60405180910390fd5b600283815481106110c2576110c1612a53565b5b906000526020600020906006020160040160019054906101000a900473ffffffffffffffffffffffffffffffffffffffff1673ffffffffffffffffffffffffffffffffffffffff163373ffffffffffffffffffffffffffffffffffffffff161415611162576040517f08c379a000000000000000000000000000000000000000000000000000000000815260040161115990612df6565b60405180910390fd5b60015483108015611174575060008310155b6111b3576040517f08c379a00000000000000000000000000000000000000000000000000000000081526004016111aa90612a33565b60405180910390fd5b60008260ff16101580156111f15750600381815481106111d6576111d5612a53565b5b9060005260206000209060070201600501805490508260ff16105b611230576040517f08c379a000000000000000000000000000000000000000000000000000000000815260040161122790612c99565b60405180910390fd5b61123a3384611747565b611279576040517f08c379a000000000000000000000000000000000000000000000000000000000815260040161127090612e88565b60405180910390fd5b60016002848154811061128f5761128e612a53565b5b90600052602060002090600602016003018360ff16815481106112b5576112b4612a53565b5b90600052602060002090602091828204019190068282829054906101000a900460ff166112e29190612ea8565b92506101000a81548160ff021916908360ff1602179055506002838154811061130e5761130d612a53565b5b9060005260206000209060060201600501339080600181540180825580915050600190039060005260206000200160009091909190916101000a81548173ffffffffffffffffffffffffffffffffffffffff021916908373ffffffffffffffffffffffffffffffffffffffff1602179055506003818154811061139457611393612a53565b5b906000526020600020906007020160030154600284815481106113ba576113b9612a53565b5b90600052602060002090600602016003018360ff16815481106113e0576113df612a53565b5b90600052602060002090602091828204019190069054906101000a900460ff1660ff16141561148f5760016002848154811061141f5761141e612a53565b5b906000526020600020906006020160040160006101000a81548160ff021916908315150217905550816002848154811061145c5761145b612a53565b5b906000526020600020906006020160020160016101000a81548160ff021916908360ff16021790555061148e8361183d565b5b505050565b60606002805480602002602001604051908101604052809291908181526020016000905b8282101561173e5783829060005260206000209060060201604051806101000160405290816000820180546114ec90612ab1565b80601f016020809104026020016040519081016040528092919081815260200182805461151890612ab1565b80156115655780601f1061153a57610100808354040283529160200191611565565b820191906000526020600020905b81548152906001019060200180831161154857829003601f168201915b50505050508152602001600182015481526020016002820160009054906101000a900460ff1660ff1660ff1681526020016002820160019054906101000a900460ff1660ff1660ff1681526020016003820180548060200260200160405190810160405280929190818152602001828054801561162757602002820191906000526020600020906000905b82829054906101000a900460ff1660ff16815260200190600101906020826000010492830192600103820291508084116115f05790505b505050505081526020016004820160009054906101000a900460ff161515151581526020016004820160019054906101000a900473ffffffffffffffffffffffffffffffffffffffff1673ffffffffffffffffffffffffffffffffffffffff1673ffffffffffffffffffffffffffffffffffffffff1681526020016005820180548060200260200160405190810160405280929190818152602001828054801561172657602002820191906000526020600020905b8160009054906101000a900473ffffffffffffffffffffffffffffffffffffffff1673ffffffffffffffffffffffffffffffffffffffff16815260200190600101908083116116dc575b505050505081525050815260200190600101906114b8565b50505050905090565b600080600090505b6002838154811061176357611762612a53565b5b906000526020600020906006020160050180549050811015611831578373ffffffffffffffffffffffffffffffffffffffff16600284815481106117aa576117a9612a53565b5b906000526020600020906006020160050182815481106117cd576117cc612a53565b5b9060005260206000200160009054906101000a900473ffffffffffffffffffffffffffffffffffffffff1673ffffffffffffffffffffffffffffffffffffffff16141561181e576000915050611837565b808061182990612edf565b91505061174f565b50600190505b92915050565b6002818154811061185157611850612a53565b5b906000526020600020906006020160040160019054906101000a900473ffffffffffffffffffffffffffffffffffffffff1673ffffffffffffffffffffffffffffffffffffffff166108fc662386f26fc100009081150290604051600060405180830381858888f193505050501580156118cf573d6000803e3d6000fd5b5060005b600282815481106118e7576118e6612a53565b5b9060005260206000209060060201600501805490508110156119c5576002828154811061191757611916612a53565b5b9060005260206000209060060201600501818154811061193a57611939612a53565b5b9060005260206000200160009054906101000a900473ffffffffffffffffffffffffffffffffffffffff1673ffffffffffffffffffffffffffffffffffffffff166108fc662386f26fc100009081150290604051600060405180830381858888f193505050501580156119b1573d6000803e3d6000fd5b5080806119bd90612edf565b9150506118d3565b5050565b6040518061010001604052806060815260200160008152602001600060ff168152602001600060ff16815260200160608152602001600015158152602001600073ffffffffffffffffffffffffffffffffffffffff168152602001606081525090565b6040518060e00160405280600081526020016060815260200160608152602001600081526020016000815260200160608152602001600073ffffffffffffffffffffffffffffffffffffffff1681525090565b828054611a8b90612ab1565b90600052602060002090601f016020900481019282611aad5760008555611af4565b82601f10611ac657805160ff1916838001178555611af4565b82800160010185558215611af4579182015b82811115611af3578251825591602001919060010190611ad8565b5b509050611b019190611c96565b5090565b828054828255906000526020600020908101928215611b54579160200282015b82811115611b53578251829080519060200190611b43929190611a7f565b5091602001919060010190611b25565b5b509050611b619190611cb3565b5090565b82805482825590600052602060002090601f01602090048101928215611bfb5791602002820160005b83821115611bcc57835183826101000a81548160ff021916908360ff1602179055509260200192600101602081600001049283019260010302611b8e565b8015611bf95782816101000a81549060ff0219169055600101602081600001049283019260010302611bcc565b505b509050611c089190611c96565b5090565b828054828255906000526020600020908101928215611c85579160200282015b82811115611c845782518260006101000a81548173ffffffffffffffffffffffffffffffffffffffff021916908373ffffffffffffffffffffffffffffffffffffffff16021790555091602001919060010190611c2c565b5b509050611c929190611c96565b5090565b5b80821115611caf576000816000905550600101611c97565b5090565b5b80821115611cd35760008181611cca9190611cd7565b50600101611cb4565b5090565b508054611ce390612ab1565b6000825580601f10611cf55750611d14565b601f016020900490600052602060002090810190611d139190611c96565b5b50565b6000604051905090565b600080fd5b600080fd5b6000819050919050565b611d3e81611d2b565b8114611d4957600080fd5b50565b600081359050611d5b81611d35565b92915050565b600060208284031215611d7757611d76611d21565b5b6000611d8584828501611d4c565b91505092915050565b600081519050919050565b600082825260208201905092915050565b60005b83811015611dc8578082015181840152602081019050611dad565b83811115611dd7576000848401525b50505050565b6000601f19601f8301169050919050565b6000611df982611d8e565b611e038185611d99565b9350611e13818560208601611daa565b611e1c81611ddd565b840191505092915050565b611e3081611d2b565b82525050565b600060ff82169050919050565b611e4c81611e36565b82525050565b600081519050919050565b600082825260208201905092915050565b6000819050602082019050919050565b6000611e8a8383611e43565b60208301905092915050565b6000602082019050919050565b6000611eae82611e52565b611eb88185611e5d565b9350611ec383611e6e565b8060005b83811015611ef4578151611edb8882611e7e565b9750611ee683611e96565b925050600181019050611ec7565b5085935050505092915050565b60008115159050919050565b611f1681611f01565b82525050565b600073ffffffffffffffffffffffffffffffffffffffff82169050919050565b6000611f4782611f1c565b9050919050565b611f5781611f3c565b82525050565b600081519050919050565b600082825260208201905092915050565b6000819050602082019050919050565b6000611f958383611f4e565b60208301905092915050565b6000602082019050919050565b6000611fb982611f5d565b611fc38185611f68565b9350611fce83611f79565b8060005b83811015611fff578151611fe68882611f89565b9750611ff183611fa1565b925050600181019050611fd2565b5085935050505092915050565b600061010083016000830151848203600086015261202a8282611dee565b915050602083015161203f6020860182611e27565b5060408301516120526040860182611e43565b5060608301516120656060860182611e43565b506080830151848203608086015261207d8282611ea3565b91505060a083015161209260a0860182611f0d565b5060c08301516120a560c0860182611f4e565b5060e083015184820360e08601526120bd8282611fae565b9150508091505092915050565b600060208201905081810360008301526120e4818461200c565b905092915050565b600081519050919050565b600082825260208201905092915050565b6000819050602082019050919050565b600081519050919050565b600082825260208201905092915050565b6000819050602082019050919050565b60006121508383611dee565b905092915050565b6000602082019050919050565b600061217082612118565b61217a8185612123565b93508360208202850161218c85612134565b8060005b858110156121c857848403895281516121a98582612144565b94506121b483612158565b925060208a01995050600181019050612190565b50829750879550505050505092915050565b600060e0830160008301516121f26000860182611e27565b506020830151848203602086015261220a8282611dee565b915050604083015184820360408601526122248282611dee565b91505060608301516122396060860182611e27565b50608083015161224c6080860182611e27565b5060a083015184820360a08601526122648282612165565b91505060c083015161227960c0860182611f4e565b508091505092915050565b600061229083836121da565b905092915050565b6000602082019050919050565b60006122b0826120ec565b6122ba81856120f7565b9350836020820285016122cc85612108565b8060005b8581101561230857848403895281516122e98582612284565b94506122f483612298565b925060208a019950506001810190506122d0565b50829750879550505050505092915050565b6000602082019050818103600083015261233481846122a5565b905092915050565b61234581611f3c565b82525050565b6000602082019050612360600083018461233c565b92915050565b600060e08301600083015161237e6000860182611e27565b50602083015184820360208601526123968282611dee565b915050604083015184820360408601526123b08282611dee565b91505060608301516123c56060860182611e27565b5060808301516123d86080860182611e27565b5060a083015184820360a08601526123f08282612165565b91505060c083015161240560c0860182611f4e565b508091505092915050565b6000602082019050818103600083015261242a8184612366565b905092915050565b600080fd5b600080fd5b7f4e487b7100000000000000000000000000000000000000000000000000000000600052604160045260246000fd5b61247482611ddd565b810181811067ffffffffffffffff821117156124935761249261243c565b5b80604052505050565b60006124a6611d17565b90506124b2828261246b565b919050565b600067ffffffffffffffff8211156124d2576124d161243c565b5b6124db82611ddd565b9050602081019050919050565b82818337600083830152505050565b600061250a612505846124b7565b61249c565b90508281526020810184848401111561252657612525612437565b5b6125318482856124e8565b509392505050565b600082601f83011261254e5761254d612432565b5b813561255e8482602086016124f7565b91505092915050565b600067ffffffffffffffff8211156125825761258161243c565b5b602082029050602081019050919050565b600080fd5b60006125ab6125a684612567565b61249c565b905080838252602082019050602084028301858111156125ce576125cd612593565b5b835b8181101561261557803567ffffffffffffffff8111156125f3576125f2612432565b5b8086016126008982612539565b855260208501945050506020810190506125d0565b5050509392505050565b600082601f83011261263457612633612432565b5b8135612644848260208601612598565b91505092915050565b600080600080600060a0868803121561266957612668611d21565b5b600086013567ffffffffffffffff81111561268757612686611d26565b5b61269388828901612539565b955050602086013567ffffffffffffffff8111156126b4576126b3611d26565b5b6126c088828901612539565b94505060406126d188828901611d4c565b93505060606126e288828901611d4c565b925050608086013567ffffffffffffffff81111561270357612702611d26565b5b61270f8882890161261f565b9150509295509295909350565b61272581611e36565b811461273057600080fd5b50565b6000813590506127428161271c565b92915050565b60008060006060848603121561276157612760611d21565b5b600084013567ffffffffffffffff81111561277f5761277e611d26565b5b61278b86828701612539565b935050602061279c86828701612733565b92505060406127ad86828701611d4c565b9150509250925092565b6127c081611d2b565b82525050565b60006020820190506127db60008301846127b7565b92915050565b6000806000606084860312156127fa576127f9611d21565b5b600061280886828701611d4c565b935050602061281986828701612733565b925050604061282a86828701611d4c565b9150509250925092565b600081519050919050565b600082825260208201905092915050565b6000819050602082019050919050565b600061010083016000830151848203600086015261287e8282611dee565b91505060208301516128936020860182611e27565b5060408301516128a66040860182611e43565b5060608301516128b96060860182611e43565b50608083015184820360808601526128d18282611ea3565b91505060a08301516128e660a0860182611f0d565b5060c08301516128f960c0860182611f4e565b5060e083015184820360e08601526129118282611fae565b9150508091505092915050565b600061292a8383612860565b905092915050565b6000602082019050919050565b600061294a82612834565b612954818561283f565b93508360208202850161296685612850565b8060005b858110156129a25784840389528151612983858261291e565b945061298e83612932565b925060208a0199505060018101905061296a565b50829750879550505050505092915050565b600060208201905081810360008301526129ce818461293f565b905092915050565b600082825260208201905092915050565b7f496e76616c69642063617074696f6e2069647800000000000000000000000000600082015250565b6000612a1d6013836129d6565b9150612a28826129e7565b602082019050919050565b60006020820190508181036000830152612a4c81612a10565b9050919050565b7f4e487b7100000000000000000000000000000000000000000000000000000000600052603260045260246000fd5b7f4e487b7100000000000000000000000000000000000000000000000000000000600052602260045260246000fd5b60006002820490506001821680612ac957607f821691505b60208210811415612add57612adc612a82565b5b50919050565b7f496e76616c6964206d6f64656c20696478000000000000000000000000000000600082015250565b6000612b196011836129d6565b9150612b2482612ae3565b602082019050919050565b60006020820190508181036000830152612b4881612b0c565b9050919050565b7f4e6f7420656e6f75676820657468000000000000000000000000000000000000600082015250565b6000612b85600e836129d6565b9150612b9082612b4f565b602082019050919050565b60006020820190508181036000830152612bb481612b78565b9050919050565b7f496e76616c6964204e756d626572206f6620566f746573206f7220436170746960008201527f6f6e730000000000000000000000000000000000000000000000000000000000602082015250565b6000612c176023836129d6565b9150612c2282612bbb565b604082019050919050565b60006020820190508181036000830152612c4681612c0a565b9050919050565b7f496e76616c6964206c6162656c00000000000000000000000000000000000000600082015250565b6000612c83600d836129d6565b9150612c8e82612c4d565b602082019050919050565b60006020820190508181036000830152612cb281612c76565b9050919050565b7f4e487b7100000000000000000000000000000000000000000000000000000000600052601160045260246000fd5b6000612cf382611d2b565b9150612cfe83611d2b565b9250827fffffffffffffffffffffffffffffffffffffffffffffffffffffffffffffffff03821115612d3357612d32612cb9565b5b828201905092915050565b7f43616e6e6f742072657669657720612076657269666965642063617074696f6e600082015250565b6000612d746020836129d6565b9150612d7f82612d3e565b602082019050919050565b60006020820190508181036000830152612da381612d67565b9050919050565b7f43616e6e6f742072657669657720796f7572206f776e2063617074696f6e0000600082015250565b6000612de0601e836129d6565b9150612deb82612daa565b602082019050919050565b60006020820190508181036000830152612e0f81612dd3565b9050919050565b7f4f6e6c79206f6e6520766f746520706572206163636f756e7420666f7220657660008201527f6572792063617074696f6e000000000000000000000000000000000000000000602082015250565b6000612e72602b836129d6565b9150612e7d82612e16565b604082019050919050565b60006020820190508181036000830152612ea181612e65565b9050919050565b6000612eb382611e36565b9150612ebe83611e36565b92508260ff03821115612ed457612ed3612cb9565b5b828201905092915050565b6000612eea82611d2b565b91507fffffffffffffffffffffffffffffffffffffffffffffffffffffffffffffffff821415612f1d57612f1c612cb9565b5b60018201905091905056fea2646970667358221220fdbc38963923c1d3c302f14016c990106b805501f2cbbe92dc91320cc6d6903f64736f6c634300080c0033",
  "immutableReferences": {},
  "source": "// SPDX-License-Identifier: MIT\npragma solidity >=0.4.22 <0.9.0;\n\ncontract CaptionReview {\n    address public chairperson;\n    uint captionCnt = 0;\n    uint constant modelCost = 1e18;\n    uint constant captionCost = 1e15;\n    uint constant reviewCost = 1e15;\n    uint constant captionRefund = 1e16;\n    uint constant reviewRefund = 1e16;\n\n    struct Caption{\n        string content;\n        uint256 modelId;\n        uint8 proposedLabel;\n        uint8 verifiedLabel;\n        uint8[] Votes;\n        bool verified;\n        address providerAddr;\n        address[] voters;\n    }\n\n    struct ModelInfo{\n        uint256 id;\n        string name;\n        string description;\n        uint256 NumberOfVotes;\n        uint256 NumberOfCaptions;\n        string[] labels;\n        address modelProviderAddr;\n    }\n\n    Caption[] captions;\n\n    ModelInfo[] models;\n\n    constructor(){\n        chairperson = msg.sender;\n    }\n\n    function addModel(string memory _name, string memory _description, uint _NumOfVotes, uint _NumOfCaptions, string[] memory labels) external payable{\n        require(msg.value >= modelCost,\"Not enough eth\");\n        require(_NumOfVotes > 0 && _NumOfCaptions > 0,\"Invalid Number of Votes or Captions\");\n        models.push(ModelInfo(models.length, _name, _description, _NumOfVotes, _NumOfCaptions, labels, msg.sender));\n    }\n\n    function addCaption(string memory _caption, uint8 _lbl, uint _modelId) external payable{\n        require(msg.value >= captionCost,\"Not enough eth\");\n        require(_lbl >= 0 && _lbl < models[_modelId].labels.length,\"Invalid label\");\n        captions.push(Caption(_caption, _modelId, _lbl, _lbl, new uint8[](models[_modelId].labels.length), false, msg.sender, new address[](0)));\n        captionCnt += 1;\n    }\n\n    function notVoted(address _voter, uint _idx) private view returns (bool) {\n        for (uint i = 0; i < captions[_idx].voters.length; i++) {\n            if (captions[_idx].voters[i] == _voter) {\n                return false;\n            }\n        }\n        return true;\n    }\n\n    function refunding(uint _captionId) private {\n        payable(captions[_captionId].providerAddr).transfer(captionRefund);\n        for (uint i = 0; i < captions[_captionId].voters.length; i++){\n            payable(captions[_captionId].voters[i]).transfer(reviewRefund);\n        }\n    }\n\n    function reviewCaption(uint _idx, uint8 _lbl, uint _modelId) external payable{\n        require(msg.value >= reviewCost,\"Not enough eth\");\n        require(captions[_idx].verified == false, \"Cannot review a verified caption\");\n        require(msg.sender != captions[_idx].providerAddr, \"Cannot review your own caption\");\n        require(_idx < captionCnt && _idx >= 0,\"Invalid caption idx\");\n        require(_lbl >= 0 && _lbl < models[_modelId].labels.length,\"Invalid label\");\n        require(notVoted(msg.sender,_idx),\"Only one vote per account for every caption\");\n        captions[_idx].Votes[_lbl] += 1;\n        captions[_idx].voters.push(msg.sender);\n        if(captions[_idx].Votes[_lbl] == models[_modelId].NumberOfVotes){\n            captions[_idx].verified = true;\n            captions[_idx].verifiedLabel = _lbl;\n            refunding(_idx);\n        }\n    }\n\n    function getModels() public view returns( ModelInfo  [] memory){\n        return models;\n    }\n\n    function getModel(uint _idx) public view returns (ModelInfo memory) {\n        require(_idx < models.length && _idx >= 0,\"Invalid model idx\");\n    \treturn models[_idx];\n    }\n\n    function getCaptions() public view returns( Caption  [] memory){\n        return captions;\n    }\n\n    function getCaption(uint _idx) public view returns (Caption memory) {\n        require(_idx < captionCnt && _idx >= 0,\"Invalid caption idx\");\n    \treturn captions[_idx];\n    }\n\n    function getCaptionCnt() public view returns (uint){\n        return(captionCnt);\n    }\n\n}",
  "sourcePath": "/home/demet/Desktop/thesis/contracts/contracts/CaptionReview.sol",
  "compiler": {
    "name": "solc",
    "version": "0.8.12+commit.f00d7308.Emscripten.clang"
  },
  "schemaVersion": "3.4.6",
  "updatedAt": "2022-05-12T07:30:31.037Z",
  "networkType": "ethereum",
  "devdoc": {
    "kind": "dev",
    "methods": {},
    "version": 1
  },
  "userdoc": {
    "kind": "user",
    "methods": {},
    "version": 1
  }
}