{
  "contractName": "CaptionReview",
  "abi": [
    {
      "inputs": [],
      "stateMutability": "nonpayable",
      "type": "constructor"
    },
    {
      "inputs": [],
      "name": "chairperson",
      "outputs": [
        {
          "internalType": "address",
          "name": "",
          "type": "address"
        }
      ],
      "stateMutability": "view",
      "type": "function",
      "constant": true
    },
    {
      "inputs": [
        {
          "internalType": "string",
          "name": "_name",
          "type": "string"
        },
        {
          "internalType": "string",
          "name": "_description",
          "type": "string"
        },
        {
          "internalType": "uint256",
          "name": "_NumOfVotes",
          "type": "uint256"
        },
        {
          "internalType": "uint256",
          "name": "_NumOfCaptions",
          "type": "uint256"
        },
        {
          "internalType": "string[]",
          "name": "labels",
          "type": "string[]"
        }
      ],
      "name": "addModel",
      "outputs": [],
      "stateMutability": "payable",
      "type": "function",
      "payable": true
    },
    {
      "inputs": [
        {
          "internalType": "string",
          "name": "_caption",
          "type": "string"
        },
        {
          "internalType": "uint8",
          "name": "_lbl",
          "type": "uint8"
        },
        {
          "internalType": "uint256",
          "name": "_modelId",
          "type": "uint256"
        }
      ],
      "name": "addCaption",
      "outputs": [],
      "stateMutability": "payable",
      "type": "function",
      "payable": true
    },
    {
      "inputs": [
        {
          "internalType": "uint256",
          "name": "_idx",
          "type": "uint256"
        },
        {
          "internalType": "uint8",
          "name": "_lbl",
          "type": "uint8"
        },
        {
          "internalType": "uint256",
          "name": "_modelId",
          "type": "uint256"
        }
      ],
      "name": "reviewCaption",
      "outputs": [],
      "stateMutability": "payable",
      "type": "function",
      "payable": true
    },
    {
      "inputs": [],
      "name": "getModels",
      "outputs": [
        {
          "components": [
            {
              "internalType": "uint256",
              "name": "id",
              "type": "uint256"
            },
            {
              "internalType": "string",
              "name": "name",
              "type": "string"
            },
            {
              "internalType": "string",
              "name": "description",
              "type": "string"
            },
            {
              "internalType": "uint256",
              "name": "NumberOfVotes",
              "type": "uint256"
            },
            {
              "internalType": "uint256",
              "name": "NumberOfCaptions",
              "type": "uint256"
            },
            {
              "internalType": "string[]",
              "name": "labels",
              "type": "string[]"
            }
          ],
          "internalType": "struct CaptionReview.ModelInfo[]",
          "name": "",
          "type": "tuple[]"
        }
      ],
      "stateMutability": "view",
      "type": "function",
      "constant": true
    },
    {
      "inputs": [
        {
          "internalType": "uint256",
          "name": "_idx",
          "type": "uint256"
        }
      ],
      "name": "getModel",
      "outputs": [
        {
          "components": [
            {
              "internalType": "uint256",
              "name": "id",
              "type": "uint256"
            },
            {
              "internalType": "string",
              "name": "name",
              "type": "string"
            },
            {
              "internalType": "string",
              "name": "description",
              "type": "string"
            },
            {
              "internalType": "uint256",
              "name": "NumberOfVotes",
              "type": "uint256"
            },
            {
              "internalType": "uint256",
              "name": "NumberOfCaptions",
              "type": "uint256"
            },
            {
              "internalType": "string[]",
              "name": "labels",
              "type": "string[]"
            }
          ],
          "internalType": "struct CaptionReview.ModelInfo",
          "name": "",
          "type": "tuple"
        }
      ],
      "stateMutability": "view",
      "type": "function",
      "constant": true
    },
    {
      "inputs": [],
      "name": "getCaptions",
      "outputs": [
        {
          "components": [
            {
              "internalType": "string",
              "name": "content",
              "type": "string"
            },
            {
              "internalType": "uint256",
              "name": "modelId",
              "type": "uint256"
            },
            {
              "internalType": "uint8",
              "name": "proposedLabel",
              "type": "uint8"
            },
            {
              "internalType": "uint8",
              "name": "verifiedLabel",
              "type": "uint8"
            },
            {
              "internalType": "uint8[]",
              "name": "Votes",
              "type": "uint8[]"
            },
            {
              "internalType": "bool",
              "name": "verified",
              "type": "bool"
            },
            {
              "internalType": "address",
              "name": "providerAddr",
              "type": "address"
            },
            {
              "internalType": "address[]",
              "name": "voters",
              "type": "address[]"
            }
          ],
          "internalType": "struct CaptionReview.Caption[]",
          "name": "",
          "type": "tuple[]"
        }
      ],
      "stateMutability": "view",
      "type": "function",
      "constant": true
    },
    {
      "inputs": [
        {
          "internalType": "uint256",
          "name": "_idx",
          "type": "uint256"
        }
      ],
      "name": "getCaption",
      "outputs": [
        {
          "components": [
            {
              "internalType": "string",
              "name": "content",
              "type": "string"
            },
            {
              "internalType": "uint256",
              "name": "modelId",
              "type": "uint256"
            },
            {
              "internalType": "uint8",
              "name": "proposedLabel",
              "type": "uint8"
            },
            {
              "internalType": "uint8",
              "name": "verifiedLabel",
              "type": "uint8"
            },
            {
              "internalType": "uint8[]",
              "name": "Votes",
              "type": "uint8[]"
            },
            {
              "internalType": "bool",
              "name": "verified",
              "type": "bool"
            },
            {
              "internalType": "address",
              "name": "providerAddr",
              "type": "address"
            },
            {
              "internalType": "address[]",
              "name": "voters",
              "type": "address[]"
            }
          ],
          "internalType": "struct CaptionReview.Caption",
          "name": "",
          "type": "tuple"
        }
      ],
      "stateMutability": "view",
      "type": "function",
      "constant": true
    },
    {
      "inputs": [],
      "name": "getCaptionCnt",
      "outputs": [
        {
          "internalType": "uint256",
          "name": "",
          "type": "uint256"
        }
      ],
      "stateMutability": "view",
      "type": "function",
      "constant": true
    }
  ],
  "bytecode": "0x6080604052600060015534801561001557600080fd5b50336000806101000a81548173ffffffffffffffffffffffffffffffffffffffff021916908373ffffffffffffffffffffffffffffffffffffffff160217905550612c77806100656000396000f3fe6080604052600436106100865760003560e01c8063789446b811610059578063789446b81461015b578063948b831d14610177578063b441682614610193578063cbeefb8c146101be578063eef9cd3a146101da57610086565b80630257e2491461008b57806309817d45146100c85780632e4176cf146100f35780636d3616941461011e575b600080fd5b34801561009757600080fd5b506100b260048036038101906100ad9190611aa0565b610205565b6040516100bf9190611e09565b60405180910390f35b3480156100d457600080fd5b506100dd6104e6565b6040516100ea9190612046565b60405180910390f35b3480156100ff57600080fd5b50610108610760565b6040516101159190612077565b60405180910390f35b34801561012a57600080fd5b5061014560048036038101906101409190611aa0565b610784565b6040516101529190612129565b60405180910390f35b61017560048036038101906101709190612366565b610a2f565b005b610191600480360381019061018c9190612461565b610ba4565b005b34801561019f57600080fd5b506101a8610ed2565b6040516101b591906124df565b60405180910390f35b6101d860048036038101906101d391906124fa565b610edc565b005b3480156101e657600080fd5b506101ef61137c565b6040516101fc91906126cd565b60405180910390f35b61020d611725565b6001548210801561021f575060008210155b61025e576040517f08c379a00000000000000000000000000000000000000000000000000000000081526004016102559061274c565b60405180910390fd5b600282815481106102725761027161276c565b5b90600052602060002090600602016040518061010001604052908160008201805461029c906127ca565b80601f01602080910402602001604051908101604052809291908181526020018280546102c8906127ca565b80156103155780601f106102ea57610100808354040283529160200191610315565b820191906000526020600020905b8154815290600101906020018083116102f857829003601f168201915b50505050508152602001600182015481526020016002820160009054906101000a900460ff1660ff1660ff1681526020016002820160019054906101000a900460ff1660ff1660ff168152602001600382018054806020026020016040519081016040528092919081815260200182805480156103d757602002820191906000526020600020906000905b82829054906101000a900460ff1660ff16815260200190600101906020826000010492830192600103820291508084116103a05790505b505050505081526020016004820160009054906101000a900460ff161515151581526020016004820160019054906101000a900473ffffffffffffffffffffffffffffffffffffffff1673ffffffffffffffffffffffffffffffffffffffff1673ffffffffffffffffffffffffffffffffffffffff168152602001600582018054806020026020016040519081016040528092919081815260200182805480156104d657602002820191906000526020600020905b8160009054906101000a900473ffffffffffffffffffffffffffffffffffffffff1673ffffffffffffffffffffffffffffffffffffffff168152602001906001019080831161048c575b5050505050815250509050919050565b60606003805480602002602001604051908101604052809291908181526020016000905b8282101561075757838290600052602060002090600602016040518060c001604052908160008201548152602001600182018054610547906127ca565b80601f0160208091040260200160405190810160405280929190818152602001828054610573906127ca565b80156105c05780601f10610595576101008083540402835291602001916105c0565b820191906000526020600020905b8154815290600101906020018083116105a357829003601f168201915b505050505081526020016002820180546105d9906127ca565b80601f0160208091040260200160405190810160405280929190818152602001828054610605906127ca565b80156106525780601f1061062757610100808354040283529160200191610652565b820191906000526020600020905b81548152906001019060200180831161063557829003601f168201915b50505050508152602001600382015481526020016004820154815260200160058201805480602002602001604051908101604052809291908181526020016000905b828210156107405783829060005260206000200180546106b3906127ca565b80601f01602080910402602001604051908101604052809291908181526020018280546106df906127ca565b801561072c5780601f106107015761010080835404028352916020019161072c565b820191906000526020600020905b81548152906001019060200180831161070f57829003601f168201915b505050505081526020019060010190610694565b50505050815250508152602001906001019061050a565b50505050905090565b60008054906101000a900473ffffffffffffffffffffffffffffffffffffffff1681565b61078c611788565b600380549050821080156107a1575060008210155b6107e0576040517f08c379a00000000000000000000000000000000000000000000000000000000081526004016107d790612848565b60405180910390fd5b600382815481106107f4576107f361276c565b5b90600052602060002090600602016040518060c001604052908160008201548152602001600182018054610827906127ca565b80601f0160208091040260200160405190810160405280929190818152602001828054610853906127ca565b80156108a05780601f10610875576101008083540402835291602001916108a0565b820191906000526020600020905b81548152906001019060200180831161088357829003601f168201915b505050505081526020016002820180546108b9906127ca565b80601f01602080910402602001604051908101604052809291908181526020018280546108e5906127ca565b80156109325780601f1061090757610100808354040283529160200191610932565b820191906000526020600020905b81548152906001019060200180831161091557829003601f168201915b50505050508152602001600382015481526020016004820154815260200160058201805480602002602001604051908101604052809291908181526020016000905b82821015610a20578382906000526020600020018054610993906127ca565b80601f01602080910402602001604051908101604052809291908181526020018280546109bf906127ca565b8015610a0c5780601f106109e157610100808354040283529160200191610a0c565b820191906000526020600020905b8154815290600101906020018083116109ef57829003601f168201915b505050505081526020019060010190610974565b50505050815250509050919050565b670de0b6b3a7640000341015610a7a576040517f08c379a0000000000000000000000000000000000000000000000000000000008152600401610a71906128b4565b60405180910390fd5b600083118015610a8a5750600082115b610ac9576040517f08c379a0000000000000000000000000000000000000000000000000000000008152600401610ac090612946565b60405180910390fd5b60036040518060c001604052806003805490508152602001878152602001868152602001858152602001848152602001838152509080600181540180825580915050600190039060005260206000209060060201600090919091909150600082015181600001556020820151816001019080519060200190610b4c9291906117be565b506040820151816002019080519060200190610b699291906117be565b50606082015181600301556080820151816004015560a0820151816005019080519060200190610b9a929190611844565b5050505050505050565b662386f26fc10000341015610bee576040517f08c379a0000000000000000000000000000000000000000000000000000000008152600401610be5906128b4565b60405180910390fd5b60008260ff1610158015610c2c575060038181548110610c1157610c1061276c565b5b9060005260206000209060060201600501805490508260ff16105b610c6b576040517f08c379a0000000000000000000000000000000000000000000000000000000008152600401610c62906129b2565b60405180910390fd5b60026040518061010001604052808581526020018381526020018460ff1681526020018460ff16815260200160038481548110610cab57610caa61276c565b5b90600052602060002090600602016005018054905067ffffffffffffffff811115610cd957610cd8612155565b5b604051908082528060200260200182016040528015610d075781602001602082028036833780820191505090505b5081526020016000151581526020013373ffffffffffffffffffffffffffffffffffffffff168152602001600067ffffffffffffffff811115610d4d57610d4c612155565b5b604051908082528060200260200182016040528015610d7b5781602001602082028036833780820191505090505b5081525090806001815401808255809150506001900390600052602060002090600602016000909190919091506000820151816000019080519060200190610dc49291906117be565b506020820151816001015560408201518160020160006101000a81548160ff021916908360ff16021790555060608201518160020160016101000a81548160ff021916908360ff1602179055506080820151816003019080519060200190610e2d9291906118a4565b5060a08201518160040160006101000a81548160ff02191690831515021790555060c08201518160040160016101000a81548173ffffffffffffffffffffffffffffffffffffffff021916908373ffffffffffffffffffffffffffffffffffffffff16021790555060e0820151816005019080519060200190610eb192919061194b565b5050506001806000828254610ec69190612a01565b92505081905550505050565b6000600154905090565b66038d7ea4c68000341015610f26576040517f08c379a0000000000000000000000000000000000000000000000000000000008152600401610f1d906128b4565b60405180910390fd5b6000151560028481548110610f3e57610f3d61276c565b5b906000526020600020906006020160040160009054906101000a900460ff16151514610f9f576040517f08c379a0000000000000000000000000000000000000000000000000000000008152600401610f9690612aa3565b60405180910390fd5b60028381548110610fb357610fb261276c565b5b906000526020600020906006020160040160019054906101000a900473ffffffffffffffffffffffffffffffffffffffff1673ffffffffffffffffffffffffffffffffffffffff163373ffffffffffffffffffffffffffffffffffffffff161415611053576040517f08c379a000000000000000000000000000000000000000000000000000000000815260040161104a90612b0f565b60405180910390fd5b60015483108015611065575060008310155b6110a4576040517f08c379a000000000000000000000000000000000000000000000000000000000815260040161109b9061274c565b60405180910390fd5b60008260ff16101580156110e25750600381815481106110c7576110c661276c565b5b9060005260206000209060060201600501805490508260ff16105b611121576040517f08c379a0000000000000000000000000000000000000000000000000000000008152600401611118906129b2565b60405180910390fd5b61112b338461162f565b61116a576040517f08c379a000000000000000000000000000000000000000000000000000000000815260040161116190612ba1565b60405180910390fd5b6001600284815481106111805761117f61276c565b5b90600052602060002090600602016003018360ff16815481106111a6576111a561276c565b5b90600052602060002090602091828204019190068282829054906101000a900460ff166111d39190612bc1565b92506101000a81548160ff021916908360ff160217905550600283815481106111ff576111fe61276c565b5b9060005260206000209060060201600501339080600181540180825580915050600190039060005260206000200160009091909190916101000a81548173ffffffffffffffffffffffffffffffffffffffff021916908373ffffffffffffffffffffffffffffffffffffffff160217905550600381815481106112855761128461276c565b5b906000526020600020906006020160030154600284815481106112ab576112aa61276c565b5b90600052602060002090600602016003018360ff16815481106112d1576112d061276c565b5b90600052602060002090602091828204019190069054906101000a900460ff1660ff161415611377576001600284815481106113105761130f61276c565b5b906000526020600020906006020160040160006101000a81548160ff021916908315150217905550816002848154811061134d5761134c61276c565b5b906000526020600020906006020160020160016101000a81548160ff021916908360ff1602179055505b505050565b60606002805480602002602001604051908101604052809291908181526020016000905b828210156116265783829060005260206000209060060201604051806101000160405290816000820180546113d4906127ca565b80601f0160208091040260200160405190810160405280929190818152602001828054611400906127ca565b801561144d5780601f106114225761010080835404028352916020019161144d565b820191906000526020600020905b81548152906001019060200180831161143057829003601f168201915b50505050508152602001600182015481526020016002820160009054906101000a900460ff1660ff1660ff1681526020016002820160019054906101000a900460ff1660ff1660ff1681526020016003820180548060200260200160405190810160405280929190818152602001828054801561150f57602002820191906000526020600020906000905b82829054906101000a900460ff1660ff16815260200190600101906020826000010492830192600103820291508084116114d85790505b505050505081526020016004820160009054906101000a900460ff161515151581526020016004820160019054906101000a900473ffffffffffffffffffffffffffffffffffffffff1673ffffffffffffffffffffffffffffffffffffffff1673ffffffffffffffffffffffffffffffffffffffff1681526020016005820180548060200260200160405190810160405280929190818152602001828054801561160e57602002820191906000526020600020905b8160009054906101000a900473ffffffffffffffffffffffffffffffffffffffff1673ffffffffffffffffffffffffffffffffffffffff16815260200190600101908083116115c4575b505050505081525050815260200190600101906113a0565b50505050905090565b600080600090505b6002838154811061164b5761164a61276c565b5b906000526020600020906006020160050180549050811015611719578373ffffffffffffffffffffffffffffffffffffffff16600284815481106116925761169161276c565b5b906000526020600020906006020160050182815481106116b5576116b461276c565b5b9060005260206000200160009054906101000a900473ffffffffffffffffffffffffffffffffffffffff1673ffffffffffffffffffffffffffffffffffffffff16141561170657600091505061171f565b808061171190612bf8565b915050611637565b50600190505b92915050565b6040518061010001604052806060815260200160008152602001600060ff168152602001600060ff16815260200160608152602001600015158152602001600073ffffffffffffffffffffffffffffffffffffffff168152602001606081525090565b6040518060c001604052806000815260200160608152602001606081526020016000815260200160008152602001606081525090565b8280546117ca906127ca565b90600052602060002090601f0160209004810192826117ec5760008555611833565b82601f1061180557805160ff1916838001178555611833565b82800160010185558215611833579182015b82811115611832578251825591602001919060010190611817565b5b50905061184091906119d5565b5090565b828054828255906000526020600020908101928215611893579160200282015b828111156118925782518290805190602001906118829291906117be565b5091602001919060010190611864565b5b5090506118a091906119f2565b5090565b82805482825590600052602060002090601f0160209004810192821561193a5791602002820160005b8382111561190b57835183826101000a81548160ff021916908360ff16021790555092602001926001016020816000010492830192600103026118cd565b80156119385782816101000a81549060ff021916905560010160208160000104928301926001030261190b565b505b50905061194791906119d5565b5090565b8280548282559060005260206000209081019282156119c4579160200282015b828111156119c35782518260006101000a81548173ffffffffffffffffffffffffffffffffffffffff021916908373ffffffffffffffffffffffffffffffffffffffff1602179055509160200191906001019061196b565b5b5090506119d191906119d5565b5090565b5b808211156119ee5760008160009055506001016119d6565b5090565b5b80821115611a125760008181611a099190611a16565b506001016119f3565b5090565b508054611a22906127ca565b6000825580601f10611a345750611a53565b601f016020900490600052602060002090810190611a5291906119d5565b5b50565b6000604051905090565b600080fd5b600080fd5b6000819050919050565b611a7d81611a6a565b8114611a8857600080fd5b50565b600081359050611a9a81611a74565b92915050565b600060208284031215611ab657611ab5611a60565b5b6000611ac484828501611a8b565b91505092915050565b600081519050919050565b600082825260208201905092915050565b60005b83811015611b07578082015181840152602081019050611aec565b83811115611b16576000848401525b50505050565b6000601f19601f8301169050919050565b6000611b3882611acd565b611b428185611ad8565b9350611b52818560208601611ae9565b611b5b81611b1c565b840191505092915050565b611b6f81611a6a565b82525050565b600060ff82169050919050565b611b8b81611b75565b82525050565b600081519050919050565b600082825260208201905092915050565b6000819050602082019050919050565b6000611bc98383611b82565b60208301905092915050565b6000602082019050919050565b6000611bed82611b91565b611bf78185611b9c565b9350611c0283611bad565b8060005b83811015611c33578151611c1a8882611bbd565b9750611c2583611bd5565b925050600181019050611c06565b5085935050505092915050565b60008115159050919050565b611c5581611c40565b82525050565b600073ffffffffffffffffffffffffffffffffffffffff82169050919050565b6000611c8682611c5b565b9050919050565b611c9681611c7b565b82525050565b600081519050919050565b600082825260208201905092915050565b6000819050602082019050919050565b6000611cd48383611c8d565b60208301905092915050565b6000602082019050919050565b6000611cf882611c9c565b611d028185611ca7565b9350611d0d83611cb8565b8060005b83811015611d3e578151611d258882611cc8565b9750611d3083611ce0565b925050600181019050611d11565b5085935050505092915050565b6000610100830160008301518482036000860152611d698282611b2d565b9150506020830151611d7e6020860182611b66565b506040830151611d916040860182611b82565b506060830151611da46060860182611b82565b5060808301518482036080860152611dbc8282611be2565b91505060a0830151611dd160a0860182611c4c565b5060c0830151611de460c0860182611c8d565b5060e083015184820360e0860152611dfc8282611ced565b9150508091505092915050565b60006020820190508181036000830152611e238184611d4b565b905092915050565b600081519050919050565b600082825260208201905092915050565b6000819050602082019050919050565b600081519050919050565b600082825260208201905092915050565b6000819050602082019050919050565b6000611e8f8383611b2d565b905092915050565b6000602082019050919050565b6000611eaf82611e57565b611eb98185611e62565b935083602082028501611ecb85611e73565b8060005b85811015611f075784840389528151611ee88582611e83565b9450611ef383611e97565b925060208a01995050600181019050611ecf565b50829750879550505050505092915050565b600060c083016000830151611f316000860182611b66565b5060208301518482036020860152611f498282611b2d565b91505060408301518482036040860152611f638282611b2d565b9150506060830151611f786060860182611b66565b506080830151611f8b6080860182611b66565b5060a083015184820360a0860152611fa38282611ea4565b9150508091505092915050565b6000611fbc8383611f19565b905092915050565b6000602082019050919050565b6000611fdc82611e2b565b611fe68185611e36565b935083602082028501611ff885611e47565b8060005b8581101561203457848403895281516120158582611fb0565b945061202083611fc4565b925060208a01995050600181019050611ffc565b50829750879550505050505092915050565b600060208201905081810360008301526120608184611fd1565b905092915050565b61207181611c7b565b82525050565b600060208201905061208c6000830184612068565b92915050565b600060c0830160008301516120aa6000860182611b66565b50602083015184820360208601526120c28282611b2d565b915050604083015184820360408601526120dc8282611b2d565b91505060608301516120f16060860182611b66565b5060808301516121046080860182611b66565b5060a083015184820360a086015261211c8282611ea4565b9150508091505092915050565b600060208201905081810360008301526121438184612092565b905092915050565b600080fd5b600080fd5b7f4e487b7100000000000000000000000000000000000000000000000000000000600052604160045260246000fd5b61218d82611b1c565b810181811067ffffffffffffffff821117156121ac576121ab612155565b5b80604052505050565b60006121bf611a56565b90506121cb8282612184565b919050565b600067ffffffffffffffff8211156121eb576121ea612155565b5b6121f482611b1c565b9050602081019050919050565b82818337600083830152505050565b600061222361221e846121d0565b6121b5565b90508281526020810184848401111561223f5761223e612150565b5b61224a848285612201565b509392505050565b600082601f8301126122675761226661214b565b5b8135612277848260208601612210565b91505092915050565b600067ffffffffffffffff82111561229b5761229a612155565b5b602082029050602081019050919050565b600080fd5b60006122c46122bf84612280565b6121b5565b905080838252602082019050602084028301858111156122e7576122e66122ac565b5b835b8181101561232e57803567ffffffffffffffff81111561230c5761230b61214b565b5b8086016123198982612252565b855260208501945050506020810190506122e9565b5050509392505050565b600082601f83011261234d5761234c61214b565b5b813561235d8482602086016122b1565b91505092915050565b600080600080600060a0868803121561238257612381611a60565b5b600086013567ffffffffffffffff8111156123a05761239f611a65565b5b6123ac88828901612252565b955050602086013567ffffffffffffffff8111156123cd576123cc611a65565b5b6123d988828901612252565b94505060406123ea88828901611a8b565b93505060606123fb88828901611a8b565b925050608086013567ffffffffffffffff81111561241c5761241b611a65565b5b61242888828901612338565b9150509295509295909350565b61243e81611b75565b811461244957600080fd5b50565b60008135905061245b81612435565b92915050565b60008060006060848603121561247a57612479611a60565b5b600084013567ffffffffffffffff81111561249857612497611a65565b5b6124a486828701612252565b93505060206124b58682870161244c565b92505060406124c686828701611a8b565b9150509250925092565b6124d981611a6a565b82525050565b60006020820190506124f460008301846124d0565b92915050565b60008060006060848603121561251357612512611a60565b5b600061252186828701611a8b565b93505060206125328682870161244c565b925050604061254386828701611a8b565b9150509250925092565b600081519050919050565b600082825260208201905092915050565b6000819050602082019050919050565b60006101008301600083015184820360008601526125978282611b2d565b91505060208301516125ac6020860182611b66565b5060408301516125bf6040860182611b82565b5060608301516125d26060860182611b82565b50608083015184820360808601526125ea8282611be2565b91505060a08301516125ff60a0860182611c4c565b5060c083015161261260c0860182611c8d565b5060e083015184820360e086015261262a8282611ced565b9150508091505092915050565b60006126438383612579565b905092915050565b6000602082019050919050565b60006126638261254d565b61266d8185612558565b93508360208202850161267f85612569565b8060005b858110156126bb578484038952815161269c8582612637565b94506126a78361264b565b925060208a01995050600181019050612683565b50829750879550505050505092915050565b600060208201905081810360008301526126e78184612658565b905092915050565b600082825260208201905092915050565b7f496e76616c69642063617074696f6e2069647800000000000000000000000000600082015250565b60006127366013836126ef565b915061274182612700565b602082019050919050565b6000602082019050818103600083015261276581612729565b9050919050565b7f4e487b7100000000000000000000000000000000000000000000000000000000600052603260045260246000fd5b7f4e487b7100000000000000000000000000000000000000000000000000000000600052602260045260246000fd5b600060028204905060018216806127e257607f821691505b602082108114156127f6576127f561279b565b5b50919050565b7f496e76616c6964206d6f64656c20696478000000000000000000000000000000600082015250565b60006128326011836126ef565b915061283d826127fc565b602082019050919050565b6000602082019050818103600083015261286181612825565b9050919050565b7f4e6f7420656e6f75676820657468000000000000000000000000000000000000600082015250565b600061289e600e836126ef565b91506128a982612868565b602082019050919050565b600060208201905081810360008301526128cd81612891565b9050919050565b7f496e76616c6964204e756d626572206f6620566f746573206f7220436170746960008201527f6f6e730000000000000000000000000000000000000000000000000000000000602082015250565b60006129306023836126ef565b915061293b826128d4565b604082019050919050565b6000602082019050818103600083015261295f81612923565b9050919050565b7f496e76616c6964206c6162656c00000000000000000000000000000000000000600082015250565b600061299c600d836126ef565b91506129a782612966565b602082019050919050565b600060208201905081810360008301526129cb8161298f565b9050919050565b7f4e487b7100000000000000000000000000000000000000000000000000000000600052601160045260246000fd5b6000612a0c82611a6a565b9150612a1783611a6a565b9250827fffffffffffffffffffffffffffffffffffffffffffffffffffffffffffffffff03821115612a4c57612a4b6129d2565b5b828201905092915050565b7f43616e6e6f742072657669657720612076657269666965642063617074696f6e600082015250565b6000612a8d6020836126ef565b9150612a9882612a57565b602082019050919050565b60006020820190508181036000830152612abc81612a80565b9050919050565b7f43616e6e6f742072657669657720796f7572206f776e2063617074696f6e0000600082015250565b6000612af9601e836126ef565b9150612b0482612ac3565b602082019050919050565b60006020820190508181036000830152612b2881612aec565b9050919050565b7f4f6e6c79206f6e6520766f746520706572206163636f756e7420666f7220657660008201527f6572792063617074696f6e000000000000000000000000000000000000000000602082015250565b6000612b8b602b836126ef565b9150612b9682612b2f565b604082019050919050565b60006020820190508181036000830152612bba81612b7e565b9050919050565b6000612bcc82611b75565b9150612bd783611b75565b92508260ff03821115612bed57612bec6129d2565b5b828201905092915050565b6000612c0382611a6a565b91507fffffffffffffffffffffffffffffffffffffffffffffffffffffffffffffffff821415612c3657612c356129d2565b5b60018201905091905056fea264697066735822122041fcc705d8af443eefcc787e7b251609889c8eca3fe59fc841bf2f424a4dc8ed64736f6c634300080c0033",
  "immutableReferences": {},
  "source": "// SPDX-License-Identifier: MIT\npragma solidity >=0.4.22 <0.9.0;\n\ncontract CaptionReview {\n    address public chairperson;\n    uint captionCnt = 0;\n\n    struct Caption{\n        string content;\n        uint256 modelId;\n        uint8 proposedLabel;\n        uint8 verifiedLabel;\n        uint8[] Votes;\n        bool verified;\n        address providerAddr;\n        address[] voters;\n    }\n\n    struct ModelInfo{\n        uint256 id;\n        string name;\n        string description;\n        uint256 NumberOfVotes;\n        uint256 NumberOfCaptions;\n        string[] labels;\n    }\n\n    Caption[] captions;\n\n    ModelInfo[] models;\n\n    constructor(){\n        chairperson = msg.sender;\n    }\n\n    function addModel(string memory _name, string memory _description, uint _NumOfVotes, uint _NumOfCaptions, string[] memory labels) external payable{\n        require(msg.value >= 1e18,\"Not enough eth\");\n        require(_NumOfVotes > 0 && _NumOfCaptions > 0,\"Invalid Number of Votes or Captions\");\n        models.push(ModelInfo(models.length, _name, _description, _NumOfVotes, _NumOfCaptions, labels));\n    }\n\n    function addCaption(string memory _caption, uint8 _lbl, uint _modelId) external payable{\n        require(msg.value >= 1e16,\"Not enough eth\");\n        require(_lbl >= 0 && _lbl < models[_modelId].labels.length,\"Invalid label\");\n        captions.push(Caption(_caption, _modelId, _lbl, _lbl, new uint8[](models[_modelId].labels.length), false, msg.sender, new address[](0)));\n        captionCnt += 1;\n    }\n\n    function notVoted(address _voter, uint _idx) private view returns (bool) {\n        for (uint i = 0; i < captions[_idx].voters.length; i++) {\n            if (captions[_idx].voters[i] == _voter) {\n                return false;\n            }\n        }\n        return true;\n    }\n\n    function reviewCaption(uint _idx, uint8 _lbl, uint _modelId) external payable{\n        require(msg.value >= 1e15,\"Not enough eth\");\n        require(captions[_idx].verified == false, \"Cannot review a verified caption\");\n        require(msg.sender != captions[_idx].providerAddr, \"Cannot review your own caption\");\n        require(_idx < captionCnt && _idx >= 0,\"Invalid caption idx\");\n        require(_lbl >= 0 && _lbl < models[_modelId].labels.length,\"Invalid label\");\n        require(notVoted(msg.sender,_idx),\"Only one vote per account for every caption\");\n        captions[_idx].Votes[_lbl] += 1;\n        captions[_idx].voters.push(msg.sender);\n        if(captions[_idx].Votes[_lbl] == models[_modelId].NumberOfVotes){\n            captions[_idx].verified = true;\n            captions[_idx].verifiedLabel = _lbl;\n        }\n    }\n\n    function getModels() public view returns( ModelInfo  [] memory){\n        return models;\n    }\n\n    function getModel(uint _idx) public view returns (ModelInfo memory) {\n        require(_idx < models.length && _idx >= 0,\"Invalid model idx\");\n    \treturn models[_idx];\n    }\n\n    function getCaptions() public view returns( Caption  [] memory){\n        return captions;\n    }\n\n    function getCaption(uint _idx) public view returns (Caption memory) {\n        require(_idx < captionCnt && _idx >= 0,\"Invalid caption idx\");\n    \treturn captions[_idx];\n    }\n\n    function getCaptionCnt() public view returns (uint){\n        return(captionCnt);\n    }\n\n}",
  "sourcePath": "/home/demet/Desktop/thesis/contracts/contracts/CaptionReview.sol",
  "compiler": {
    "name": "solc",
    "version": "0.8.12+commit.f00d7308.Emscripten.clang"
  },
  "schemaVersion": "3.4.6",
  "updatedAt": "2022-05-07T16:48:19.491Z",
  "networkType": "ethereum",
  "devdoc": {
    "kind": "dev",
    "methods": {},
    "version": 1
  },
  "userdoc": {
    "kind": "user",
    "methods": {},
    "version": 1
  }
}