{
  "contractName": "CaptionReview",
  "abi": [
    {
      "inputs": [],
      "stateMutability": "nonpayable",
      "type": "constructor"
    },
    {
      "inputs": [],
      "name": "chairperson",
      "outputs": [
        {
          "internalType": "address",
          "name": "",
          "type": "address"
        }
      ],
      "stateMutability": "view",
      "type": "function",
      "constant": true
    },
    {
      "inputs": [
        {
          "internalType": "string",
          "name": "_name",
          "type": "string"
        },
        {
          "internalType": "string",
          "name": "_description",
          "type": "string"
        },
        {
          "internalType": "uint256",
          "name": "_NumOfVotes",
          "type": "uint256"
        },
        {
          "internalType": "uint256",
          "name": "_NumOfCaptions",
          "type": "uint256"
        },
        {
          "internalType": "uint256",
          "name": "_initialAcc",
          "type": "uint256"
        },
        {
          "internalType": "string[]",
          "name": "labels",
          "type": "string[]"
        }
      ],
      "name": "addModel",
      "outputs": [],
      "stateMutability": "payable",
      "type": "function",
      "payable": true
    },
    {
      "inputs": [
        {
          "internalType": "string",
          "name": "_caption",
          "type": "string"
        },
        {
          "internalType": "uint8",
          "name": "_lbl",
          "type": "uint8"
        },
        {
          "internalType": "uint256",
          "name": "_modelId",
          "type": "uint256"
        }
      ],
      "name": "addCaption",
      "outputs": [],
      "stateMutability": "payable",
      "type": "function",
      "payable": true
    },
    {
      "inputs": [
        {
          "internalType": "uint256",
          "name": "_idx",
          "type": "uint256"
        },
        {
          "internalType": "uint8",
          "name": "_lbl",
          "type": "uint8"
        },
        {
          "internalType": "uint256",
          "name": "_modelId",
          "type": "uint256"
        }
      ],
      "name": "reviewCaption",
      "outputs": [],
      "stateMutability": "payable",
      "type": "function",
      "payable": true
    },
    {
      "inputs": [],
      "name": "getModels",
      "outputs": [
        {
          "components": [
            {
              "internalType": "uint256",
              "name": "id",
              "type": "uint256"
            },
            {
              "internalType": "string",
              "name": "name",
              "type": "string"
            },
            {
              "internalType": "string",
              "name": "description",
              "type": "string"
            },
            {
              "internalType": "uint256",
              "name": "NumberOfVotes",
              "type": "uint256"
            },
            {
              "internalType": "uint256",
              "name": "NumberOfCaptions",
              "type": "uint256"
            },
            {
              "internalType": "string[]",
              "name": "labels",
              "type": "string[]"
            },
            {
              "internalType": "address",
              "name": "modelProviderAddr",
              "type": "address"
            },
            {
              "internalType": "uint256[]",
              "name": "accuracy",
              "type": "uint256[]"
            }
          ],
          "internalType": "struct CaptionReview.ModelInfo[]",
          "name": "",
          "type": "tuple[]"
        }
      ],
      "stateMutability": "view",
      "type": "function",
      "constant": true
    },
    {
      "inputs": [],
      "name": "getCaptions",
      "outputs": [
        {
          "components": [
            {
              "internalType": "string",
              "name": "content",
              "type": "string"
            },
            {
              "internalType": "uint256",
              "name": "modelId",
              "type": "uint256"
            },
            {
              "internalType": "uint8",
              "name": "proposedLabel",
              "type": "uint8"
            },
            {
              "internalType": "uint8",
              "name": "verifiedLabel",
              "type": "uint8"
            },
            {
              "internalType": "uint8[]",
              "name": "Votes",
              "type": "uint8[]"
            },
            {
              "internalType": "bool",
              "name": "verified",
              "type": "bool"
            },
            {
              "internalType": "address",
              "name": "providerAddr",
              "type": "address"
            },
            {
              "internalType": "address[]",
              "name": "voters",
              "type": "address[]"
            }
          ],
          "internalType": "struct CaptionReview.Caption[]",
          "name": "",
          "type": "tuple[]"
        }
      ],
      "stateMutability": "view",
      "type": "function",
      "constant": true
    },
    {
      "inputs": [],
      "name": "getUsedCaptions",
      "outputs": [
        {
          "components": [
            {
              "internalType": "string",
              "name": "content",
              "type": "string"
            },
            {
              "internalType": "uint256",
              "name": "modelId",
              "type": "uint256"
            },
            {
              "internalType": "uint8",
              "name": "verifiedLabel",
              "type": "uint8"
            }
          ],
          "internalType": "struct CaptionReview.UsedCaption[]",
          "name": "",
          "type": "tuple[]"
        }
      ],
      "stateMutability": "view",
      "type": "function",
      "constant": true
    },
    {
      "inputs": [
        {
          "internalType": "uint256",
          "name": "_idx",
          "type": "uint256"
        },
        {
          "internalType": "uint256",
          "name": "_acc",
          "type": "uint256"
        }
      ],
      "name": "addAccuracy",
      "outputs": [],
      "stateMutability": "nonpayable",
      "type": "function"
    },
    {
      "inputs": [
        {
          "internalType": "uint256[]",
          "name": "_inputUsedCaptions",
          "type": "uint256[]"
        }
      ],
      "name": "updateCaptionTrainStatus",
      "outputs": [],
      "stateMutability": "nonpayable",
      "type": "function"
    }
  ],
  "bytecode": "0x608060405234801561001057600080fd5b50336000806101000a81548173ffffffffffffffffffffffffffffffffffffffff021916908373ffffffffffffffffffffffffffffffffffffffff16021790555061325d806100606000396000f3fe6080604052600436106100865760003560e01c8063cbeefb8c11610059578063cbeefb8c14610126578063d0df008714610142578063d69fca321461016d578063dcbb34a514610196578063eef9cd3a146101b257610086565b806309817d451461008b5780632e4176cf146100b657806341252ec2146100e1578063948b831d1461010a575b600080fd5b34801561009757600080fd5b506100a06101dd565b6040516100ad9190612307565b60405180910390f35b3480156100c257600080fd5b506100cb610506565b6040516100d89190612338565b60405180910390f35b3480156100ed57600080fd5b5061010860048036038101906101039190612393565b61052a565b005b610124600480360381019061011f9190612541565b61057a565b005b610140600480360381019061013b91906125b0565b61088f565b005b34801561014e57600080fd5b50610157610d39565b6040516101649190612724565b60405180910390f35b34801561017957600080fd5b50610194600480360381019061018f919061280e565b610e51565b005b6101b060048036038101906101ab9190612938565b6112d7565b005b3480156101be57600080fd5b506101c761157a565b6040516101d49190612d12565b60405180910390f35b60606003805480602002602001604051908101604052809291908181526020016000905b828210156104fd5783829060005260206000209060080201604051806101000160405290816000820154815260200160018201805461023f90612d63565b80601f016020809104026020016040519081016040528092919081815260200182805461026b90612d63565b80156102b85780601f1061028d576101008083540402835291602001916102b8565b820191906000526020600020905b81548152906001019060200180831161029b57829003601f168201915b505050505081526020016002820180546102d190612d63565b80601f01602080910402602001604051908101604052809291908181526020018280546102fd90612d63565b801561034a5780601f1061031f5761010080835404028352916020019161034a565b820191906000526020600020905b81548152906001019060200180831161032d57829003601f168201915b50505050508152602001600382015481526020016004820154815260200160058201805480602002602001604051908101604052809291908181526020016000905b828210156104385783829060005260206000200180546103ab90612d63565b80601f01602080910402602001604051908101604052809291908181526020018280546103d790612d63565b80156104245780601f106103f957610100808354040283529160200191610424565b820191906000526020600020905b81548152906001019060200180831161040757829003601f168201915b50505050508152602001906001019061038c565b5050505081526020016006820160009054906101000a900473ffffffffffffffffffffffffffffffffffffffff1673ffffffffffffffffffffffffffffffffffffffff1673ffffffffffffffffffffffffffffffffffffffff168152602001600782018054806020026020016040519081016040528092919081815260200182805480156104e557602002820191906000526020600020905b8154815260200190600101908083116104d1575b50505050508152505081526020019060010190610201565b50505050905090565b60008054906101000a900473ffffffffffffffffffffffffffffffffffffffff1681565b6003828154811061053e5761053d612d95565b5b90600052602060002090600802016007018190806001815401808255809150506001900390600052602060002001600090919091909150555050565b66038d7ea4c680003410156105c4576040517f08c379a00000000000000000000000000000000000000000000000000000000081526004016105bb90612e21565b60405180910390fd5b60008260ff16101580156106025750600381815481106105e7576105e6612d95565b5b9060005260206000209060080201600501805490508260ff16105b610641576040517f08c379a000000000000000000000000000000000000000000000000000000000815260040161063890612e8d565b60405180910390fd5b60016040518061010001604052808581526020018381526020018460ff1681526020018460ff1681526020016003848154811061068157610680612d95565b5b90600052602060002090600802016005018054905067ffffffffffffffff8111156106af576106ae6123dd565b5b6040519080825280602002602001820160405280156106dd5781602001602082028036833780820191505090505b5081526020016000151581526020013373ffffffffffffffffffffffffffffffffffffffff168152602001600067ffffffffffffffff811115610723576107226123dd565b5b6040519080825280602002602001820160405280156107515781602001602082028036833780820191505090505b508152509080600181540180825580915050600190039060005260206000209060060201600090919091909150600082015181600001908051906020019061079a929190611aaf565b506020820151816001015560408201518160020160006101000a81548160ff021916908360ff16021790555060608201518160020160016101000a81548160ff021916908360ff1602179055506080820151816003019080519060200190610803929190611b35565b5060a08201518160040160006101000a81548160ff02191690831515021790555060c08201518160040160016101000a81548173ffffffffffffffffffffffffffffffffffffffff021916908373ffffffffffffffffffffffffffffffffffffffff16021790555060e0820151816005019080519060200190610887929190611bdc565b505050505050565b66038d7ea4c680003410156108d9576040517f08c379a00000000000000000000000000000000000000000000000000000000081526004016108d090612e21565b60405180910390fd5b60001515600184815481106108f1576108f0612d95565b5b906000526020600020906006020160040160009054906101000a900460ff16151514610952576040517f08c379a000000000000000000000000000000000000000000000000000000000815260040161094990612ef9565b60405180910390fd5b6001838154811061096657610965612d95565b5b906000526020600020906006020160040160019054906101000a900473ffffffffffffffffffffffffffffffffffffffff1673ffffffffffffffffffffffffffffffffffffffff163373ffffffffffffffffffffffffffffffffffffffff161415610a06576040517f08c379a00000000000000000000000000000000000000000000000000000000081526004016109fd90612f65565b60405180910390fd5b60018054905083108015610a1b575060008310155b610a5a576040517f08c379a0000000000000000000000000000000000000000000000000000000008152600401610a5190612fd1565b60405180910390fd5b60008260ff1610158015610a98575060038181548110610a7d57610a7c612d95565b5b9060005260206000209060080201600501805490508260ff16105b610ad7576040517f08c379a0000000000000000000000000000000000000000000000000000000008152600401610ace90612e8d565b60405180910390fd5b610ae1338461182d565b610b20576040517f08c379a0000000000000000000000000000000000000000000000000000000008152600401610b1790613063565b60405180910390fd5b6001808481548110610b3557610b34612d95565b5b90600052602060002090600602016003018360ff1681548110610b5b57610b5a612d95565b5b90600052602060002090602091828204019190068282829054906101000a900460ff16610b8891906130b2565b92506101000a81548160ff021916908360ff16021790555060018381548110610bb457610bb3612d95565b5b9060005260206000209060060201600501339080600181540180825580915050600190039060005260206000200160009091909190916101000a81548173ffffffffffffffffffffffffffffffffffffffff021916908373ffffffffffffffffffffffffffffffffffffffff16021790555060038181548110610c3a57610c39612d95565b5b90600052602060002090600802016003015460018481548110610c6057610c5f612d95565b5b90600052602060002090600602016003018360ff1681548110610c8657610c85612d95565b5b90600052602060002090602091828204019190069054906101000a900460ff1660ff161415610d34576001808481548110610cc457610cc3612d95565b5b906000526020600020906006020160040160006101000a81548160ff0219169083151502179055508160018481548110610d0157610d00612d95565b5b906000526020600020906006020160020160016101000a81548160ff021916908360ff160217905550610d3383611923565b5b505050565b60606002805480602002602001604051908101604052809291908181526020016000905b82821015610e485783829060005260206000209060030201604051806060016040529081600082018054610d9090612d63565b80601f0160208091040260200160405190810160405280929190818152602001828054610dbc90612d63565b8015610e095780601f10610dde57610100808354040283529160200191610e09565b820191906000526020600020905b815481529060010190602001808311610dec57829003601f168201915b50505050508152602001600182015481526020016002820160009054906101000a900460ff1660ff1660ff168152505081526020019060010190610d5d565b50505050905090565b60005b81518110156112d357600260405180606001604052806001858581518110610e7f57610e7e612d95565b5b602002602001015181548110610e9857610e97612d95565b5b90600052602060002090600602016000018054610eb490612d63565b80601f0160208091040260200160405190810160405280929190818152602001828054610ee090612d63565b8015610f2d5780601f10610f0257610100808354040283529160200191610f2d565b820191906000526020600020905b815481529060010190602001808311610f1057829003601f168201915b505050505081526020016001858581518110610f4c57610f4b612d95565b5b602002602001015181548110610f6557610f64612d95565b5b90600052602060002090600602016001015481526020016001858581518110610f9157610f90612d95565b5b602002602001015181548110610faa57610fa9612d95565b5b906000526020600020906006020160020160019054906101000a900460ff1660ff1681525090806001815401808255809150506001900390600052602060002090600302016000909190919091506000820151816000019080519060200190611014929190611aaf565b506020820151816001015560408201518160020160006101000a81548160ff021916908360ff1602179055505050600180808054905061105491906130e9565b8154811061106557611064612d95565b5b9060005260206000209060060201600183838151811061108857611087612d95565b5b6020026020010151815481106110a1576110a0612d95565b5b906000526020600020906006020160008201816000019080546110c390612d63565b6110ce929190611c66565b50600182015481600101556002820160009054906101000a900460ff168160020160006101000a81548160ff021916908360ff1602179055506002820160019054906101000a900460ff168160020160016101000a81548160ff021916908360ff160217905550600382018160030190805461114b929190611cf3565b506004820160009054906101000a900460ff168160040160006101000a81548160ff0219169083151502179055506004820160019054906101000a900473ffffffffffffffffffffffffffffffffffffffff168160040160016101000a81548173ffffffffffffffffffffffffffffffffffffffff021916908373ffffffffffffffffffffffffffffffffffffffff16021790555060058201816005019080546111f6929190611d53565b50905050600180548061120c5761120b61311d565b5b6001900381819060005260206000209060060201600080820160006112319190611da5565b60018201600090556002820160006101000a81549060ff02191690556002820160016101000a81549060ff02191690556003820160006112719190611de5565b6004820160006101000a81549060ff02191690556004820160016101000a81549073ffffffffffffffffffffffffffffffffffffffff02191690556005820160006112bc9190611e0d565b5050905580806112cb9061314c565b915050610e54565b5050565b670de0b6b3a7640000341015611322576040517f08c379a000000000000000000000000000000000000000000000000000000000815260040161131990612e21565b60405180910390fd5b6000841180156113325750600083115b611371576040517f08c379a000000000000000000000000000000000000000000000000000000000815260040161136890613207565b60405180910390fd5b600360405180610100016040528060038054905081526020018881526020018781526020018681526020018581526020018381526020013373ffffffffffffffffffffffffffffffffffffffff168152602001600067ffffffffffffffff8111156113df576113de6123dd565b5b60405190808252806020026020018201604052801561140d5781602001602082028036833780820191505090505b508152509080600181540180825580915050600190039060005260206000209060080201600090919091909150600082015181600001556020820151816001019080519060200190611460929190611aaf565b50604082015181600201908051906020019061147d929190611aaf565b50606082015181600301556080820151816004015560a08201518160050190805190602001906114ae929190611e2e565b5060c08201518160060160006101000a81548173ffffffffffffffffffffffffffffffffffffffff021916908373ffffffffffffffffffffffffffffffffffffffff16021790555060e0820151816007019080519060200190611512929190611e8e565b5050506003600160038054905061152991906130e9565b8154811061153a57611539612d95565b5b9060005260206000209060080201600701829080600181540180825580915050600190039060005260206000200160009091909190915055505050505050565b60606001805480602002602001604051908101604052809291908181526020016000905b828210156118245783829060005260206000209060060201604051806101000160405290816000820180546115d290612d63565b80601f01602080910402602001604051908101604052809291908181526020018280546115fe90612d63565b801561164b5780601f106116205761010080835404028352916020019161164b565b820191906000526020600020905b81548152906001019060200180831161162e57829003601f168201915b50505050508152602001600182015481526020016002820160009054906101000a900460ff1660ff1660ff1681526020016002820160019054906101000a900460ff1660ff1660ff1681526020016003820180548060200260200160405190810160405280929190818152602001828054801561170d57602002820191906000526020600020906000905b82829054906101000a900460ff1660ff16815260200190600101906020826000010492830192600103820291508084116116d65790505b505050505081526020016004820160009054906101000a900460ff161515151581526020016004820160019054906101000a900473ffffffffffffffffffffffffffffffffffffffff1673ffffffffffffffffffffffffffffffffffffffff1673ffffffffffffffffffffffffffffffffffffffff1681526020016005820180548060200260200160405190810160405280929190818152602001828054801561180c57602002820191906000526020600020905b8160009054906101000a900473ffffffffffffffffffffffffffffffffffffffff1673ffffffffffffffffffffffffffffffffffffffff16815260200190600101908083116117c2575b5050505050815250508152602001906001019061159e565b50505050905090565b600080600090505b6001838154811061184957611848612d95565b5b906000526020600020906006020160050180549050811015611917578373ffffffffffffffffffffffffffffffffffffffff16600184815481106118905761188f612d95565b5b906000526020600020906006020160050182815481106118b3576118b2612d95565b5b9060005260206000200160009054906101000a900473ffffffffffffffffffffffffffffffffffffffff1673ffffffffffffffffffffffffffffffffffffffff16141561190457600091505061191d565b808061190f9061314c565b915050611835565b50600190505b92915050565b6001818154811061193757611936612d95565b5b906000526020600020906006020160040160019054906101000a900473ffffffffffffffffffffffffffffffffffffffff1673ffffffffffffffffffffffffffffffffffffffff166108fc662386f26fc100009081150290604051600060405180830381858888f193505050501580156119b5573d6000803e3d6000fd5b5060005b600182815481106119cd576119cc612d95565b5b906000526020600020906006020160050180549050811015611aab57600182815481106119fd576119fc612d95565b5b90600052602060002090600602016005018181548110611a2057611a1f612d95565b5b9060005260206000200160009054906101000a900473ffffffffffffffffffffffffffffffffffffffff1673ffffffffffffffffffffffffffffffffffffffff166108fc662386f26fc100009081150290604051600060405180830381858888f19350505050158015611a97573d6000803e3d6000fd5b508080611aa39061314c565b9150506119b9565b5050565b828054611abb90612d63565b90600052602060002090601f016020900481019282611add5760008555611b24565b82601f10611af657805160ff1916838001178555611b24565b82800160010185558215611b24579182015b82811115611b23578251825591602001919060010190611b08565b5b509050611b319190611edb565b5090565b82805482825590600052602060002090601f01602090048101928215611bcb5791602002820160005b83821115611b9c57835183826101000a81548160ff021916908360ff1602179055509260200192600101602081600001049283019260010302611b5e565b8015611bc95782816101000a81549060ff0219169055600101602081600001049283019260010302611b9c565b505b509050611bd89190611edb565b5090565b828054828255906000526020600020908101928215611c55579160200282015b82811115611c545782518260006101000a81548173ffffffffffffffffffffffffffffffffffffffff021916908373ffffffffffffffffffffffffffffffffffffffff16021790555091602001919060010190611bfc565b5b509050611c629190611edb565b5090565b828054611c7290612d63565b90600052602060002090601f016020900481019282611c945760008555611ce2565b82601f10611ca55780548555611ce2565b82800160010185558215611ce257600052602060002091601f016020900482015b82811115611ce1578254825591600101919060010190611cc6565b5b509050611cef9190611edb565b5090565b82805482825590600052602060002090601f01602090048101928215611d4257600052602060002091601f016020900482015b82811115611d41578254825591600101919060010190611d26565b5b509050611d4f9190611edb565b5090565b828054828255906000526020600020908101928215611d945760005260206000209182015b82811115611d93578254825591600101919060010190611d78565b5b509050611da19190611edb565b5090565b508054611db190612d63565b6000825580601f10611dc35750611de2565b601f016020900490600052602060002090810190611de19190611edb565b5b50565b50805460008255601f016020900490600052602060002090810190611e0a9190611edb565b50565b5080546000825590600052602060002090810190611e2b9190611edb565b50565b828054828255906000526020600020908101928215611e7d579160200282015b82811115611e7c578251829080519060200190611e6c929190611aaf565b5091602001919060010190611e4e565b5b509050611e8a9190611ef8565b5090565b828054828255906000526020600020908101928215611eca579160200282015b82811115611ec9578251825591602001919060010190611eae565b5b509050611ed79190611edb565b5090565b5b80821115611ef4576000816000905550600101611edc565b5090565b5b80821115611f185760008181611f0f9190611da5565b50600101611ef9565b5090565b600081519050919050565b600082825260208201905092915050565b6000819050602082019050919050565b6000819050919050565b611f5b81611f48565b82525050565b600081519050919050565b600082825260208201905092915050565b60005b83811015611f9b578082015181840152602081019050611f80565b83811115611faa576000848401525b50505050565b6000601f19601f8301169050919050565b6000611fcc82611f61565b611fd68185611f6c565b9350611fe6818560208601611f7d565b611fef81611fb0565b840191505092915050565b600081519050919050565b600082825260208201905092915050565b6000819050602082019050919050565b60006120328383611fc1565b905092915050565b6000602082019050919050565b600061205282611ffa565b61205c8185612005565b93508360208202850161206e85612016565b8060005b858110156120aa578484038952815161208b8582612026565b94506120968361203a565b925060208a01995050600181019050612072565b50829750879550505050505092915050565b600073ffffffffffffffffffffffffffffffffffffffff82169050919050565b60006120e7826120bc565b9050919050565b6120f7816120dc565b82525050565b600081519050919050565b600082825260208201905092915050565b6000819050602082019050919050565b60006121358383611f52565b60208301905092915050565b6000602082019050919050565b6000612159826120fd565b6121638185612108565b935061216e83612119565b8060005b8381101561219f5781516121868882612129565b975061219183612141565b925050600181019050612172565b5085935050505092915050565b6000610100830160008301516121c56000860182611f52565b50602083015184820360208601526121dd8282611fc1565b915050604083015184820360408601526121f78282611fc1565b915050606083015161220c6060860182611f52565b50608083015161221f6080860182611f52565b5060a083015184820360a08601526122378282612047565b91505060c083015161224c60c08601826120ee565b5060e083015184820360e0860152612264828261214e565b9150508091505092915050565b600061227d83836121ac565b905092915050565b6000602082019050919050565b600061229d82611f1c565b6122a78185611f27565b9350836020820285016122b985611f38565b8060005b858110156122f557848403895281516122d68582612271565b94506122e183612285565b925060208a019950506001810190506122bd565b50829750879550505050505092915050565b600060208201905081810360008301526123218184612292565b905092915050565b612332816120dc565b82525050565b600060208201905061234d6000830184612329565b92915050565b6000604051905090565b600080fd5b600080fd5b61237081611f48565b811461237b57600080fd5b50565b60008135905061238d81612367565b92915050565b600080604083850312156123aa576123a961235d565b5b60006123b88582860161237e565b92505060206123c98582860161237e565b9150509250929050565b600080fd5b600080fd5b7f4e487b7100000000000000000000000000000000000000000000000000000000600052604160045260246000fd5b61241582611fb0565b810181811067ffffffffffffffff82111715612434576124336123dd565b5b80604052505050565b6000612447612353565b9050612453828261240c565b919050565b600067ffffffffffffffff821115612473576124726123dd565b5b61247c82611fb0565b9050602081019050919050565b82818337600083830152505050565b60006124ab6124a684612458565b61243d565b9050828152602081018484840111156124c7576124c66123d8565b5b6124d2848285612489565b509392505050565b600082601f8301126124ef576124ee6123d3565b5b81356124ff848260208601612498565b91505092915050565b600060ff82169050919050565b61251e81612508565b811461252957600080fd5b50565b60008135905061253b81612515565b92915050565b60008060006060848603121561255a5761255961235d565b5b600084013567ffffffffffffffff81111561257857612577612362565b5b612584868287016124da565b93505060206125958682870161252c565b92505060406125a68682870161237e565b9150509250925092565b6000806000606084860312156125c9576125c861235d565b5b60006125d78682870161237e565b93505060206125e88682870161252c565b92505060406125f98682870161237e565b9150509250925092565b600081519050919050565b600082825260208201905092915050565b6000819050602082019050919050565b61263881612508565b82525050565b6000606083016000830151848203600086015261265b8282611fc1565b91505060208301516126706020860182611f52565b506040830151612683604086018261262f565b508091505092915050565b600061269a838361263e565b905092915050565b6000602082019050919050565b60006126ba82612603565b6126c4818561260e565b9350836020820285016126d68561261f565b8060005b8581101561271257848403895281516126f3858261268e565b94506126fe836126a2565b925060208a019950506001810190506126da565b50829750879550505050505092915050565b6000602082019050818103600083015261273e81846126af565b905092915050565b600067ffffffffffffffff821115612761576127606123dd565b5b602082029050602081019050919050565b600080fd5b600061278a61278584612746565b61243d565b905080838252602082019050602084028301858111156127ad576127ac612772565b5b835b818110156127d657806127c2888261237e565b8452602084019350506020810190506127af565b5050509392505050565b600082601f8301126127f5576127f46123d3565b5b8135612805848260208601612777565b91505092915050565b6000602082840312156128245761282361235d565b5b600082013567ffffffffffffffff81111561284257612841612362565b5b61284e848285016127e0565b91505092915050565b600067ffffffffffffffff821115612872576128716123dd565b5b602082029050602081019050919050565b600061289661289184612857565b61243d565b905080838252602082019050602084028301858111156128b9576128b8612772565b5b835b8181101561290057803567ffffffffffffffff8111156128de576128dd6123d3565b5b8086016128eb89826124da565b855260208501945050506020810190506128bb565b5050509392505050565b600082601f83011261291f5761291e6123d3565b5b813561292f848260208601612883565b91505092915050565b60008060008060008060c087890312156129555761295461235d565b5b600087013567ffffffffffffffff81111561297357612972612362565b5b61297f89828a016124da565b965050602087013567ffffffffffffffff8111156129a05761299f612362565b5b6129ac89828a016124da565b95505060406129bd89828a0161237e565b94505060606129ce89828a0161237e565b93505060806129df89828a0161237e565b92505060a087013567ffffffffffffffff811115612a00576129ff612362565b5b612a0c89828a0161290a565b9150509295509295509295565b600081519050919050565b600082825260208201905092915050565b6000819050602082019050919050565b600081519050919050565b600082825260208201905092915050565b6000819050602082019050919050565b6000612a7d838361262f565b60208301905092915050565b6000602082019050919050565b6000612aa182612a45565b612aab8185612a50565b9350612ab683612a61565b8060005b83811015612ae7578151612ace8882612a71565b9750612ad983612a89565b925050600181019050612aba565b5085935050505092915050565b60008115159050919050565b612b0981612af4565b82525050565b600081519050919050565b600082825260208201905092915050565b6000819050602082019050919050565b6000612b4783836120ee565b60208301905092915050565b6000602082019050919050565b6000612b6b82612b0f565b612b758185612b1a565b9350612b8083612b2b565b8060005b83811015612bb1578151612b988882612b3b565b9750612ba383612b53565b925050600181019050612b84565b5085935050505092915050565b6000610100830160008301518482036000860152612bdc8282611fc1565b9150506020830151612bf16020860182611f52565b506040830151612c04604086018261262f565b506060830151612c17606086018261262f565b5060808301518482036080860152612c2f8282612a96565b91505060a0830151612c4460a0860182612b00565b5060c0830151612c5760c08601826120ee565b5060e083015184820360e0860152612c6f8282612b60565b9150508091505092915050565b6000612c888383612bbe565b905092915050565b6000602082019050919050565b6000612ca882612a19565b612cb28185612a24565b935083602082028501612cc485612a35565b8060005b85811015612d005784840389528151612ce18582612c7c565b9450612cec83612c90565b925060208a01995050600181019050612cc8565b50829750879550505050505092915050565b60006020820190508181036000830152612d2c8184612c9d565b905092915050565b7f4e487b7100000000000000000000000000000000000000000000000000000000600052602260045260246000fd5b60006002820490506001821680612d7b57607f821691505b60208210811415612d8f57612d8e612d34565b5b50919050565b7f4e487b7100000000000000000000000000000000000000000000000000000000600052603260045260246000fd5b600082825260208201905092915050565b7f4e6f7420656e6f75676820657468000000000000000000000000000000000000600082015250565b6000612e0b600e83612dc4565b9150612e1682612dd5565b602082019050919050565b60006020820190508181036000830152612e3a81612dfe565b9050919050565b7f496e76616c6964206c6162656c00000000000000000000000000000000000000600082015250565b6000612e77600d83612dc4565b9150612e8282612e41565b602082019050919050565b60006020820190508181036000830152612ea681612e6a565b9050919050565b7f43616e6e6f742072657669657720612076657269666965642063617074696f6e600082015250565b6000612ee3602083612dc4565b9150612eee82612ead565b602082019050919050565b60006020820190508181036000830152612f1281612ed6565b9050919050565b7f43616e6e6f742072657669657720796f7572206f776e2063617074696f6e0000600082015250565b6000612f4f601e83612dc4565b9150612f5a82612f19565b602082019050919050565b60006020820190508181036000830152612f7e81612f42565b9050919050565b7f496e76616c69642063617074696f6e2069647800000000000000000000000000600082015250565b6000612fbb601383612dc4565b9150612fc682612f85565b602082019050919050565b60006020820190508181036000830152612fea81612fae565b9050919050565b7f4f6e6c79206f6e6520766f746520706572206163636f756e7420666f7220657660008201527f6572792063617074696f6e000000000000000000000000000000000000000000602082015250565b600061304d602b83612dc4565b915061305882612ff1565b604082019050919050565b6000602082019050818103600083015261307c81613040565b9050919050565b7f4e487b7100000000000000000000000000000000000000000000000000000000600052601160045260246000fd5b60006130bd82612508565b91506130c883612508565b92508260ff038211156130de576130dd613083565b5b828201905092915050565b60006130f482611f48565b91506130ff83611f48565b92508282101561311257613111613083565b5b828203905092915050565b7f4e487b7100000000000000000000000000000000000000000000000000000000600052603160045260246000fd5b600061315782611f48565b91507fffffffffffffffffffffffffffffffffffffffffffffffffffffffffffffffff82141561318a57613189613083565b5b600182019050919050565b7f496e76616c6964204e756d626572206f6620566f746573206f7220436170746960008201527f6f6e730000000000000000000000000000000000000000000000000000000000602082015250565b60006131f1602383612dc4565b91506131fc82613195565b604082019050919050565b60006020820190508181036000830152613220816131e4565b905091905056fea2646970667358221220055bbdc9e20cc38b8aae0c9640367c41fea765c07dc9d4151b204a0713c7ecde64736f6c634300080c0033",
  "immutableReferences": {},
  "source": "// SPDX-License-Identifier: MIT\r\npragma solidity >=0.4.22 <0.9.0;\r\n\r\ncontract CaptionReview {\r\n    address public chairperson;\r\n    uint constant modelCost = 1e18;\r\n    uint constant captionCost = 1e15;\r\n    uint constant reviewCost = 1e15;\r\n    uint constant captionRefund = 1e16;\r\n    uint constant reviewRefund = 1e16;\r\n\r\n    struct Caption{\r\n        string content;\r\n        uint256 modelId;\r\n        uint8 proposedLabel;\r\n        uint8 verifiedLabel;\r\n        uint8[] Votes;\r\n        bool verified;\r\n        address providerAddr;\r\n        address[] voters;\r\n    }\r\n\r\n    struct UsedCaption{\r\n        string content;\r\n        uint256 modelId;\r\n        uint8 verifiedLabel;\r\n    }\r\n\r\n    struct ModelInfo{\r\n        uint256 id;\r\n        string name;\r\n        string description;\r\n        uint256 NumberOfVotes;\r\n        uint256 NumberOfCaptions;\r\n        string[] labels;\r\n        address modelProviderAddr;\r\n        uint256[] accuracy;\r\n    }\r\n\r\n    Caption[] captions;\r\n\r\n    UsedCaption[] usedCaptions;\r\n\r\n    ModelInfo[] models;\r\n\r\n    constructor(){\r\n        chairperson = msg.sender;\r\n    }\r\n\r\n    function addModel(string memory _name, string memory _description, uint _NumOfVotes, uint _NumOfCaptions, uint _initialAcc, string[] memory labels) external payable{\r\n        require(msg.value >= modelCost,\"Not enough eth\");\r\n        require(_NumOfVotes > 0 && _NumOfCaptions > 0,\"Invalid Number of Votes or Captions\");\r\n        models.push(ModelInfo(models.length, _name, _description, _NumOfVotes, _NumOfCaptions, labels, msg.sender, new uint[](0)));\r\n        models[(models.length)-1].accuracy.push(_initialAcc);\r\n    }\r\n\r\n    function addCaption(string memory _caption, uint8 _lbl, uint _modelId) external payable{\r\n        require(msg.value >= captionCost,\"Not enough eth\");\r\n        require(_lbl >= 0 && _lbl < models[_modelId].labels.length,\"Invalid label\");\r\n        captions.push(Caption(_caption, _modelId, _lbl, _lbl, new uint8[](models[_modelId].labels.length), false, msg.sender, new address[](0)));\r\n    }\r\n\r\n    function notVoted(address _voter, uint _idx) private view returns (bool) {\r\n        for (uint i = 0; i < captions[_idx].voters.length; i++) {\r\n            if (captions[_idx].voters[i] == _voter) {\r\n                return false;\r\n            }\r\n        }\r\n        return true;\r\n    }\r\n\r\n    function refunding(uint _captionId) private {\r\n        payable(captions[_captionId].providerAddr).transfer(captionRefund);\r\n        for (uint i = 0; i < captions[_captionId].voters.length; i++){\r\n            payable(captions[_captionId].voters[i]).transfer(reviewRefund);\r\n        }\r\n    }\r\n\r\n    function reviewCaption(uint _idx, uint8 _lbl, uint _modelId) external payable{\r\n        require(msg.value >= reviewCost,\"Not enough eth\");\r\n        require(captions[_idx].verified == false, \"Cannot review a verified caption\");\r\n        require(msg.sender != captions[_idx].providerAddr, \"Cannot review your own caption\");\r\n        require(_idx < captions.length && _idx >= 0,\"Invalid caption idx\");\r\n        require(_lbl >= 0 && _lbl < models[_modelId].labels.length,\"Invalid label\");\r\n        require(notVoted(msg.sender,_idx),\"Only one vote per account for every caption\");\r\n        captions[_idx].Votes[_lbl] += 1;\r\n        captions[_idx].voters.push(msg.sender);\r\n        if(captions[_idx].Votes[_lbl] == models[_modelId].NumberOfVotes){\r\n            captions[_idx].verified = true;\r\n            captions[_idx].verifiedLabel = _lbl;\r\n            refunding(_idx);\r\n        }\r\n    }\r\n\r\n    function getModels() public view returns( ModelInfo  [] memory){\r\n        return models;\r\n    }\r\n\r\n    function getCaptions() public view returns( Caption  [] memory){\r\n        return captions;\r\n    }\r\n\r\n    function getUsedCaptions() public view returns( UsedCaption  [] memory){\r\n        return usedCaptions;\r\n    }\r\n\r\n    function addAccuracy(uint _idx, uint _acc) public{\r\n        models[_idx].accuracy.push(_acc);\r\n    }\r\n\r\n    function updateCaptionTrainStatus(uint[] memory _inputUsedCaptions) public {\r\n        for(uint i = 0; i < _inputUsedCaptions.length ; i++){\r\n            usedCaptions.push(UsedCaption(captions[_inputUsedCaptions[i]].content,captions[_inputUsedCaptions[i]].modelId,captions[_inputUsedCaptions[i]].verifiedLabel));\r\n            captions[_inputUsedCaptions[i]] = captions[captions.length - 1];\r\n            captions.pop();\r\n        }\r\n    }\r\n\r\n}",
  "sourcePath": "C:\\Users\\Admin\\Documents\\2021-2022\\10 \\\\blockchain-ml\\contracts\\contracts\\CaptionReview.sol",
  "compiler": {
    "name": "solc",
    "version": "0.8.12+commit.f00d7308.Emscripten.clang"
  },
  "schemaVersion": "3.4.4",
  "updatedAt": "2022-06-26T10:21:34.274Z",
  "networkType": "ethereum",
  "devdoc": {
    "kind": "dev",
    "methods": {},
    "version": 1
  },
  "userdoc": {
    "kind": "user",
    "methods": {},
    "version": 1
  }
}