{
  "contractName": "CaptionReview",
  "abi": [
    {
      "inputs": [],
      "stateMutability": "nonpayable",
      "type": "constructor"
    },
    {
      "inputs": [],
      "name": "chairperson",
      "outputs": [
        {
          "internalType": "address",
          "name": "",
          "type": "address"
        }
      ],
      "stateMutability": "view",
      "type": "function",
      "constant": true
    },
    {
      "inputs": [
        {
          "internalType": "string",
          "name": "_description",
          "type": "string"
        },
        {
          "internalType": "uint256",
          "name": "_NumOfVotes",
          "type": "uint256"
        },
        {
          "internalType": "uint256",
          "name": "_NumOfCaptions",
          "type": "uint256"
        },
        {
          "internalType": "string[]",
          "name": "labels",
          "type": "string[]"
        }
      ],
      "name": "addModel",
      "outputs": [],
      "stateMutability": "payable",
      "type": "function",
      "payable": true
    },
    {
      "inputs": [
        {
          "internalType": "string",
          "name": "_caption",
          "type": "string"
        },
        {
          "internalType": "uint8",
          "name": "_lbl",
          "type": "uint8"
        },
        {
          "internalType": "uint256",
          "name": "_modelId",
          "type": "uint256"
        }
      ],
      "name": "addCaption",
      "outputs": [],
      "stateMutability": "payable",
      "type": "function",
      "payable": true
    },
    {
      "inputs": [
        {
          "internalType": "uint256",
          "name": "_idx",
          "type": "uint256"
        },
        {
          "internalType": "uint8",
          "name": "_lbl",
          "type": "uint8"
        },
        {
          "internalType": "uint256",
          "name": "_modelId",
          "type": "uint256"
        }
      ],
      "name": "reviewCaption",
      "outputs": [],
      "stateMutability": "payable",
      "type": "function",
      "payable": true
    },
    {
      "inputs": [],
      "name": "getModels",
      "outputs": [
        {
          "components": [
            {
              "internalType": "uint256",
              "name": "id",
              "type": "uint256"
            },
            {
              "internalType": "string",
              "name": "description",
              "type": "string"
            },
            {
              "internalType": "uint256",
              "name": "NumberOfVotes",
              "type": "uint256"
            },
            {
              "internalType": "uint256",
              "name": "NumberOfCaptions",
              "type": "uint256"
            },
            {
              "internalType": "string[]",
              "name": "labels",
              "type": "string[]"
            }
          ],
          "internalType": "struct CaptionReview.ModelInfo[]",
          "name": "",
          "type": "tuple[]"
        }
      ],
      "stateMutability": "view",
      "type": "function",
      "constant": true
    },
    {
      "inputs": [
        {
          "internalType": "uint256",
          "name": "_idx",
          "type": "uint256"
        }
      ],
      "name": "getModel",
      "outputs": [
        {
          "components": [
            {
              "internalType": "uint256",
              "name": "id",
              "type": "uint256"
            },
            {
              "internalType": "string",
              "name": "description",
              "type": "string"
            },
            {
              "internalType": "uint256",
              "name": "NumberOfVotes",
              "type": "uint256"
            },
            {
              "internalType": "uint256",
              "name": "NumberOfCaptions",
              "type": "uint256"
            },
            {
              "internalType": "string[]",
              "name": "labels",
              "type": "string[]"
            }
          ],
          "internalType": "struct CaptionReview.ModelInfo",
          "name": "",
          "type": "tuple"
        }
      ],
      "stateMutability": "view",
      "type": "function",
      "constant": true
    },
    {
      "inputs": [],
      "name": "getCaptions",
      "outputs": [
        {
          "components": [
            {
              "internalType": "string",
              "name": "content",
              "type": "string"
            },
            {
              "internalType": "uint256",
              "name": "modelId",
              "type": "uint256"
            },
            {
              "internalType": "uint8",
              "name": "proposedLabel",
              "type": "uint8"
            },
            {
              "internalType": "uint8",
              "name": "verifiedLabel",
              "type": "uint8"
            },
            {
              "internalType": "uint8[]",
              "name": "Votes",
              "type": "uint8[]"
            },
            {
              "internalType": "bool",
              "name": "verified",
              "type": "bool"
            },
            {
              "internalType": "address",
              "name": "providerAddr",
              "type": "address"
            },
            {
              "internalType": "address[]",
              "name": "voters",
              "type": "address[]"
            }
          ],
          "internalType": "struct CaptionReview.Caption[]",
          "name": "",
          "type": "tuple[]"
        }
      ],
      "stateMutability": "view",
      "type": "function",
      "constant": true
    },
    {
      "inputs": [
        {
          "internalType": "uint256",
          "name": "_idx",
          "type": "uint256"
        }
      ],
      "name": "getCaption",
      "outputs": [
        {
          "components": [
            {
              "internalType": "string",
              "name": "content",
              "type": "string"
            },
            {
              "internalType": "uint256",
              "name": "modelId",
              "type": "uint256"
            },
            {
              "internalType": "uint8",
              "name": "proposedLabel",
              "type": "uint8"
            },
            {
              "internalType": "uint8",
              "name": "verifiedLabel",
              "type": "uint8"
            },
            {
              "internalType": "uint8[]",
              "name": "Votes",
              "type": "uint8[]"
            },
            {
              "internalType": "bool",
              "name": "verified",
              "type": "bool"
            },
            {
              "internalType": "address",
              "name": "providerAddr",
              "type": "address"
            },
            {
              "internalType": "address[]",
              "name": "voters",
              "type": "address[]"
            }
          ],
          "internalType": "struct CaptionReview.Caption",
          "name": "",
          "type": "tuple"
        }
      ],
      "stateMutability": "view",
      "type": "function",
      "constant": true
    },
    {
      "inputs": [],
      "name": "getCaptionCnt",
      "outputs": [
        {
          "internalType": "uint256",
          "name": "",
          "type": "uint256"
        }
      ],
      "stateMutability": "view",
      "type": "function",
      "constant": true
    }
  ],
  "bytecode": "0x6080604052600060015534801561001557600080fd5b50336000806101000a81548173ffffffffffffffffffffffffffffffffffffffff021916908373ffffffffffffffffffffffffffffffffffffffff160217905550612ac4806100656000396000f3fe6080604052600436106100865760003560e01c806370d9a8e71161005957806370d9a8e71461015b578063948b831d14610177578063b441682614610193578063cbeefb8c146101be578063eef9cd3a146101da57610086565b80630257e2491461008b57806309817d45146100c85780632e4176cf146100f35780636d3616941461011e575b600080fd5b34801561009757600080fd5b506100b260048036038101906100ad9190611951565b610205565b6040516100bf9190611cba565b60405180910390f35b3480156100d457600080fd5b506100dd6104e6565b6040516100ea9190611edd565b60405180910390f35b3480156100ff57600080fd5b506101086106ce565b6040516101159190611f0e565b60405180910390f35b34801561012a57600080fd5b5061014560048036038101906101409190611951565b6106f2565b6040516101529190611fa6565b60405180910390f35b610175600480360381019061017091906121e3565b61090b565b005b610191600480360381019061018c91906122ae565b610a5c565b005b34801561019f57600080fd5b506101a8610d8a565b6040516101b5919061232c565b60405180910390f35b6101d860048036038101906101d39190612347565b610d94565b005b3480156101e657600080fd5b506101ef611234565b6040516101fc919061251a565b60405180910390f35b61020d6115dd565b6001548210801561021f575060008210155b61025e576040517f08c379a000000000000000000000000000000000000000000000000000000000815260040161025590612599565b60405180910390fd5b60028281548110610272576102716125b9565b5b90600052602060002090600602016040518061010001604052908160008201805461029c90612617565b80601f01602080910402602001604051908101604052809291908181526020018280546102c890612617565b80156103155780601f106102ea57610100808354040283529160200191610315565b820191906000526020600020905b8154815290600101906020018083116102f857829003601f168201915b50505050508152602001600182015481526020016002820160009054906101000a900460ff1660ff1660ff1681526020016002820160019054906101000a900460ff1660ff1660ff168152602001600382018054806020026020016040519081016040528092919081815260200182805480156103d757602002820191906000526020600020906000905b82829054906101000a900460ff1660ff16815260200190600101906020826000010492830192600103820291508084116103a05790505b505050505081526020016004820160009054906101000a900460ff161515151581526020016004820160019054906101000a900473ffffffffffffffffffffffffffffffffffffffff1673ffffffffffffffffffffffffffffffffffffffff1673ffffffffffffffffffffffffffffffffffffffff168152602001600582018054806020026020016040519081016040528092919081815260200182805480156104d657602002820191906000526020600020905b8160009054906101000a900473ffffffffffffffffffffffffffffffffffffffff1673ffffffffffffffffffffffffffffffffffffffff168152602001906001019080831161048c575b5050505050815250509050919050565b60606003805480602002602001604051908101604052809291908181526020016000905b828210156106c557838290600052602060002090600502016040518060a00160405290816000820154815260200160018201805461054790612617565b80601f016020809104026020016040519081016040528092919081815260200182805461057390612617565b80156105c05780601f10610595576101008083540402835291602001916105c0565b820191906000526020600020905b8154815290600101906020018083116105a357829003601f168201915b50505050508152602001600282015481526020016003820154815260200160048201805480602002602001604051908101604052809291908181526020016000905b828210156106ae57838290600052602060002001805461062190612617565b80601f016020809104026020016040519081016040528092919081815260200182805461064d90612617565b801561069a5780601f1061066f5761010080835404028352916020019161069a565b820191906000526020600020905b81548152906001019060200180831161067d57829003601f168201915b505050505081526020019060010190610602565b50505050815250508152602001906001019061050a565b50505050905090565b60008054906101000a900473ffffffffffffffffffffffffffffffffffffffff1681565b6106fa611640565b6003805490508210801561070f575060008210155b61074e576040517f08c379a000000000000000000000000000000000000000000000000000000000815260040161074590612695565b60405180910390fd5b60038281548110610762576107616125b9565b5b90600052602060002090600502016040518060a00160405290816000820154815260200160018201805461079590612617565b80601f01602080910402602001604051908101604052809291908181526020018280546107c190612617565b801561080e5780601f106107e35761010080835404028352916020019161080e565b820191906000526020600020905b8154815290600101906020018083116107f157829003601f168201915b50505050508152602001600282015481526020016003820154815260200160048201805480602002602001604051908101604052809291908181526020016000905b828210156108fc57838290600052602060002001805461086f90612617565b80601f016020809104026020016040519081016040528092919081815260200182805461089b90612617565b80156108e85780601f106108bd576101008083540402835291602001916108e8565b820191906000526020600020905b8154815290600101906020018083116108cb57829003601f168201915b505050505081526020019060010190610850565b50505050815250509050919050565b670de0b6b3a7640000341015610956576040517f08c379a000000000000000000000000000000000000000000000000000000000815260040161094d90612701565b60405180910390fd5b6000831180156109665750600082115b6109a5576040517f08c379a000000000000000000000000000000000000000000000000000000000815260040161099c90612793565b60405180910390fd5b60036040518060a001604052806003805490508152602001868152602001858152602001848152602001838152509080600181540180825580915050600190039060005260206000209060050201600090919091909150600082015181600001556020820151816001019080519060200190610a2292919061166f565b5060408201518160020155606082015181600301556080820151816004019080519060200190610a539291906116f5565b50505050505050565b662386f26fc10000341015610aa6576040517f08c379a0000000000000000000000000000000000000000000000000000000008152600401610a9d90612701565b60405180910390fd5b60008260ff1610158015610ae4575060038181548110610ac957610ac86125b9565b5b9060005260206000209060050201600401805490508260ff16105b610b23576040517f08c379a0000000000000000000000000000000000000000000000000000000008152600401610b1a906127ff565b60405180910390fd5b60026040518061010001604052808581526020018381526020018460ff1681526020018460ff16815260200160038481548110610b6357610b626125b9565b5b90600052602060002090600502016004018054905067ffffffffffffffff811115610b9157610b90611fd2565b5b604051908082528060200260200182016040528015610bbf5781602001602082028036833780820191505090505b5081526020016000151581526020013373ffffffffffffffffffffffffffffffffffffffff168152602001600067ffffffffffffffff811115610c0557610c04611fd2565b5b604051908082528060200260200182016040528015610c335781602001602082028036833780820191505090505b5081525090806001815401808255809150506001900390600052602060002090600602016000909190919091506000820151816000019080519060200190610c7c92919061166f565b506020820151816001015560408201518160020160006101000a81548160ff021916908360ff16021790555060608201518160020160016101000a81548160ff021916908360ff1602179055506080820151816003019080519060200190610ce5929190611755565b5060a08201518160040160006101000a81548160ff02191690831515021790555060c08201518160040160016101000a81548173ffffffffffffffffffffffffffffffffffffffff021916908373ffffffffffffffffffffffffffffffffffffffff16021790555060e0820151816005019080519060200190610d699291906117fc565b5050506001806000828254610d7e919061284e565b92505081905550505050565b6000600154905090565b66038d7ea4c68000341015610dde576040517f08c379a0000000000000000000000000000000000000000000000000000000008152600401610dd590612701565b60405180910390fd5b6000151560028481548110610df657610df56125b9565b5b906000526020600020906006020160040160009054906101000a900460ff16151514610e57576040517f08c379a0000000000000000000000000000000000000000000000000000000008152600401610e4e906128f0565b60405180910390fd5b60028381548110610e6b57610e6a6125b9565b5b906000526020600020906006020160040160019054906101000a900473ffffffffffffffffffffffffffffffffffffffff1673ffffffffffffffffffffffffffffffffffffffff163373ffffffffffffffffffffffffffffffffffffffff161415610f0b576040517f08c379a0000000000000000000000000000000000000000000000000000000008152600401610f029061295c565b60405180910390fd5b60015483108015610f1d575060008310155b610f5c576040517f08c379a0000000000000000000000000000000000000000000000000000000008152600401610f5390612599565b60405180910390fd5b60008260ff1610158015610f9a575060038181548110610f7f57610f7e6125b9565b5b9060005260206000209060050201600401805490508260ff16105b610fd9576040517f08c379a0000000000000000000000000000000000000000000000000000000008152600401610fd0906127ff565b60405180910390fd5b610fe333846114e7565b611022576040517f08c379a0000000000000000000000000000000000000000000000000000000008152600401611019906129ee565b60405180910390fd5b600160028481548110611038576110376125b9565b5b90600052602060002090600602016003018360ff168154811061105e5761105d6125b9565b5b90600052602060002090602091828204019190068282829054906101000a900460ff1661108b9190612a0e565b92506101000a81548160ff021916908360ff160217905550600283815481106110b7576110b66125b9565b5b9060005260206000209060060201600501339080600181540180825580915050600190039060005260206000200160009091909190916101000a81548173ffffffffffffffffffffffffffffffffffffffff021916908373ffffffffffffffffffffffffffffffffffffffff1602179055506003818154811061113d5761113c6125b9565b5b90600052602060002090600502016002015460028481548110611163576111626125b9565b5b90600052602060002090600602016003018360ff1681548110611189576111886125b9565b5b90600052602060002090602091828204019190069054906101000a900460ff1660ff16141561122f576001600284815481106111c8576111c76125b9565b5b906000526020600020906006020160040160006101000a81548160ff0219169083151502179055508160028481548110611205576112046125b9565b5b906000526020600020906006020160020160016101000a81548160ff021916908360ff1602179055505b505050565b60606002805480602002602001604051908101604052809291908181526020016000905b828210156114de57838290600052602060002090600602016040518061010001604052908160008201805461128c90612617565b80601f01602080910402602001604051908101604052809291908181526020018280546112b890612617565b80156113055780601f106112da57610100808354040283529160200191611305565b820191906000526020600020905b8154815290600101906020018083116112e857829003601f168201915b50505050508152602001600182015481526020016002820160009054906101000a900460ff1660ff1660ff1681526020016002820160019054906101000a900460ff1660ff1660ff168152602001600382018054806020026020016040519081016040528092919081815260200182805480156113c757602002820191906000526020600020906000905b82829054906101000a900460ff1660ff16815260200190600101906020826000010492830192600103820291508084116113905790505b505050505081526020016004820160009054906101000a900460ff161515151581526020016004820160019054906101000a900473ffffffffffffffffffffffffffffffffffffffff1673ffffffffffffffffffffffffffffffffffffffff1673ffffffffffffffffffffffffffffffffffffffff168152602001600582018054806020026020016040519081016040528092919081815260200182805480156114c657602002820191906000526020600020905b8160009054906101000a900473ffffffffffffffffffffffffffffffffffffffff1673ffffffffffffffffffffffffffffffffffffffff168152602001906001019080831161147c575b50505050508152505081526020019060010190611258565b50505050905090565b600080600090505b60028381548110611503576115026125b9565b5b9060005260206000209060060201600501805490508110156115d1578373ffffffffffffffffffffffffffffffffffffffff166002848154811061154a576115496125b9565b5b9060005260206000209060060201600501828154811061156d5761156c6125b9565b5b9060005260206000200160009054906101000a900473ffffffffffffffffffffffffffffffffffffffff1673ffffffffffffffffffffffffffffffffffffffff1614156115be5760009150506115d7565b80806115c990612a45565b9150506114ef565b50600190505b92915050565b6040518061010001604052806060815260200160008152602001600060ff168152602001600060ff16815260200160608152602001600015158152602001600073ffffffffffffffffffffffffffffffffffffffff168152602001606081525090565b6040518060a0016040528060008152602001606081526020016000815260200160008152602001606081525090565b82805461167b90612617565b90600052602060002090601f01602090048101928261169d57600085556116e4565b82601f106116b657805160ff19168380011785556116e4565b828001600101855582156116e4579182015b828111156116e35782518255916020019190600101906116c8565b5b5090506116f19190611886565b5090565b828054828255906000526020600020908101928215611744579160200282015b8281111561174357825182908051906020019061173392919061166f565b5091602001919060010190611715565b5b50905061175191906118a3565b5090565b82805482825590600052602060002090601f016020900481019282156117eb5791602002820160005b838211156117bc57835183826101000a81548160ff021916908360ff160217905550926020019260010160208160000104928301926001030261177e565b80156117e95782816101000a81549060ff02191690556001016020816000010492830192600103026117bc565b505b5090506117f89190611886565b5090565b828054828255906000526020600020908101928215611875579160200282015b828111156118745782518260006101000a81548173ffffffffffffffffffffffffffffffffffffffff021916908373ffffffffffffffffffffffffffffffffffffffff1602179055509160200191906001019061181c565b5b5090506118829190611886565b5090565b5b8082111561189f576000816000905550600101611887565b5090565b5b808211156118c357600081816118ba91906118c7565b506001016118a4565b5090565b5080546118d390612617565b6000825580601f106118e55750611904565b601f0160209004906000526020600020908101906119039190611886565b5b50565b6000604051905090565b600080fd5b600080fd5b6000819050919050565b61192e8161191b565b811461193957600080fd5b50565b60008135905061194b81611925565b92915050565b60006020828403121561196757611966611911565b5b60006119758482850161193c565b91505092915050565b600081519050919050565b600082825260208201905092915050565b60005b838110156119b857808201518184015260208101905061199d565b838111156119c7576000848401525b50505050565b6000601f19601f8301169050919050565b60006119e98261197e565b6119f38185611989565b9350611a0381856020860161199a565b611a0c816119cd565b840191505092915050565b611a208161191b565b82525050565b600060ff82169050919050565b611a3c81611a26565b82525050565b600081519050919050565b600082825260208201905092915050565b6000819050602082019050919050565b6000611a7a8383611a33565b60208301905092915050565b6000602082019050919050565b6000611a9e82611a42565b611aa88185611a4d565b9350611ab383611a5e565b8060005b83811015611ae4578151611acb8882611a6e565b9750611ad683611a86565b925050600181019050611ab7565b5085935050505092915050565b60008115159050919050565b611b0681611af1565b82525050565b600073ffffffffffffffffffffffffffffffffffffffff82169050919050565b6000611b3782611b0c565b9050919050565b611b4781611b2c565b82525050565b600081519050919050565b600082825260208201905092915050565b6000819050602082019050919050565b6000611b858383611b3e565b60208301905092915050565b6000602082019050919050565b6000611ba982611b4d565b611bb38185611b58565b9350611bbe83611b69565b8060005b83811015611bef578151611bd68882611b79565b9750611be183611b91565b925050600181019050611bc2565b5085935050505092915050565b6000610100830160008301518482036000860152611c1a82826119de565b9150506020830151611c2f6020860182611a17565b506040830151611c426040860182611a33565b506060830151611c556060860182611a33565b5060808301518482036080860152611c6d8282611a93565b91505060a0830151611c8260a0860182611afd565b5060c0830151611c9560c0860182611b3e565b5060e083015184820360e0860152611cad8282611b9e565b9150508091505092915050565b60006020820190508181036000830152611cd48184611bfc565b905092915050565b600081519050919050565b600082825260208201905092915050565b6000819050602082019050919050565b600081519050919050565b600082825260208201905092915050565b6000819050602082019050919050565b6000611d4083836119de565b905092915050565b6000602082019050919050565b6000611d6082611d08565b611d6a8185611d13565b935083602082028501611d7c85611d24565b8060005b85811015611db85784840389528151611d998582611d34565b9450611da483611d48565b925060208a01995050600181019050611d80565b50829750879550505050505092915050565b600060a083016000830151611de26000860182611a17565b5060208301518482036020860152611dfa82826119de565b9150506040830151611e0f6040860182611a17565b506060830151611e226060860182611a17565b5060808301518482036080860152611e3a8282611d55565b9150508091505092915050565b6000611e538383611dca565b905092915050565b6000602082019050919050565b6000611e7382611cdc565b611e7d8185611ce7565b935083602082028501611e8f85611cf8565b8060005b85811015611ecb5784840389528151611eac8582611e47565b9450611eb783611e5b565b925060208a01995050600181019050611e93565b50829750879550505050505092915050565b60006020820190508181036000830152611ef78184611e68565b905092915050565b611f0881611b2c565b82525050565b6000602082019050611f236000830184611eff565b92915050565b600060a083016000830151611f416000860182611a17565b5060208301518482036020860152611f5982826119de565b9150506040830151611f6e6040860182611a17565b506060830151611f816060860182611a17565b5060808301518482036080860152611f998282611d55565b9150508091505092915050565b60006020820190508181036000830152611fc08184611f29565b905092915050565b600080fd5b600080fd5b7f4e487b7100000000000000000000000000000000000000000000000000000000600052604160045260246000fd5b61200a826119cd565b810181811067ffffffffffffffff8211171561202957612028611fd2565b5b80604052505050565b600061203c611907565b90506120488282612001565b919050565b600067ffffffffffffffff82111561206857612067611fd2565b5b612071826119cd565b9050602081019050919050565b82818337600083830152505050565b60006120a061209b8461204d565b612032565b9050828152602081018484840111156120bc576120bb611fcd565b5b6120c784828561207e565b509392505050565b600082601f8301126120e4576120e3611fc8565b5b81356120f484826020860161208d565b91505092915050565b600067ffffffffffffffff82111561211857612117611fd2565b5b602082029050602081019050919050565b600080fd5b600061214161213c846120fd565b612032565b9050808382526020820190506020840283018581111561216457612163612129565b5b835b818110156121ab57803567ffffffffffffffff81111561218957612188611fc8565b5b80860161219689826120cf565b85526020850194505050602081019050612166565b5050509392505050565b600082601f8301126121ca576121c9611fc8565b5b81356121da84826020860161212e565b91505092915050565b600080600080608085870312156121fd576121fc611911565b5b600085013567ffffffffffffffff81111561221b5761221a611916565b5b612227878288016120cf565b94505060206122388782880161193c565b93505060406122498782880161193c565b925050606085013567ffffffffffffffff81111561226a57612269611916565b5b612276878288016121b5565b91505092959194509250565b61228b81611a26565b811461229657600080fd5b50565b6000813590506122a881612282565b92915050565b6000806000606084860312156122c7576122c6611911565b5b600084013567ffffffffffffffff8111156122e5576122e4611916565b5b6122f1868287016120cf565b935050602061230286828701612299565b92505060406123138682870161193c565b9150509250925092565b6123268161191b565b82525050565b6000602082019050612341600083018461231d565b92915050565b6000806000606084860312156123605761235f611911565b5b600061236e8682870161193c565b935050602061237f86828701612299565b92505060406123908682870161193c565b9150509250925092565b600081519050919050565b600082825260208201905092915050565b6000819050602082019050919050565b60006101008301600083015184820360008601526123e482826119de565b91505060208301516123f96020860182611a17565b50604083015161240c6040860182611a33565b50606083015161241f6060860182611a33565b50608083015184820360808601526124378282611a93565b91505060a083015161244c60a0860182611afd565b5060c083015161245f60c0860182611b3e565b5060e083015184820360e08601526124778282611b9e565b9150508091505092915050565b600061249083836123c6565b905092915050565b6000602082019050919050565b60006124b08261239a565b6124ba81856123a5565b9350836020820285016124cc856123b6565b8060005b8581101561250857848403895281516124e98582612484565b94506124f483612498565b925060208a019950506001810190506124d0565b50829750879550505050505092915050565b6000602082019050818103600083015261253481846124a5565b905092915050565b600082825260208201905092915050565b7f496e76616c69642063617074696f6e2069647800000000000000000000000000600082015250565b600061258360138361253c565b915061258e8261254d565b602082019050919050565b600060208201905081810360008301526125b281612576565b9050919050565b7f4e487b7100000000000000000000000000000000000000000000000000000000600052603260045260246000fd5b7f4e487b7100000000000000000000000000000000000000000000000000000000600052602260045260246000fd5b6000600282049050600182168061262f57607f821691505b60208210811415612643576126426125e8565b5b50919050565b7f496e76616c6964206d6f64656c20696478000000000000000000000000000000600082015250565b600061267f60118361253c565b915061268a82612649565b602082019050919050565b600060208201905081810360008301526126ae81612672565b9050919050565b7f4e6f7420656e6f75676820657468000000000000000000000000000000000000600082015250565b60006126eb600e8361253c565b91506126f6826126b5565b602082019050919050565b6000602082019050818103600083015261271a816126de565b9050919050565b7f496e76616c6964204e756d626572206f6620566f746573206f7220436170746960008201527f6f6e730000000000000000000000000000000000000000000000000000000000602082015250565b600061277d60238361253c565b915061278882612721565b604082019050919050565b600060208201905081810360008301526127ac81612770565b9050919050565b7f496e76616c6964206c6162656c00000000000000000000000000000000000000600082015250565b60006127e9600d8361253c565b91506127f4826127b3565b602082019050919050565b60006020820190508181036000830152612818816127dc565b9050919050565b7f4e487b7100000000000000000000000000000000000000000000000000000000600052601160045260246000fd5b60006128598261191b565b91506128648361191b565b9250827fffffffffffffffffffffffffffffffffffffffffffffffffffffffffffffffff038211156128995761289861281f565b5b828201905092915050565b7f43616e6e6f742072657669657720612076657269666965642063617074696f6e600082015250565b60006128da60208361253c565b91506128e5826128a4565b602082019050919050565b60006020820190508181036000830152612909816128cd565b9050919050565b7f43616e6e6f742072657669657720796f7572206f776e2063617074696f6e0000600082015250565b6000612946601e8361253c565b915061295182612910565b602082019050919050565b6000602082019050818103600083015261297581612939565b9050919050565b7f4f6e6c79206f6e6520766f746520706572206163636f756e7420666f7220657660008201527f6572792063617074696f6e000000000000000000000000000000000000000000602082015250565b60006129d8602b8361253c565b91506129e38261297c565b604082019050919050565b60006020820190508181036000830152612a07816129cb565b9050919050565b6000612a1982611a26565b9150612a2483611a26565b92508260ff03821115612a3a57612a3961281f565b5b828201905092915050565b6000612a508261191b565b91507fffffffffffffffffffffffffffffffffffffffffffffffffffffffffffffffff821415612a8357612a8261281f565b5b60018201905091905056fea2646970667358221220a5ec6ed50437374a6590d78b49a444ae830bd88d0bc300fdec334dc03c80081d64736f6c634300080c0033",
  "immutableReferences": {},
  "source": "// SPDX-License-Identifier: MIT\npragma solidity >=0.4.22 <0.9.0;\n\ncontract CaptionReview {\n    address public chairperson;\n    uint captionCnt = 0;\n\n    struct Caption{\n        string content;\n        uint256 modelId;\n        uint8 proposedLabel;\n        uint8 verifiedLabel;\n        uint8[] Votes;\n        bool verified;\n        address providerAddr;\n        address[] voters;\n    }\n\n    struct ModelInfo{\n        uint256 id;\n        string description;\n        uint256 NumberOfVotes;\n        uint256 NumberOfCaptions;\n        string[] labels;\n    }\n\n    Caption[] captions;\n\n    ModelInfo[] models;\n\n    constructor(){\n        chairperson = msg.sender;\n    }\n\n    function addModel(string memory _description, uint _NumOfVotes, uint _NumOfCaptions, string[] memory labels) external payable{\n        require(msg.value >= 1e18,\"Not enough eth\");\n        require(_NumOfVotes > 0 && _NumOfCaptions > 0,\"Invalid Number of Votes or Captions\");\n        models.push(ModelInfo(models.length, _description, _NumOfVotes, _NumOfCaptions, labels));\n    }\n\n    function addCaption(string memory _caption, uint8 _lbl, uint _modelId) external payable{\n        require(msg.value >= 1e16,\"Not enough eth\");\n        require(_lbl >= 0 && _lbl < models[_modelId].labels.length,\"Invalid label\");\n        captions.push(Caption(_caption, _modelId, _lbl, _lbl, new uint8[](models[_modelId].labels.length), false, msg.sender, new address[](0)));\n        captionCnt += 1;\n    }\n\n    function notVoted(address _voter, uint _idx) private view returns (bool) {\n        for (uint i = 0; i < captions[_idx].voters.length; i++) {\n            if (captions[_idx].voters[i] == _voter) {\n                return false;\n            }\n        }\n        return true;\n    }\n\n    function reviewCaption(uint _idx, uint8 _lbl, uint _modelId) external payable{\n        require(msg.value >= 1e15,\"Not enough eth\");\n        require(captions[_idx].verified == false, \"Cannot review a verified caption\");\n        require(msg.sender != captions[_idx].providerAddr, \"Cannot review your own caption\");\n        require(_idx < captionCnt && _idx >= 0,\"Invalid caption idx\");\n        require(_lbl >= 0 && _lbl < models[_modelId].labels.length,\"Invalid label\");\n        require(notVoted(msg.sender,_idx),\"Only one vote per account for every caption\");\n        captions[_idx].Votes[_lbl] += 1;\n        captions[_idx].voters.push(msg.sender);\n        if(captions[_idx].Votes[_lbl] == models[_modelId].NumberOfVotes){\n            captions[_idx].verified = true;\n            captions[_idx].verifiedLabel = _lbl;\n        }\n    }\n\n    function getModels() public view returns( ModelInfo  [] memory){\n        return models;\n    }\n\n    function getModel(uint _idx) public view returns (ModelInfo memory) {\n        require(_idx < models.length && _idx >= 0,\"Invalid model idx\");\n    \treturn models[_idx];\n    }\n\n    function getCaptions() public view returns( Caption  [] memory){\n        return captions;\n    }\n\n    function getCaption(uint _idx) public view returns (Caption memory) {\n        require(_idx < captionCnt && _idx >= 0,\"Invalid caption idx\");\n    \treturn captions[_idx];\n    }\n\n    function getCaptionCnt() public view returns (uint){\n        return(captionCnt);\n    }\n\n}",
  "sourcePath": "/home/demet/Desktop/thesis/contracts/contracts/CaptionReview.sol",
  "compiler": {
    "name": "solc",
    "version": "0.8.12+commit.f00d7308.Emscripten.clang"
  },
  "schemaVersion": "3.4.6",
  "updatedAt": "2022-05-07T15:36:06.971Z",
  "networkType": "ethereum",
  "devdoc": {
    "kind": "dev",
    "methods": {},
    "version": 1
  },
  "userdoc": {
    "kind": "user",
    "methods": {},
    "version": 1
  }
}