{
  "contractName": "CaptionReview",
  "abi": [
    {
      "inputs": [],
      "stateMutability": "nonpayable",
      "type": "constructor"
    },
    {
      "inputs": [],
      "name": "chairperson",
      "outputs": [
        {
          "internalType": "address",
          "name": "",
          "type": "address"
        }
      ],
      "stateMutability": "view",
      "type": "function",
      "constant": true
    },
    {
      "inputs": [
        {
          "internalType": "string",
          "name": "_name",
          "type": "string"
        },
        {
          "internalType": "string",
          "name": "_description",
          "type": "string"
        },
        {
          "internalType": "uint256",
          "name": "_NumOfVotes",
          "type": "uint256"
        },
        {
          "internalType": "uint256",
          "name": "_NumOfCaptions",
          "type": "uint256"
        },
        {
          "internalType": "uint256",
          "name": "_initialAcc",
          "type": "uint256"
        },
        {
          "internalType": "string[]",
          "name": "labels",
          "type": "string[]"
        }
      ],
      "name": "addModel",
      "outputs": [],
      "stateMutability": "payable",
      "type": "function",
      "payable": true
    },
    {
      "inputs": [
        {
          "internalType": "string",
          "name": "_caption",
          "type": "string"
        },
        {
          "internalType": "uint8",
          "name": "_lbl",
          "type": "uint8"
        },
        {
          "internalType": "uint256",
          "name": "_modelId",
          "type": "uint256"
        }
      ],
      "name": "addCaption",
      "outputs": [],
      "stateMutability": "payable",
      "type": "function",
      "payable": true
    },
    {
      "inputs": [
        {
          "internalType": "uint256",
          "name": "_idx",
          "type": "uint256"
        },
        {
          "internalType": "uint8",
          "name": "_lbl",
          "type": "uint8"
        },
        {
          "internalType": "uint256",
          "name": "_modelId",
          "type": "uint256"
        }
      ],
      "name": "reviewCaption",
      "outputs": [],
      "stateMutability": "payable",
      "type": "function",
      "payable": true
    },
    {
      "inputs": [],
      "name": "getModels",
      "outputs": [
        {
          "components": [
            {
              "internalType": "uint256",
              "name": "id",
              "type": "uint256"
            },
            {
              "internalType": "string",
              "name": "name",
              "type": "string"
            },
            {
              "internalType": "string",
              "name": "description",
              "type": "string"
            },
            {
              "internalType": "uint256",
              "name": "NumberOfVotes",
              "type": "uint256"
            },
            {
              "internalType": "uint256",
              "name": "NumberOfCaptions",
              "type": "uint256"
            },
            {
              "internalType": "string[]",
              "name": "labels",
              "type": "string[]"
            },
            {
              "internalType": "address",
              "name": "modelProviderAddr",
              "type": "address"
            },
            {
              "internalType": "uint256[]",
              "name": "accuracy",
              "type": "uint256[]"
            }
          ],
          "internalType": "struct CaptionReview.ModelInfo[]",
          "name": "",
          "type": "tuple[]"
        }
      ],
      "stateMutability": "view",
      "type": "function",
      "constant": true
    },
    {
      "inputs": [],
      "name": "getCaptions",
      "outputs": [
        {
          "components": [
            {
              "internalType": "string",
              "name": "content",
              "type": "string"
            },
            {
              "internalType": "uint256",
              "name": "modelId",
              "type": "uint256"
            },
            {
              "internalType": "uint8",
              "name": "proposedLabel",
              "type": "uint8"
            },
            {
              "internalType": "uint8",
              "name": "verifiedLabel",
              "type": "uint8"
            },
            {
              "internalType": "uint8[]",
              "name": "Votes",
              "type": "uint8[]"
            },
            {
              "internalType": "bool",
              "name": "verified",
              "type": "bool"
            },
            {
              "internalType": "address",
              "name": "providerAddr",
              "type": "address"
            },
            {
              "internalType": "address[]",
              "name": "voters",
              "type": "address[]"
            }
          ],
          "internalType": "struct CaptionReview.Caption[]",
          "name": "",
          "type": "tuple[]"
        }
      ],
      "stateMutability": "view",
      "type": "function",
      "constant": true
    },
    {
      "inputs": [
        {
          "internalType": "uint256",
          "name": "_idx",
          "type": "uint256"
        },
        {
          "internalType": "uint256",
          "name": "_acc",
          "type": "uint256"
        }
      ],
      "name": "addAccuracy",
      "outputs": [],
      "stateMutability": "nonpayable",
      "type": "function"
    },
    {
      "inputs": [
        {
          "internalType": "uint256[]",
          "name": "_inputUsedCaptions",
          "type": "uint256[]"
        }
      ],
      "name": "updateCaptionTrainStatus",
      "outputs": [],
      "stateMutability": "nonpayable",
      "type": "function"
    }
  ],
  "bytecode": "0x608060405234801561001057600080fd5b50336000806101000a81548173ffffffffffffffffffffffffffffffffffffffff021916908373ffffffffffffffffffffffffffffffffffffffff160217905550612df6806100606000396000f3fe60806040526004361061007b5760003560e01c8063cbeefb8c1161004e578063cbeefb8c1461011b578063d69fca3214610137578063dcbb34a514610160578063eef9cd3a1461017c5761007b565b806309817d45146100805780632e4176cf146100ab57806341252ec2146100d6578063948b831d146100ff575b600080fd5b34801561008c57600080fd5b506100956101a7565b6040516100a29190611fd4565b60405180910390f35b3480156100b757600080fd5b506100c06104d0565b6040516100cd9190612005565b60405180910390f35b3480156100e257600080fd5b506100fd60048036038101906100f89190612060565b6104f4565b005b6101196004803603810190610114919061220e565b610544565b005b6101356004803603810190610130919061227d565b610859565b005b34801561014357600080fd5b5061015e60048036038101906101599190612398565b610d03565b005b61017a600480360381019061017591906124c2565b610fa4565b005b34801561018857600080fd5b50610191611247565b60405161019e91906128ab565b60405180910390f35b60606002805480602002602001604051908101604052809291908181526020016000905b828210156104c757838290600052602060002090600802016040518061010001604052908160008201548152602001600182018054610209906128fc565b80601f0160208091040260200160405190810160405280929190818152602001828054610235906128fc565b80156102825780601f1061025757610100808354040283529160200191610282565b820191906000526020600020905b81548152906001019060200180831161026557829003601f168201915b5050505050815260200160028201805461029b906128fc565b80601f01602080910402602001604051908101604052809291908181526020018280546102c7906128fc565b80156103145780601f106102e957610100808354040283529160200191610314565b820191906000526020600020905b8154815290600101906020018083116102f757829003601f168201915b50505050508152602001600382015481526020016004820154815260200160058201805480602002602001604051908101604052809291908181526020016000905b82821015610402578382906000526020600020018054610375906128fc565b80601f01602080910402602001604051908101604052809291908181526020018280546103a1906128fc565b80156103ee5780601f106103c3576101008083540402835291602001916103ee565b820191906000526020600020905b8154815290600101906020018083116103d157829003601f168201915b505050505081526020019060010190610356565b5050505081526020016006820160009054906101000a900473ffffffffffffffffffffffffffffffffffffffff1673ffffffffffffffffffffffffffffffffffffffff1673ffffffffffffffffffffffffffffffffffffffff168152602001600782018054806020026020016040519081016040528092919081815260200182805480156104af57602002820191906000526020600020905b81548152602001906001019080831161049b575b505050505081525050815260200190600101906101cb565b50505050905090565b60008054906101000a900473ffffffffffffffffffffffffffffffffffffffff1681565b600282815481106105085761050761292e565b5b90600052602060002090600802016007018190806001815401808255809150506001900390600052602060002001600090919091909150555050565b66038d7ea4c6800034101561058e576040517f08c379a0000000000000000000000000000000000000000000000000000000008152600401610585906129ba565b60405180910390fd5b60008260ff16101580156105cc5750600281815481106105b1576105b061292e565b5b9060005260206000209060080201600501805490508260ff16105b61060b576040517f08c379a000000000000000000000000000000000000000000000000000000000815260040161060290612a26565b60405180910390fd5b60016040518061010001604052808581526020018381526020018460ff1681526020018460ff1681526020016002848154811061064b5761064a61292e565b5b90600052602060002090600802016005018054905067ffffffffffffffff811115610679576106786120aa565b5b6040519080825280602002602001820160405280156106a75781602001602082028036833780820191505090505b5081526020016000151581526020013373ffffffffffffffffffffffffffffffffffffffff168152602001600067ffffffffffffffff8111156106ed576106ec6120aa565b5b60405190808252806020026020018201604052801561071b5781602001602082028036833780820191505090505b508152509080600181540180825580915050600190039060005260206000209060060201600090919091909150600082015181600001908051906020019061076492919061177c565b506020820151816001015560408201518160020160006101000a81548160ff021916908360ff16021790555060608201518160020160016101000a81548160ff021916908360ff16021790555060808201518160030190805190602001906107cd929190611802565b5060a08201518160040160006101000a81548160ff02191690831515021790555060c08201518160040160016101000a81548173ffffffffffffffffffffffffffffffffffffffff021916908373ffffffffffffffffffffffffffffffffffffffff16021790555060e08201518160050190805190602001906108519291906118a9565b505050505050565b66038d7ea4c680003410156108a3576040517f08c379a000000000000000000000000000000000000000000000000000000000815260040161089a906129ba565b60405180910390fd5b60001515600184815481106108bb576108ba61292e565b5b906000526020600020906006020160040160009054906101000a900460ff1615151461091c576040517f08c379a000000000000000000000000000000000000000000000000000000000815260040161091390612a92565b60405180910390fd5b600183815481106109305761092f61292e565b5b906000526020600020906006020160040160019054906101000a900473ffffffffffffffffffffffffffffffffffffffff1673ffffffffffffffffffffffffffffffffffffffff163373ffffffffffffffffffffffffffffffffffffffff1614156109d0576040517f08c379a00000000000000000000000000000000000000000000000000000000081526004016109c790612afe565b60405180910390fd5b600180549050831080156109e5575060008310155b610a24576040517f08c379a0000000000000000000000000000000000000000000000000000000008152600401610a1b90612b6a565b60405180910390fd5b60008260ff1610158015610a62575060028181548110610a4757610a4661292e565b5b9060005260206000209060080201600501805490508260ff16105b610aa1576040517f08c379a0000000000000000000000000000000000000000000000000000000008152600401610a9890612a26565b60405180910390fd5b610aab33846114fa565b610aea576040517f08c379a0000000000000000000000000000000000000000000000000000000008152600401610ae190612bfc565b60405180910390fd5b6001808481548110610aff57610afe61292e565b5b90600052602060002090600602016003018360ff1681548110610b2557610b2461292e565b5b90600052602060002090602091828204019190068282829054906101000a900460ff16610b529190612c4b565b92506101000a81548160ff021916908360ff16021790555060018381548110610b7e57610b7d61292e565b5b9060005260206000209060060201600501339080600181540180825580915050600190039060005260206000200160009091909190916101000a81548173ffffffffffffffffffffffffffffffffffffffff021916908373ffffffffffffffffffffffffffffffffffffffff16021790555060028181548110610c0457610c0361292e565b5b90600052602060002090600802016003015460018481548110610c2a57610c2961292e565b5b90600052602060002090600602016003018360ff1681548110610c5057610c4f61292e565b5b90600052602060002090602091828204019190069054906101000a900460ff1660ff161415610cfe576001808481548110610c8e57610c8d61292e565b5b906000526020600020906006020160040160006101000a81548160ff0219169083151502179055508160018481548110610ccb57610cca61292e565b5b906000526020600020906006020160020160016101000a81548160ff021916908360ff160217905550610cfd836115f0565b5b505050565b60005b8151811015610fa0576001808080549050610d219190612c82565b81548110610d3257610d3161292e565b5b90600052602060002090600602016001838381518110610d5557610d5461292e565b5b602002602001015181548110610d6e57610d6d61292e565b5b90600052602060002090600602016000820181600001908054610d90906128fc565b610d9b929190611933565b50600182015481600101556002820160009054906101000a900460ff168160020160006101000a81548160ff021916908360ff1602179055506002820160019054906101000a900460ff168160020160016101000a81548160ff021916908360ff1602179055506003820181600301908054610e189291906119c0565b506004820160009054906101000a900460ff168160040160006101000a81548160ff0219169083151502179055506004820160019054906101000a900473ffffffffffffffffffffffffffffffffffffffff168160040160016101000a81548173ffffffffffffffffffffffffffffffffffffffff021916908373ffffffffffffffffffffffffffffffffffffffff1602179055506005820181600501908054610ec3929190611a20565b509050506001805480610ed957610ed8612cb6565b5b600190038181906000526020600020906006020160008082016000610efe9190611a72565b60018201600090556002820160006101000a81549060ff02191690556002820160016101000a81549060ff0219169055600382016000610f3e9190611ab2565b6004820160006101000a81549060ff02191690556004820160016101000a81549073ffffffffffffffffffffffffffffffffffffffff0219169055600582016000610f899190611ada565b505090558080610f9890612ce5565b915050610d06565b5050565b670de0b6b3a7640000341015610fef576040517f08c379a0000000000000000000000000000000000000000000000000000000008152600401610fe6906129ba565b60405180910390fd5b600084118015610fff5750600083115b61103e576040517f08c379a000000000000000000000000000000000000000000000000000000000815260040161103590612da0565b60405180910390fd5b600260405180610100016040528060028054905081526020018881526020018781526020018681526020018581526020018381526020013373ffffffffffffffffffffffffffffffffffffffff168152602001600067ffffffffffffffff8111156110ac576110ab6120aa565b5b6040519080825280602002602001820160405280156110da5781602001602082028036833780820191505090505b50815250908060018154018082558091505060019003906000526020600020906008020160009091909190915060008201518160000155602082015181600101908051906020019061112d92919061177c565b50604082015181600201908051906020019061114a92919061177c565b50606082015181600301556080820151816004015560a082015181600501908051906020019061117b929190611afb565b5060c08201518160060160006101000a81548173ffffffffffffffffffffffffffffffffffffffff021916908373ffffffffffffffffffffffffffffffffffffffff16021790555060e08201518160070190805190602001906111df929190611b5b565b505050600260016002805490506111f69190612c82565b815481106112075761120661292e565b5b9060005260206000209060080201600701829080600181540180825580915050600190039060005260206000200160009091909190915055505050505050565b60606001805480602002602001604051908101604052809291908181526020016000905b828210156114f157838290600052602060002090600602016040518061010001604052908160008201805461129f906128fc565b80601f01602080910402602001604051908101604052809291908181526020018280546112cb906128fc565b80156113185780601f106112ed57610100808354040283529160200191611318565b820191906000526020600020905b8154815290600101906020018083116112fb57829003601f168201915b50505050508152602001600182015481526020016002820160009054906101000a900460ff1660ff1660ff1681526020016002820160019054906101000a900460ff1660ff1660ff168152602001600382018054806020026020016040519081016040528092919081815260200182805480156113da57602002820191906000526020600020906000905b82829054906101000a900460ff1660ff16815260200190600101906020826000010492830192600103820291508084116113a35790505b505050505081526020016004820160009054906101000a900460ff161515151581526020016004820160019054906101000a900473ffffffffffffffffffffffffffffffffffffffff1673ffffffffffffffffffffffffffffffffffffffff1673ffffffffffffffffffffffffffffffffffffffff168152602001600582018054806020026020016040519081016040528092919081815260200182805480156114d957602002820191906000526020600020905b8160009054906101000a900473ffffffffffffffffffffffffffffffffffffffff1673ffffffffffffffffffffffffffffffffffffffff168152602001906001019080831161148f575b5050505050815250508152602001906001019061126b565b50505050905090565b600080600090505b600183815481106115165761151561292e565b5b9060005260206000209060060201600501805490508110156115e4578373ffffffffffffffffffffffffffffffffffffffff166001848154811061155d5761155c61292e565b5b906000526020600020906006020160050182815481106115805761157f61292e565b5b9060005260206000200160009054906101000a900473ffffffffffffffffffffffffffffffffffffffff1673ffffffffffffffffffffffffffffffffffffffff1614156115d15760009150506115ea565b80806115dc90612ce5565b915050611502565b50600190505b92915050565b600181815481106116045761160361292e565b5b906000526020600020906006020160040160019054906101000a900473ffffffffffffffffffffffffffffffffffffffff1673ffffffffffffffffffffffffffffffffffffffff166108fc662386f26fc100009081150290604051600060405180830381858888f19350505050158015611682573d6000803e3d6000fd5b5060005b6001828154811061169a5761169961292e565b5b90600052602060002090600602016005018054905081101561177857600182815481106116ca576116c961292e565b5b906000526020600020906006020160050181815481106116ed576116ec61292e565b5b9060005260206000200160009054906101000a900473ffffffffffffffffffffffffffffffffffffffff1673ffffffffffffffffffffffffffffffffffffffff166108fc662386f26fc100009081150290604051600060405180830381858888f19350505050158015611764573d6000803e3d6000fd5b50808061177090612ce5565b915050611686565b5050565b828054611788906128fc565b90600052602060002090601f0160209004810192826117aa57600085556117f1565b82601f106117c357805160ff19168380011785556117f1565b828001600101855582156117f1579182015b828111156117f05782518255916020019190600101906117d5565b5b5090506117fe9190611ba8565b5090565b82805482825590600052602060002090601f016020900481019282156118985791602002820160005b8382111561186957835183826101000a81548160ff021916908360ff160217905550926020019260010160208160000104928301926001030261182b565b80156118965782816101000a81549060ff0219169055600101602081600001049283019260010302611869565b505b5090506118a59190611ba8565b5090565b828054828255906000526020600020908101928215611922579160200282015b828111156119215782518260006101000a81548173ffffffffffffffffffffffffffffffffffffffff021916908373ffffffffffffffffffffffffffffffffffffffff160217905550916020019190600101906118c9565b5b50905061192f9190611ba8565b5090565b82805461193f906128fc565b90600052602060002090601f01602090048101928261196157600085556119af565b82601f1061197257805485556119af565b828001600101855582156119af57600052602060002091601f016020900482015b828111156119ae578254825591600101919060010190611993565b5b5090506119bc9190611ba8565b5090565b82805482825590600052602060002090601f01602090048101928215611a0f57600052602060002091601f016020900482015b82811115611a0e5782548255916001019190600101906119f3565b5b509050611a1c9190611ba8565b5090565b828054828255906000526020600020908101928215611a615760005260206000209182015b82811115611a60578254825591600101919060010190611a45565b5b509050611a6e9190611ba8565b5090565b508054611a7e906128fc565b6000825580601f10611a905750611aaf565b601f016020900490600052602060002090810190611aae9190611ba8565b5b50565b50805460008255601f016020900490600052602060002090810190611ad79190611ba8565b50565b5080546000825590600052602060002090810190611af89190611ba8565b50565b828054828255906000526020600020908101928215611b4a579160200282015b82811115611b49578251829080519060200190611b3992919061177c565b5091602001919060010190611b1b565b5b509050611b579190611bc5565b5090565b828054828255906000526020600020908101928215611b97579160200282015b82811115611b96578251825591602001919060010190611b7b565b5b509050611ba49190611ba8565b5090565b5b80821115611bc1576000816000905550600101611ba9565b5090565b5b80821115611be55760008181611bdc9190611a72565b50600101611bc6565b5090565b600081519050919050565b600082825260208201905092915050565b6000819050602082019050919050565b6000819050919050565b611c2881611c15565b82525050565b600081519050919050565b600082825260208201905092915050565b60005b83811015611c68578082015181840152602081019050611c4d565b83811115611c77576000848401525b50505050565b6000601f19601f8301169050919050565b6000611c9982611c2e565b611ca38185611c39565b9350611cb3818560208601611c4a565b611cbc81611c7d565b840191505092915050565b600081519050919050565b600082825260208201905092915050565b6000819050602082019050919050565b6000611cff8383611c8e565b905092915050565b6000602082019050919050565b6000611d1f82611cc7565b611d298185611cd2565b935083602082028501611d3b85611ce3565b8060005b85811015611d775784840389528151611d588582611cf3565b9450611d6383611d07565b925060208a01995050600181019050611d3f565b50829750879550505050505092915050565b600073ffffffffffffffffffffffffffffffffffffffff82169050919050565b6000611db482611d89565b9050919050565b611dc481611da9565b82525050565b600081519050919050565b600082825260208201905092915050565b6000819050602082019050919050565b6000611e028383611c1f565b60208301905092915050565b6000602082019050919050565b6000611e2682611dca565b611e308185611dd5565b9350611e3b83611de6565b8060005b83811015611e6c578151611e538882611df6565b9750611e5e83611e0e565b925050600181019050611e3f565b5085935050505092915050565b600061010083016000830151611e926000860182611c1f565b5060208301518482036020860152611eaa8282611c8e565b91505060408301518482036040860152611ec48282611c8e565b9150506060830151611ed96060860182611c1f565b506080830151611eec6080860182611c1f565b5060a083015184820360a0860152611f048282611d14565b91505060c0830151611f1960c0860182611dbb565b5060e083015184820360e0860152611f318282611e1b565b9150508091505092915050565b6000611f4a8383611e79565b905092915050565b6000602082019050919050565b6000611f6a82611be9565b611f748185611bf4565b935083602082028501611f8685611c05565b8060005b85811015611fc25784840389528151611fa38582611f3e565b9450611fae83611f52565b925060208a01995050600181019050611f8a565b50829750879550505050505092915050565b60006020820190508181036000830152611fee8184611f5f565b905092915050565b611fff81611da9565b82525050565b600060208201905061201a6000830184611ff6565b92915050565b6000604051905090565b600080fd5b600080fd5b61203d81611c15565b811461204857600080fd5b50565b60008135905061205a81612034565b92915050565b600080604083850312156120775761207661202a565b5b60006120858582860161204b565b92505060206120968582860161204b565b9150509250929050565b600080fd5b600080fd5b7f4e487b7100000000000000000000000000000000000000000000000000000000600052604160045260246000fd5b6120e282611c7d565b810181811067ffffffffffffffff82111715612101576121006120aa565b5b80604052505050565b6000612114612020565b905061212082826120d9565b919050565b600067ffffffffffffffff8211156121405761213f6120aa565b5b61214982611c7d565b9050602081019050919050565b82818337600083830152505050565b600061217861217384612125565b61210a565b905082815260208101848484011115612194576121936120a5565b5b61219f848285612156565b509392505050565b600082601f8301126121bc576121bb6120a0565b5b81356121cc848260208601612165565b91505092915050565b600060ff82169050919050565b6121eb816121d5565b81146121f657600080fd5b50565b600081359050612208816121e2565b92915050565b6000806000606084860312156122275761222661202a565b5b600084013567ffffffffffffffff8111156122455761224461202f565b5b612251868287016121a7565b9350506020612262868287016121f9565b92505060406122738682870161204b565b9150509250925092565b6000806000606084860312156122965761229561202a565b5b60006122a48682870161204b565b93505060206122b5868287016121f9565b92505060406122c68682870161204b565b9150509250925092565b600067ffffffffffffffff8211156122eb576122ea6120aa565b5b602082029050602081019050919050565b600080fd5b600061231461230f846122d0565b61210a565b90508083825260208201905060208402830185811115612337576123366122fc565b5b835b81811015612360578061234c888261204b565b845260208401935050602081019050612339565b5050509392505050565b600082601f83011261237f5761237e6120a0565b5b813561238f848260208601612301565b91505092915050565b6000602082840312156123ae576123ad61202a565b5b600082013567ffffffffffffffff8111156123cc576123cb61202f565b5b6123d88482850161236a565b91505092915050565b600067ffffffffffffffff8211156123fc576123fb6120aa565b5b602082029050602081019050919050565b600061242061241b846123e1565b61210a565b90508083825260208201905060208402830185811115612443576124426122fc565b5b835b8181101561248a57803567ffffffffffffffff811115612468576124676120a0565b5b80860161247589826121a7565b85526020850194505050602081019050612445565b5050509392505050565b600082601f8301126124a9576124a86120a0565b5b81356124b984826020860161240d565b91505092915050565b60008060008060008060c087890312156124df576124de61202a565b5b600087013567ffffffffffffffff8111156124fd576124fc61202f565b5b61250989828a016121a7565b965050602087013567ffffffffffffffff81111561252a5761252961202f565b5b61253689828a016121a7565b955050604061254789828a0161204b565b945050606061255889828a0161204b565b935050608061256989828a0161204b565b92505060a087013567ffffffffffffffff81111561258a5761258961202f565b5b61259689828a01612494565b9150509295509295509295565b600081519050919050565b600082825260208201905092915050565b6000819050602082019050919050565b6125d8816121d5565b82525050565b600081519050919050565b600082825260208201905092915050565b6000819050602082019050919050565b600061261683836125cf565b60208301905092915050565b6000602082019050919050565b600061263a826125de565b61264481856125e9565b935061264f836125fa565b8060005b83811015612680578151612667888261260a565b975061267283612622565b925050600181019050612653565b5085935050505092915050565b60008115159050919050565b6126a28161268d565b82525050565b600081519050919050565b600082825260208201905092915050565b6000819050602082019050919050565b60006126e08383611dbb565b60208301905092915050565b6000602082019050919050565b6000612704826126a8565b61270e81856126b3565b9350612719836126c4565b8060005b8381101561274a57815161273188826126d4565b975061273c836126ec565b92505060018101905061271d565b5085935050505092915050565b60006101008301600083015184820360008601526127758282611c8e565b915050602083015161278a6020860182611c1f565b50604083015161279d60408601826125cf565b5060608301516127b060608601826125cf565b50608083015184820360808601526127c8828261262f565b91505060a08301516127dd60a0860182612699565b5060c08301516127f060c0860182611dbb565b5060e083015184820360e086015261280882826126f9565b9150508091505092915050565b60006128218383612757565b905092915050565b6000602082019050919050565b6000612841826125a3565b61284b81856125ae565b93508360208202850161285d856125bf565b8060005b85811015612899578484038952815161287a8582612815565b945061288583612829565b925060208a01995050600181019050612861565b50829750879550505050505092915050565b600060208201905081810360008301526128c58184612836565b905092915050565b7f4e487b7100000000000000000000000000000000000000000000000000000000600052602260045260246000fd5b6000600282049050600182168061291457607f821691505b60208210811415612928576129276128cd565b5b50919050565b7f4e487b7100000000000000000000000000000000000000000000000000000000600052603260045260246000fd5b600082825260208201905092915050565b7f4e6f7420656e6f75676820657468000000000000000000000000000000000000600082015250565b60006129a4600e8361295d565b91506129af8261296e565b602082019050919050565b600060208201905081810360008301526129d381612997565b9050919050565b7f496e76616c6964206c6162656c00000000000000000000000000000000000000600082015250565b6000612a10600d8361295d565b9150612a1b826129da565b602082019050919050565b60006020820190508181036000830152612a3f81612a03565b9050919050565b7f43616e6e6f742072657669657720612076657269666965642063617074696f6e600082015250565b6000612a7c60208361295d565b9150612a8782612a46565b602082019050919050565b60006020820190508181036000830152612aab81612a6f565b9050919050565b7f43616e6e6f742072657669657720796f7572206f776e2063617074696f6e0000600082015250565b6000612ae8601e8361295d565b9150612af382612ab2565b602082019050919050565b60006020820190508181036000830152612b1781612adb565b9050919050565b7f496e76616c69642063617074696f6e2069647800000000000000000000000000600082015250565b6000612b5460138361295d565b9150612b5f82612b1e565b602082019050919050565b60006020820190508181036000830152612b8381612b47565b9050919050565b7f4f6e6c79206f6e6520766f746520706572206163636f756e7420666f7220657660008201527f6572792063617074696f6e000000000000000000000000000000000000000000602082015250565b6000612be6602b8361295d565b9150612bf182612b8a565b604082019050919050565b60006020820190508181036000830152612c1581612bd9565b9050919050565b7f4e487b7100000000000000000000000000000000000000000000000000000000600052601160045260246000fd5b6000612c56826121d5565b9150612c61836121d5565b92508260ff03821115612c7757612c76612c1c565b5b828201905092915050565b6000612c8d82611c15565b9150612c9883611c15565b925082821015612cab57612caa612c1c565b5b828203905092915050565b7f4e487b7100000000000000000000000000000000000000000000000000000000600052603160045260246000fd5b6000612cf082611c15565b91507fffffffffffffffffffffffffffffffffffffffffffffffffffffffffffffffff821415612d2357612d22612c1c565b5b600182019050919050565b7f496e76616c6964204e756d626572206f6620566f746573206f7220436170746960008201527f6f6e730000000000000000000000000000000000000000000000000000000000602082015250565b6000612d8a60238361295d565b9150612d9582612d2e565b604082019050919050565b60006020820190508181036000830152612db981612d7d565b905091905056fea2646970667358221220b271f3b742bf169df75285c9bc757379baabb2167feafbb9e50eeaecb0c9bf7164736f6c634300080c0033",
  "immutableReferences": {},
  "source": "// SPDX-License-Identifier: MIT\r\npragma solidity >=0.4.22 <0.9.0;\r\n\r\ncontract CaptionReview {\r\n    address public chairperson;\r\n    uint constant modelCost = 1e18;\r\n    uint constant captionCost = 1e15;\r\n    uint constant reviewCost = 1e15;\r\n    uint constant captionRefund = 1e16;\r\n    uint constant reviewRefund = 1e16;\r\n\r\n    struct Caption{\r\n        string content;\r\n        uint256 modelId;\r\n        uint8 proposedLabel;\r\n        uint8 verifiedLabel;\r\n        uint8[] Votes;\r\n        bool verified;\r\n        address providerAddr;\r\n        address[] voters;\r\n    }\r\n\r\n    struct ModelInfo{\r\n        uint256 id;\r\n        string name;\r\n        string description;\r\n        uint256 NumberOfVotes;\r\n        uint256 NumberOfCaptions;\r\n        string[] labels;\r\n        address modelProviderAddr;\r\n        uint256[] accuracy;\r\n    }\r\n\r\n    Caption[] captions;\r\n\r\n    ModelInfo[] models;\r\n\r\n    constructor(){\r\n        chairperson = msg.sender;\r\n    }\r\n\r\n    function addModel(string memory _name, string memory _description, uint _NumOfVotes, uint _NumOfCaptions, uint _initialAcc, string[] memory labels) external payable{\r\n        require(msg.value >= modelCost,\"Not enough eth\");\r\n        require(_NumOfVotes > 0 && _NumOfCaptions > 0,\"Invalid Number of Votes or Captions\");\r\n        models.push(ModelInfo(models.length, _name, _description, _NumOfVotes, _NumOfCaptions, labels, msg.sender, new uint[](0)));\r\n        models[(models.length)-1].accuracy.push(_initialAcc);\r\n    }\r\n\r\n    function addCaption(string memory _caption, uint8 _lbl, uint _modelId) external payable{\r\n        require(msg.value >= captionCost,\"Not enough eth\");\r\n        require(_lbl >= 0 && _lbl < models[_modelId].labels.length,\"Invalid label\");\r\n        captions.push(Caption(_caption, _modelId, _lbl, _lbl, new uint8[](models[_modelId].labels.length), false, msg.sender, new address[](0)));\r\n    }\r\n\r\n    function notVoted(address _voter, uint _idx) private view returns (bool) {\r\n        for (uint i = 0; i < captions[_idx].voters.length; i++) {\r\n            if (captions[_idx].voters[i] == _voter) {\r\n                return false;\r\n            }\r\n        }\r\n        return true;\r\n    }\r\n\r\n    function refunding(uint _captionId) private {\r\n        payable(captions[_captionId].providerAddr).transfer(captionRefund);\r\n        for (uint i = 0; i < captions[_captionId].voters.length; i++){\r\n            payable(captions[_captionId].voters[i]).transfer(reviewRefund);\r\n        }\r\n    }\r\n\r\n    function reviewCaption(uint _idx, uint8 _lbl, uint _modelId) external payable{\r\n        require(msg.value >= reviewCost,\"Not enough eth\");\r\n        require(captions[_idx].verified == false, \"Cannot review a verified caption\");\r\n        require(msg.sender != captions[_idx].providerAddr, \"Cannot review your own caption\");\r\n        require(_idx < captions.length && _idx >= 0,\"Invalid caption idx\");\r\n        require(_lbl >= 0 && _lbl < models[_modelId].labels.length,\"Invalid label\");\r\n        require(notVoted(msg.sender,_idx),\"Only one vote per account for every caption\");\r\n        captions[_idx].Votes[_lbl] += 1;\r\n        captions[_idx].voters.push(msg.sender);\r\n        if(captions[_idx].Votes[_lbl] == models[_modelId].NumberOfVotes){\r\n            captions[_idx].verified = true;\r\n            captions[_idx].verifiedLabel = _lbl;\r\n            refunding(_idx);\r\n        }\r\n    }\r\n\r\n    function getModels() public view returns( ModelInfo  [] memory){\r\n        return models;\r\n    }\r\n\r\n    function getCaptions() public view returns( Caption  [] memory){\r\n        return captions;\r\n    }\r\n\r\n    function addAccuracy(uint _idx, uint _acc) public{\r\n        models[_idx].accuracy.push(_acc);\r\n    }\r\n\r\n    function updateCaptionTrainStatus(uint[] memory _inputUsedCaptions) public {\r\n        for(uint i = 0; i < _inputUsedCaptions.length ; i++){\r\n            captions[_inputUsedCaptions[i]] = captions[captions.length - 1];\r\n            captions.pop();\r\n        }\r\n    }\r\n\r\n}",
  "sourcePath": "C:\\Users\\Admin\\Documents\\2021-2022\\10 \\\\blockchain-ml\\contracts\\contracts\\CaptionReview.sol",
  "compiler": {
    "name": "solc",
    "version": "0.8.12+commit.f00d7308.Emscripten.clang"
  },
  "schemaVersion": "3.4.4",
  "updatedAt": "2022-06-27T16:15:15.860Z",
  "networkType": "ethereum",
  "devdoc": {
    "kind": "dev",
    "methods": {},
    "version": 1
  },
  "userdoc": {
    "kind": "user",
    "methods": {},
    "version": 1
  }
}