{
  "contractName": "CaptionReview",
  "abi": [
    {
      "inputs": [],
      "stateMutability": "nonpayable",
      "type": "constructor"
    },
    {
      "inputs": [],
      "name": "chairperson",
      "outputs": [
        {
          "internalType": "address",
          "name": "",
          "type": "address"
        }
      ],
      "stateMutability": "view",
      "type": "function",
      "constant": true
    },
    {
      "inputs": [
        {
          "internalType": "string",
          "name": "_name",
          "type": "string"
        },
        {
          "internalType": "string",
          "name": "_description",
          "type": "string"
        },
        {
          "internalType": "uint256",
          "name": "_NumOfVotes",
          "type": "uint256"
        },
        {
          "internalType": "uint256",
          "name": "_NumOfCaptions",
          "type": "uint256"
        },
        {
          "internalType": "uint256",
          "name": "_initialAcc",
          "type": "uint256"
        },
        {
          "internalType": "string[]",
          "name": "labels",
          "type": "string[]"
        }
      ],
      "name": "addModel",
      "outputs": [],
      "stateMutability": "payable",
      "type": "function",
      "payable": true
    },
    {
      "inputs": [
        {
          "internalType": "string",
          "name": "_caption",
          "type": "string"
        },
        {
          "internalType": "uint8",
          "name": "_lbl",
          "type": "uint8"
        },
        {
          "internalType": "uint256",
          "name": "_modelId",
          "type": "uint256"
        }
      ],
      "name": "addCaption",
      "outputs": [],
      "stateMutability": "payable",
      "type": "function",
      "payable": true
    },
    {
      "inputs": [
        {
          "internalType": "uint256",
          "name": "_idx",
          "type": "uint256"
        },
        {
          "internalType": "uint8",
          "name": "_lbl",
          "type": "uint8"
        },
        {
          "internalType": "uint256",
          "name": "_modelId",
          "type": "uint256"
        }
      ],
      "name": "reviewCaption",
      "outputs": [],
      "stateMutability": "payable",
      "type": "function",
      "payable": true
    },
    {
      "inputs": [],
      "name": "getModels",
      "outputs": [
        {
          "components": [
            {
              "internalType": "uint256",
              "name": "id",
              "type": "uint256"
            },
            {
              "internalType": "string",
              "name": "name",
              "type": "string"
            },
            {
              "internalType": "string",
              "name": "description",
              "type": "string"
            },
            {
              "internalType": "uint256",
              "name": "NumberOfVotes",
              "type": "uint256"
            },
            {
              "internalType": "uint256",
              "name": "NumberOfCaptions",
              "type": "uint256"
            },
            {
              "internalType": "string[]",
              "name": "labels",
              "type": "string[]"
            },
            {
              "internalType": "address",
              "name": "modelProviderAddr",
              "type": "address"
            },
            {
              "internalType": "uint256[]",
              "name": "accuracy",
              "type": "uint256[]"
            }
          ],
          "internalType": "struct CaptionReview.ModelInfo[]",
          "name": "",
          "type": "tuple[]"
        }
      ],
      "stateMutability": "view",
      "type": "function",
      "constant": true
    },
    {
      "inputs": [
        {
          "internalType": "uint256",
          "name": "_idx",
          "type": "uint256"
        }
      ],
      "name": "getModel",
      "outputs": [
        {
          "components": [
            {
              "internalType": "uint256",
              "name": "id",
              "type": "uint256"
            },
            {
              "internalType": "string",
              "name": "name",
              "type": "string"
            },
            {
              "internalType": "string",
              "name": "description",
              "type": "string"
            },
            {
              "internalType": "uint256",
              "name": "NumberOfVotes",
              "type": "uint256"
            },
            {
              "internalType": "uint256",
              "name": "NumberOfCaptions",
              "type": "uint256"
            },
            {
              "internalType": "string[]",
              "name": "labels",
              "type": "string[]"
            },
            {
              "internalType": "address",
              "name": "modelProviderAddr",
              "type": "address"
            },
            {
              "internalType": "uint256[]",
              "name": "accuracy",
              "type": "uint256[]"
            }
          ],
          "internalType": "struct CaptionReview.ModelInfo",
          "name": "",
          "type": "tuple"
        }
      ],
      "stateMutability": "view",
      "type": "function",
      "constant": true
    },
    {
      "inputs": [],
      "name": "getCaptions",
      "outputs": [
        {
          "components": [
            {
              "internalType": "string",
              "name": "content",
              "type": "string"
            },
            {
              "internalType": "uint256",
              "name": "modelId",
              "type": "uint256"
            },
            {
              "internalType": "uint8",
              "name": "proposedLabel",
              "type": "uint8"
            },
            {
              "internalType": "uint8",
              "name": "verifiedLabel",
              "type": "uint8"
            },
            {
              "internalType": "uint8[]",
              "name": "Votes",
              "type": "uint8[]"
            },
            {
              "internalType": "bool",
              "name": "verified",
              "type": "bool"
            },
            {
              "internalType": "address",
              "name": "providerAddr",
              "type": "address"
            },
            {
              "internalType": "address[]",
              "name": "voters",
              "type": "address[]"
            },
            {
              "internalType": "bool",
              "name": "trained",
              "type": "bool"
            }
          ],
          "internalType": "struct CaptionReview.Caption[]",
          "name": "",
          "type": "tuple[]"
        }
      ],
      "stateMutability": "view",
      "type": "function",
      "constant": true
    },
    {
      "inputs": [
        {
          "internalType": "uint256",
          "name": "_idx",
          "type": "uint256"
        }
      ],
      "name": "getCaption",
      "outputs": [
        {
          "components": [
            {
              "internalType": "string",
              "name": "content",
              "type": "string"
            },
            {
              "internalType": "uint256",
              "name": "modelId",
              "type": "uint256"
            },
            {
              "internalType": "uint8",
              "name": "proposedLabel",
              "type": "uint8"
            },
            {
              "internalType": "uint8",
              "name": "verifiedLabel",
              "type": "uint8"
            },
            {
              "internalType": "uint8[]",
              "name": "Votes",
              "type": "uint8[]"
            },
            {
              "internalType": "bool",
              "name": "verified",
              "type": "bool"
            },
            {
              "internalType": "address",
              "name": "providerAddr",
              "type": "address"
            },
            {
              "internalType": "address[]",
              "name": "voters",
              "type": "address[]"
            },
            {
              "internalType": "bool",
              "name": "trained",
              "type": "bool"
            }
          ],
          "internalType": "struct CaptionReview.Caption",
          "name": "",
          "type": "tuple"
        }
      ],
      "stateMutability": "view",
      "type": "function",
      "constant": true
    },
    {
      "inputs": [],
      "name": "getCaptionCnt",
      "outputs": [
        {
          "internalType": "uint256",
          "name": "",
          "type": "uint256"
        }
      ],
      "stateMutability": "view",
      "type": "function",
      "constant": true
    },
    {
      "inputs": [
        {
          "internalType": "uint256[]",
          "name": "_usedCaptions",
          "type": "uint256[]"
        }
      ],
      "name": "updateCaptionTrainStatus",
      "outputs": [],
      "stateMutability": "nonpayable",
      "type": "function"
    },
    {
      "inputs": [
        {
          "internalType": "uint256",
          "name": "_idx",
          "type": "uint256"
        },
        {
          "internalType": "uint256",
          "name": "_acc",
          "type": "uint256"
        }
      ],
      "name": "addAccuracy",
      "outputs": [],
      "stateMutability": "nonpayable",
      "type": "function"
    }
  ],
  "bytecode": "0x6080604052600060015534801561001557600080fd5b50336000806101000a81548173ffffffffffffffffffffffffffffffffffffffff021916908373ffffffffffffffffffffffffffffffffffffffff16021790555061356d806100656000396000f3fe60806040526004361061009c5760003560e01c8063948b831d11610064578063948b831d1461019a578063b4416826146101b6578063cbeefb8c146101e1578063d69fca32146101fd578063dcbb34a514610226578063eef9cd3a146102425761009c565b80630257e249146100a157806309817d45146100de5780632e4176cf1461010957806341252ec2146101345780636d3616941461015d575b600080fd5b3480156100ad57600080fd5b506100c860048036038101906100c391906120cf565b61026d565b6040516100d5919061244d565b60405180910390f35b3480156100ea57600080fd5b506100f3610569565b6040516101009190612767565b60405180910390f35b34801561011557600080fd5b5061011e610892565b60405161012b9190612798565b60405180910390f35b34801561014057600080fd5b5061015b600480360381019061015691906127b3565b6108b6565b005b34801561016957600080fd5b50610184600480360381019061017f91906120cf565b610906565b60405161019191906128b8565b60405180910390f35b6101b460048036038101906101af9190612a3b565b610c60565b005b3480156101c257600080fd5b506101cb610fb8565b6040516101d89190612ab9565b60405180910390f35b6101fb60048036038101906101f69190612ad4565b610fc2565b005b34801561020957600080fd5b50610224600480360381019061021f9190612bef565b61146b565b005b610240600480360381019061023b9190612d19565b6114e6565b005b34801561024e57600080fd5b50610257611789565b6040516102649190612f8f565b60405180910390f35b610275611cd9565b60015482108015610287575060008210155b6102c6576040517f08c379a00000000000000000000000000000000000000000000000000000000081526004016102bd9061300e565b60405180910390fd5b600282815481106102da576102d961302e565b5b9060005260206000209060070201604051806101200160405290816000820180546103049061308c565b80601f01602080910402602001604051908101604052809291908181526020018280546103309061308c565b801561037d5780601f106103525761010080835404028352916020019161037d565b820191906000526020600020905b81548152906001019060200180831161036057829003601f168201915b50505050508152602001600182015481526020016002820160009054906101000a900460ff1660ff1660ff1681526020016002820160019054906101000a900460ff1660ff1660ff1681526020016003820180548060200260200160405190810160405280929190818152602001828054801561043f57602002820191906000526020600020906000905b82829054906101000a900460ff1660ff16815260200190600101906020826000010492830192600103820291508084116104085790505b505050505081526020016004820160009054906101000a900460ff161515151581526020016004820160019054906101000a900473ffffffffffffffffffffffffffffffffffffffff1673ffffffffffffffffffffffffffffffffffffffff1673ffffffffffffffffffffffffffffffffffffffff1681526020016005820180548060200260200160405190810160405280929190818152602001828054801561053e57602002820191906000526020600020905b8160009054906101000a900473ffffffffffffffffffffffffffffffffffffffff1673ffffffffffffffffffffffffffffffffffffffff16815260200190600101908083116104f4575b505050505081526020016006820160009054906101000a900460ff1615151515815250509050919050565b60606003805480602002602001604051908101604052809291908181526020016000905b82821015610889578382906000526020600020906008020160405180610100016040529081600082015481526020016001820180546105cb9061308c565b80601f01602080910402602001604051908101604052809291908181526020018280546105f79061308c565b80156106445780601f1061061957610100808354040283529160200191610644565b820191906000526020600020905b81548152906001019060200180831161062757829003601f168201915b5050505050815260200160028201805461065d9061308c565b80601f01602080910402602001604051908101604052809291908181526020018280546106899061308c565b80156106d65780601f106106ab576101008083540402835291602001916106d6565b820191906000526020600020905b8154815290600101906020018083116106b957829003601f168201915b50505050508152602001600382015481526020016004820154815260200160058201805480602002602001604051908101604052809291908181526020016000905b828210156107c45783829060005260206000200180546107379061308c565b80601f01602080910402602001604051908101604052809291908181526020018280546107639061308c565b80156107b05780601f10610785576101008083540402835291602001916107b0565b820191906000526020600020905b81548152906001019060200180831161079357829003601f168201915b505050505081526020019060010190610718565b5050505081526020016006820160009054906101000a900473ffffffffffffffffffffffffffffffffffffffff1673ffffffffffffffffffffffffffffffffffffffff1673ffffffffffffffffffffffffffffffffffffffff1681526020016007820180548060200260200160405190810160405280929190818152602001828054801561087157602002820191906000526020600020905b81548152602001906001019080831161085d575b5050505050815250508152602001906001019061058d565b50505050905090565b60008054906101000a900473ffffffffffffffffffffffffffffffffffffffff1681565b600382815481106108ca576108c961302e565b5b90600052602060002090600802016007018190806001815401808255809150506001900390600052602060002001600090919091909150555050565b61090e611d45565b60038054905082108015610923575060008210155b610962576040517f08c379a00000000000000000000000000000000000000000000000000000000081526004016109599061310a565b60405180910390fd5b600382815481106109765761097561302e565b5b906000526020600020906008020160405180610100016040529081600082015481526020016001820180546109aa9061308c565b80601f01602080910402602001604051908101604052809291908181526020018280546109d69061308c565b8015610a235780601f106109f857610100808354040283529160200191610a23565b820191906000526020600020905b815481529060010190602001808311610a0657829003601f168201915b50505050508152602001600282018054610a3c9061308c565b80601f0160208091040260200160405190810160405280929190818152602001828054610a689061308c565b8015610ab55780601f10610a8a57610100808354040283529160200191610ab5565b820191906000526020600020905b815481529060010190602001808311610a9857829003601f168201915b50505050508152602001600382015481526020016004820154815260200160058201805480602002602001604051908101604052809291908181526020016000905b82821015610ba3578382906000526020600020018054610b169061308c565b80601f0160208091040260200160405190810160405280929190818152602001828054610b429061308c565b8015610b8f5780601f10610b6457610100808354040283529160200191610b8f565b820191906000526020600020905b815481529060010190602001808311610b7257829003601f168201915b505050505081526020019060010190610af7565b5050505081526020016006820160009054906101000a900473ffffffffffffffffffffffffffffffffffffffff1673ffffffffffffffffffffffffffffffffffffffff1673ffffffffffffffffffffffffffffffffffffffff16815260200160078201805480602002602001604051908101604052809291908181526020018280548015610c5057602002820191906000526020600020905b815481526020019060010190808311610c3c575b5050505050815250509050919050565b66038d7ea4c68000341015610caa576040517f08c379a0000000000000000000000000000000000000000000000000000000008152600401610ca190613176565b60405180910390fd5b60008260ff1610158015610ce8575060038181548110610ccd57610ccc61302e565b5b9060005260206000209060080201600501805490508260ff16105b610d27576040517f08c379a0000000000000000000000000000000000000000000000000000000008152600401610d1e906131e2565b60405180910390fd5b60026040518061012001604052808581526020018381526020018460ff1681526020018460ff16815260200160038481548110610d6757610d6661302e565b5b90600052602060002090600802016005018054905067ffffffffffffffff811115610d9557610d946128e4565b5b604051908082528060200260200182016040528015610dc35781602001602082028036833780820191505090505b5081526020016000151581526020013373ffffffffffffffffffffffffffffffffffffffff168152602001600067ffffffffffffffff811115610e0957610e086128e4565b5b604051908082528060200260200182016040528015610e375781602001602082028036833780820191505090505b5081526020016000151581525090806001815401808255809150506001900390600052602060002090600702016000909190919091506000820151816000019080519060200190610e89929190611da0565b506020820151816001015560408201518160020160006101000a81548160ff021916908360ff16021790555060608201518160020160016101000a81548160ff021916908360ff1602179055506080820151816003019080519060200190610ef2929190611e26565b5060a08201518160040160006101000a81548160ff02191690831515021790555060c08201518160040160016101000a81548173ffffffffffffffffffffffffffffffffffffffff021916908373ffffffffffffffffffffffffffffffffffffffff16021790555060e0820151816005019080519060200190610f76929190611ecd565b506101008201518160060160006101000a81548160ff02191690831515021790555050506001806000828254610fac9190613231565b92505081905550505050565b6000600154905090565b66038d7ea4c6800034101561100c576040517f08c379a000000000000000000000000000000000000000000000000000000000815260040161100390613176565b60405180910390fd5b60001515600284815481106110245761102361302e565b5b906000526020600020906007020160040160009054906101000a900460ff16151514611085576040517f08c379a000000000000000000000000000000000000000000000000000000000815260040161107c906132d3565b60405180910390fd5b600283815481106110995761109861302e565b5b906000526020600020906007020160040160019054906101000a900473ffffffffffffffffffffffffffffffffffffffff1673ffffffffffffffffffffffffffffffffffffffff163373ffffffffffffffffffffffffffffffffffffffff161415611139576040517f08c379a00000000000000000000000000000000000000000000000000000000081526004016111309061333f565b60405180910390fd5b6001548310801561114b575060008310155b61118a576040517f08c379a00000000000000000000000000000000000000000000000000000000081526004016111819061300e565b60405180910390fd5b60008260ff16101580156111c85750600381815481106111ad576111ac61302e565b5b9060005260206000209060080201600501805490508260ff16105b611207576040517f08c379a00000000000000000000000000000000000000000000000000000000081526004016111fe906131e2565b60405180910390fd5b6112113384611a57565b611250576040517f08c379a0000000000000000000000000000000000000000000000000000000008152600401611247906133d1565b60405180910390fd5b6001600284815481106112665761126561302e565b5b90600052602060002090600702016003018360ff168154811061128c5761128b61302e565b5b90600052602060002090602091828204019190068282829054906101000a900460ff166112b991906133f1565b92506101000a81548160ff021916908360ff160217905550600283815481106112e5576112e461302e565b5b9060005260206000209060070201600501339080600181540180825580915050600190039060005260206000200160009091909190916101000a81548173ffffffffffffffffffffffffffffffffffffffff021916908373ffffffffffffffffffffffffffffffffffffffff1602179055506003818154811061136b5761136a61302e565b5b906000526020600020906008020160030154600284815481106113915761139061302e565b5b90600052602060002090600702016003018360ff16815481106113b7576113b661302e565b5b90600052602060002090602091828204019190069054906101000a900460ff1660ff161415611466576001600284815481106113f6576113f561302e565b5b906000526020600020906007020160040160006101000a81548160ff02191690831515021790555081600284815481106114335761143261302e565b5b906000526020600020906007020160020160016101000a81548160ff021916908360ff16021790555061146583611b4d565b5b505050565b60005b81518110156114e2576001600283838151811061148e5761148d61302e565b5b6020026020010151815481106114a7576114a661302e565b5b906000526020600020906007020160060160006101000a81548160ff02191690831515021790555080806114da90613428565b91505061146e565b5050565b670de0b6b3a7640000341015611531576040517f08c379a000000000000000000000000000000000000000000000000000000000815260040161152890613176565b60405180910390fd5b6000841180156115415750600083115b611580576040517f08c379a0000000000000000000000000000000000000000000000000000000008152600401611577906134e3565b60405180910390fd5b600360405180610100016040528060038054905081526020018881526020018781526020018681526020018581526020018381526020013373ffffffffffffffffffffffffffffffffffffffff168152602001600067ffffffffffffffff8111156115ee576115ed6128e4565b5b60405190808252806020026020018201604052801561161c5781602001602082028036833780820191505090505b50815250908060018154018082558091505060019003906000526020600020906008020160009091909190915060008201518160000155602082015181600101908051906020019061166f929190611da0565b50604082015181600201908051906020019061168c929190611da0565b50606082015181600301556080820151816004015560a08201518160050190805190602001906116bd929190611f57565b5060c08201518160060160006101000a81548173ffffffffffffffffffffffffffffffffffffffff021916908373ffffffffffffffffffffffffffffffffffffffff16021790555060e0820151816007019080519060200190611721929190611fb7565b505050600360016003805490506117389190613503565b815481106117495761174861302e565b5b9060005260206000209060080201600701829080600181540180825580915050600190039060005260206000200160009091909190915055505050505050565b60606002805480602002602001604051908101604052809291908181526020016000905b82821015611a4e5783829060005260206000209060070201604051806101200160405290816000820180546117e19061308c565b80601f016020809104026020016040519081016040528092919081815260200182805461180d9061308c565b801561185a5780601f1061182f5761010080835404028352916020019161185a565b820191906000526020600020905b81548152906001019060200180831161183d57829003601f168201915b50505050508152602001600182015481526020016002820160009054906101000a900460ff1660ff1660ff1681526020016002820160019054906101000a900460ff1660ff1660ff1681526020016003820180548060200260200160405190810160405280929190818152602001828054801561191c57602002820191906000526020600020906000905b82829054906101000a900460ff1660ff16815260200190600101906020826000010492830192600103820291508084116118e55790505b505050505081526020016004820160009054906101000a900460ff161515151581526020016004820160019054906101000a900473ffffffffffffffffffffffffffffffffffffffff1673ffffffffffffffffffffffffffffffffffffffff1673ffffffffffffffffffffffffffffffffffffffff16815260200160058201805480602002602001604051908101604052809291908181526020018280548015611a1b57602002820191906000526020600020905b8160009054906101000a900473ffffffffffffffffffffffffffffffffffffffff1673ffffffffffffffffffffffffffffffffffffffff16815260200190600101908083116119d1575b505050505081526020016006820160009054906101000a900460ff161515151581525050815260200190600101906117ad565b50505050905090565b600080600090505b60028381548110611a7357611a7261302e565b5b906000526020600020906007020160050180549050811015611b41578373ffffffffffffffffffffffffffffffffffffffff1660028481548110611aba57611ab961302e565b5b90600052602060002090600702016005018281548110611add57611adc61302e565b5b9060005260206000200160009054906101000a900473ffffffffffffffffffffffffffffffffffffffff1673ffffffffffffffffffffffffffffffffffffffff161415611b2e576000915050611b47565b8080611b3990613428565b915050611a5f565b50600190505b92915050565b60028181548110611b6157611b6061302e565b5b906000526020600020906007020160040160019054906101000a900473ffffffffffffffffffffffffffffffffffffffff1673ffffffffffffffffffffffffffffffffffffffff166108fc662386f26fc100009081150290604051600060405180830381858888f19350505050158015611bdf573d6000803e3d6000fd5b5060005b60028281548110611bf757611bf661302e565b5b906000526020600020906007020160050180549050811015611cd55760028281548110611c2757611c2661302e565b5b90600052602060002090600702016005018181548110611c4a57611c4961302e565b5b9060005260206000200160009054906101000a900473ffffffffffffffffffffffffffffffffffffffff1673ffffffffffffffffffffffffffffffffffffffff166108fc662386f26fc100009081150290604051600060405180830381858888f19350505050158015611cc1573d6000803e3d6000fd5b508080611ccd90613428565b915050611be3565b5050565b6040518061012001604052806060815260200160008152602001600060ff168152602001600060ff16815260200160608152602001600015158152602001600073ffffffffffffffffffffffffffffffffffffffff168152602001606081526020016000151581525090565b604051806101000160405280600081526020016060815260200160608152602001600081526020016000815260200160608152602001600073ffffffffffffffffffffffffffffffffffffffff168152602001606081525090565b828054611dac9061308c565b90600052602060002090601f016020900481019282611dce5760008555611e15565b82601f10611de757805160ff1916838001178555611e15565b82800160010185558215611e15579182015b82811115611e14578251825591602001919060010190611df9565b5b509050611e229190612004565b5090565b82805482825590600052602060002090601f01602090048101928215611ebc5791602002820160005b83821115611e8d57835183826101000a81548160ff021916908360ff1602179055509260200192600101602081600001049283019260010302611e4f565b8015611eba5782816101000a81549060ff0219169055600101602081600001049283019260010302611e8d565b505b509050611ec99190612004565b5090565b828054828255906000526020600020908101928215611f46579160200282015b82811115611f455782518260006101000a81548173ffffffffffffffffffffffffffffffffffffffff021916908373ffffffffffffffffffffffffffffffffffffffff16021790555091602001919060010190611eed565b5b509050611f539190612004565b5090565b828054828255906000526020600020908101928215611fa6579160200282015b82811115611fa5578251829080519060200190611f95929190611da0565b5091602001919060010190611f77565b5b509050611fb39190612021565b5090565b828054828255906000526020600020908101928215611ff3579160200282015b82811115611ff2578251825591602001919060010190611fd7565b5b5090506120009190612004565b5090565b5b8082111561201d576000816000905550600101612005565b5090565b5b8082111561204157600081816120389190612045565b50600101612022565b5090565b5080546120519061308c565b6000825580601f106120635750612082565b601f0160209004906000526020600020908101906120819190612004565b5b50565b6000604051905090565b600080fd5b600080fd5b6000819050919050565b6120ac81612099565b81146120b757600080fd5b50565b6000813590506120c9816120a3565b92915050565b6000602082840312156120e5576120e461208f565b5b60006120f3848285016120ba565b91505092915050565b600081519050919050565b600082825260208201905092915050565b60005b8381101561213657808201518184015260208101905061211b565b83811115612145576000848401525b50505050565b6000601f19601f8301169050919050565b6000612167826120fc565b6121718185612107565b9350612181818560208601612118565b61218a8161214b565b840191505092915050565b61219e81612099565b82525050565b600060ff82169050919050565b6121ba816121a4565b82525050565b600081519050919050565b600082825260208201905092915050565b6000819050602082019050919050565b60006121f883836121b1565b60208301905092915050565b6000602082019050919050565b600061221c826121c0565b61222681856121cb565b9350612231836121dc565b8060005b8381101561226257815161224988826121ec565b975061225483612204565b925050600181019050612235565b5085935050505092915050565b60008115159050919050565b6122848161226f565b82525050565b600073ffffffffffffffffffffffffffffffffffffffff82169050919050565b60006122b58261228a565b9050919050565b6122c5816122aa565b82525050565b600081519050919050565b600082825260208201905092915050565b6000819050602082019050919050565b600061230383836122bc565b60208301905092915050565b6000602082019050919050565b6000612327826122cb565b61233181856122d6565b935061233c836122e7565b8060005b8381101561236d57815161235488826122f7565b975061235f8361230f565b925050600181019050612340565b5085935050505092915050565b6000610120830160008301518482036000860152612398828261215c565b91505060208301516123ad6020860182612195565b5060408301516123c060408601826121b1565b5060608301516123d360608601826121b1565b50608083015184820360808601526123eb8282612211565b91505060a083015161240060a086018261227b565b5060c083015161241360c08601826122bc565b5060e083015184820360e086015261242b828261231c565b91505061010083015161244261010086018261227b565b508091505092915050565b60006020820190508181036000830152612467818461237a565b905092915050565b600081519050919050565b600082825260208201905092915050565b6000819050602082019050919050565b600081519050919050565b600082825260208201905092915050565b6000819050602082019050919050565b60006124d3838361215c565b905092915050565b6000602082019050919050565b60006124f38261249b565b6124fd81856124a6565b93508360208202850161250f856124b7565b8060005b8581101561254b578484038952815161252c85826124c7565b9450612537836124db565b925060208a01995050600181019050612513565b50829750879550505050505092915050565b600081519050919050565b600082825260208201905092915050565b6000819050602082019050919050565b60006125958383612195565b60208301905092915050565b6000602082019050919050565b60006125b98261255d565b6125c38185612568565b93506125ce83612579565b8060005b838110156125ff5781516125e68882612589565b97506125f1836125a1565b9250506001810190506125d2565b5085935050505092915050565b6000610100830160008301516126256000860182612195565b506020830151848203602086015261263d828261215c565b91505060408301518482036040860152612657828261215c565b915050606083015161266c6060860182612195565b50608083015161267f6080860182612195565b5060a083015184820360a086015261269782826124e8565b91505060c08301516126ac60c08601826122bc565b5060e083015184820360e08601526126c482826125ae565b9150508091505092915050565b60006126dd838361260c565b905092915050565b6000602082019050919050565b60006126fd8261246f565b612707818561247a565b9350836020820285016127198561248b565b8060005b85811015612755578484038952815161273685826126d1565b9450612741836126e5565b925060208a0199505060018101905061271d565b50829750879550505050505092915050565b6000602082019050818103600083015261278181846126f2565b905092915050565b612792816122aa565b82525050565b60006020820190506127ad6000830184612789565b92915050565b600080604083850312156127ca576127c961208f565b5b60006127d8858286016120ba565b92505060206127e9858286016120ba565b9150509250929050565b60006101008301600083015161280c6000860182612195565b5060208301518482036020860152612824828261215c565b9150506040830151848203604086015261283e828261215c565b91505060608301516128536060860182612195565b5060808301516128666080860182612195565b5060a083015184820360a086015261287e82826124e8565b91505060c083015161289360c08601826122bc565b5060e083015184820360e08601526128ab82826125ae565b9150508091505092915050565b600060208201905081810360008301526128d281846127f3565b905092915050565b600080fd5b600080fd5b7f4e487b7100000000000000000000000000000000000000000000000000000000600052604160045260246000fd5b61291c8261214b565b810181811067ffffffffffffffff8211171561293b5761293a6128e4565b5b80604052505050565b600061294e612085565b905061295a8282612913565b919050565b600067ffffffffffffffff82111561297a576129796128e4565b5b6129838261214b565b9050602081019050919050565b82818337600083830152505050565b60006129b26129ad8461295f565b612944565b9050828152602081018484840111156129ce576129cd6128df565b5b6129d9848285612990565b509392505050565b600082601f8301126129f6576129f56128da565b5b8135612a0684826020860161299f565b91505092915050565b612a18816121a4565b8114612a2357600080fd5b50565b600081359050612a3581612a0f565b92915050565b600080600060608486031215612a5457612a5361208f565b5b600084013567ffffffffffffffff811115612a7257612a71612094565b5b612a7e868287016129e1565b9350506020612a8f86828701612a26565b9250506040612aa0868287016120ba565b9150509250925092565b612ab381612099565b82525050565b6000602082019050612ace6000830184612aaa565b92915050565b600080600060608486031215612aed57612aec61208f565b5b6000612afb868287016120ba565b9350506020612b0c86828701612a26565b9250506040612b1d868287016120ba565b9150509250925092565b600067ffffffffffffffff821115612b4257612b416128e4565b5b602082029050602081019050919050565b600080fd5b6000612b6b612b6684612b27565b612944565b90508083825260208201905060208402830185811115612b8e57612b8d612b53565b5b835b81811015612bb75780612ba388826120ba565b845260208401935050602081019050612b90565b5050509392505050565b600082601f830112612bd657612bd56128da565b5b8135612be6848260208601612b58565b91505092915050565b600060208284031215612c0557612c0461208f565b5b600082013567ffffffffffffffff811115612c2357612c22612094565b5b612c2f84828501612bc1565b91505092915050565b600067ffffffffffffffff821115612c5357612c526128e4565b5b602082029050602081019050919050565b6000612c77612c7284612c38565b612944565b90508083825260208201905060208402830185811115612c9a57612c99612b53565b5b835b81811015612ce157803567ffffffffffffffff811115612cbf57612cbe6128da565b5b808601612ccc89826129e1565b85526020850194505050602081019050612c9c565b5050509392505050565b600082601f830112612d0057612cff6128da565b5b8135612d10848260208601612c64565b91505092915050565b60008060008060008060c08789031215612d3657612d3561208f565b5b600087013567ffffffffffffffff811115612d5457612d53612094565b5b612d6089828a016129e1565b965050602087013567ffffffffffffffff811115612d8157612d80612094565b5b612d8d89828a016129e1565b9550506040612d9e89828a016120ba565b9450506060612daf89828a016120ba565b9350506080612dc089828a016120ba565b92505060a087013567ffffffffffffffff811115612de157612de0612094565b5b612ded89828a01612ceb565b9150509295509295509295565b600081519050919050565b600082825260208201905092915050565b6000819050602082019050919050565b6000610120830160008301518482036000860152612e44828261215c565b9150506020830151612e596020860182612195565b506040830151612e6c60408601826121b1565b506060830151612e7f60608601826121b1565b5060808301518482036080860152612e978282612211565b91505060a0830151612eac60a086018261227b565b5060c0830151612ebf60c08601826122bc565b5060e083015184820360e0860152612ed7828261231c565b915050610100830151612eee61010086018261227b565b508091505092915050565b6000612f058383612e26565b905092915050565b6000602082019050919050565b6000612f2582612dfa565b612f2f8185612e05565b935083602082028501612f4185612e16565b8060005b85811015612f7d5784840389528151612f5e8582612ef9565b9450612f6983612f0d565b925060208a01995050600181019050612f45565b50829750879550505050505092915050565b60006020820190508181036000830152612fa98184612f1a565b905092915050565b600082825260208201905092915050565b7f496e76616c69642063617074696f6e2069647800000000000000000000000000600082015250565b6000612ff8601383612fb1565b915061300382612fc2565b602082019050919050565b6000602082019050818103600083015261302781612feb565b9050919050565b7f4e487b7100000000000000000000000000000000000000000000000000000000600052603260045260246000fd5b7f4e487b7100000000000000000000000000000000000000000000000000000000600052602260045260246000fd5b600060028204905060018216806130a457607f821691505b602082108114156130b8576130b761305d565b5b50919050565b7f496e76616c6964206d6f64656c20696478000000000000000000000000000000600082015250565b60006130f4601183612fb1565b91506130ff826130be565b602082019050919050565b60006020820190508181036000830152613123816130e7565b9050919050565b7f4e6f7420656e6f75676820657468000000000000000000000000000000000000600082015250565b6000613160600e83612fb1565b915061316b8261312a565b602082019050919050565b6000602082019050818103600083015261318f81613153565b9050919050565b7f496e76616c6964206c6162656c00000000000000000000000000000000000000600082015250565b60006131cc600d83612fb1565b91506131d782613196565b602082019050919050565b600060208201905081810360008301526131fb816131bf565b9050919050565b7f4e487b7100000000000000000000000000000000000000000000000000000000600052601160045260246000fd5b600061323c82612099565b915061324783612099565b9250827fffffffffffffffffffffffffffffffffffffffffffffffffffffffffffffffff0382111561327c5761327b613202565b5b828201905092915050565b7f43616e6e6f742072657669657720612076657269666965642063617074696f6e600082015250565b60006132bd602083612fb1565b91506132c882613287565b602082019050919050565b600060208201905081810360008301526132ec816132b0565b9050919050565b7f43616e6e6f742072657669657720796f7572206f776e2063617074696f6e0000600082015250565b6000613329601e83612fb1565b9150613334826132f3565b602082019050919050565b600060208201905081810360008301526133588161331c565b9050919050565b7f4f6e6c79206f6e6520766f746520706572206163636f756e7420666f7220657660008201527f6572792063617074696f6e000000000000000000000000000000000000000000602082015250565b60006133bb602b83612fb1565b91506133c68261335f565b604082019050919050565b600060208201905081810360008301526133ea816133ae565b9050919050565b60006133fc826121a4565b9150613407836121a4565b92508260ff0382111561341d5761341c613202565b5b828201905092915050565b600061343382612099565b91507fffffffffffffffffffffffffffffffffffffffffffffffffffffffffffffffff82141561346657613465613202565b5b600182019050919050565b7f496e76616c6964204e756d626572206f6620566f746573206f7220436170746960008201527f6f6e730000000000000000000000000000000000000000000000000000000000602082015250565b60006134cd602383612fb1565b91506134d882613471565b604082019050919050565b600060208201905081810360008301526134fc816134c0565b9050919050565b600061350e82612099565b915061351983612099565b92508282101561352c5761352b613202565b5b82820390509291505056fea264697066735822122044849c3de78300dd4bc91b92970921f9c31bd780f9edb24ab75189177d6dd33264736f6c634300080c0033",
  "immutableReferences": {},
  "source": "// SPDX-License-Identifier: MIT\r\npragma solidity >=0.4.22 <0.9.0;\r\n\r\ncontract CaptionReview {\r\n    address public chairperson;\r\n    uint captionCnt = 0;\r\n    uint constant modelCost = 1e18;\r\n    uint constant captionCost = 1e15;\r\n    uint constant reviewCost = 1e15;\r\n    uint constant captionRefund = 1e16;\r\n    uint constant reviewRefund = 1e16;\r\n\r\n    struct Caption{\r\n        string content;\r\n        uint256 modelId;\r\n        uint8 proposedLabel;\r\n        uint8 verifiedLabel;\r\n        uint8[] Votes;\r\n        bool verified;\r\n        address providerAddr;\r\n        address[] voters;\r\n        bool trained;\r\n    }\r\n\r\n    struct ModelInfo{\r\n        uint256 id;\r\n        string name;\r\n        string description;\r\n        uint256 NumberOfVotes;\r\n        uint256 NumberOfCaptions;\r\n        string[] labels;\r\n        address modelProviderAddr;\r\n        uint256[] accuracy;\r\n    }\r\n\r\n    Caption[] captions;\r\n\r\n    ModelInfo[] models;\r\n\r\n    constructor(){\r\n        chairperson = msg.sender;\r\n    }\r\n\r\n    function addModel(string memory _name, string memory _description, uint _NumOfVotes, uint _NumOfCaptions, uint _initialAcc, string[] memory labels) external payable{\r\n        require(msg.value >= modelCost,\"Not enough eth\");\r\n        require(_NumOfVotes > 0 && _NumOfCaptions > 0,\"Invalid Number of Votes or Captions\");\r\n        models.push(ModelInfo(models.length, _name, _description, _NumOfVotes, _NumOfCaptions, labels, msg.sender, new uint[](0)));\r\n        models[(models.length)-1].accuracy.push(_initialAcc);\r\n    }\r\n\r\n    function addCaption(string memory _caption, uint8 _lbl, uint _modelId) external payable{\r\n        require(msg.value >= captionCost,\"Not enough eth\");\r\n        require(_lbl >= 0 && _lbl < models[_modelId].labels.length,\"Invalid label\");\r\n        captions.push(Caption(_caption, _modelId, _lbl, _lbl, new uint8[](models[_modelId].labels.length), false, msg.sender, new address[](0), false));\r\n        captionCnt += 1;\r\n    }\r\n\r\n    function notVoted(address _voter, uint _idx) private view returns (bool) {\r\n        for (uint i = 0; i < captions[_idx].voters.length; i++) {\r\n            if (captions[_idx].voters[i] == _voter) {\r\n                return false;\r\n            }\r\n        }\r\n        return true;\r\n    }\r\n\r\n    function refunding(uint _captionId) private {\r\n        payable(captions[_captionId].providerAddr).transfer(captionRefund);\r\n        for (uint i = 0; i < captions[_captionId].voters.length; i++){\r\n            payable(captions[_captionId].voters[i]).transfer(reviewRefund);\r\n        }\r\n    }\r\n\r\n    function reviewCaption(uint _idx, uint8 _lbl, uint _modelId) external payable{\r\n        require(msg.value >= reviewCost,\"Not enough eth\");\r\n        require(captions[_idx].verified == false, \"Cannot review a verified caption\");\r\n        require(msg.sender != captions[_idx].providerAddr, \"Cannot review your own caption\");\r\n        require(_idx < captionCnt && _idx >= 0,\"Invalid caption idx\");\r\n        require(_lbl >= 0 && _lbl < models[_modelId].labels.length,\"Invalid label\");\r\n        require(notVoted(msg.sender,_idx),\"Only one vote per account for every caption\");\r\n        captions[_idx].Votes[_lbl] += 1;\r\n        captions[_idx].voters.push(msg.sender);\r\n        if(captions[_idx].Votes[_lbl] == models[_modelId].NumberOfVotes){\r\n            captions[_idx].verified = true;\r\n            captions[_idx].verifiedLabel = _lbl;\r\n            refunding(_idx);\r\n        }\r\n    }\r\n\r\n    function getModels() public view returns( ModelInfo  [] memory){\r\n        return models;\r\n    }\r\n\r\n    function getModel(uint _idx) public view returns (ModelInfo memory) {\r\n        require(_idx < models.length && _idx >= 0,\"Invalid model idx\");\r\n    \treturn models[_idx];\r\n    }\r\n\r\n    function getCaptions() public view returns( Caption  [] memory){\r\n        return captions;\r\n    }\r\n\r\n    function getCaption(uint _idx) public view returns (Caption memory) {\r\n        require(_idx < captionCnt && _idx >= 0,\"Invalid caption idx\");\r\n    \treturn captions[_idx];\r\n    }\r\n\r\n    function getCaptionCnt() public view returns (uint){\r\n        return(captionCnt);\r\n    }\r\n\r\n    function updateCaptionTrainStatus(uint[] memory _usedCaptions) public {\r\n        for(uint i = 0; i < _usedCaptions.length ; i++){\r\n            captions[_usedCaptions[i]].trained = true;\r\n        }\r\n    }\r\n\r\n    function addAccuracy(uint _idx, uint _acc) public{\r\n        models[_idx].accuracy.push(_acc);\r\n    }\r\n\r\n}",
  "sourcePath": "C:\\Users\\Admin\\Documents\\2021-2022\\10 \\\\blockchain-ml\\contracts\\contracts\\CaptionReview.sol",
  "compiler": {
    "name": "solc",
    "version": "0.8.12+commit.f00d7308.Emscripten.clang"
  },
  "schemaVersion": "3.4.4",
  "updatedAt": "2022-06-17T09:35:53.901Z",
  "networkType": "ethereum",
  "devdoc": {
    "kind": "dev",
    "methods": {},
    "version": 1
  },
  "userdoc": {
    "kind": "user",
    "methods": {},
    "version": 1
  }
}