{
  "contractName": "CaptionReview",
  "abi": [
    {
      "inputs": [],
      "stateMutability": "nonpayable",
      "type": "constructor"
    },
    {
      "inputs": [],
      "name": "chairperson",
      "outputs": [
        {
          "internalType": "address",
          "name": "",
          "type": "address"
        }
      ],
      "stateMutability": "view",
      "type": "function",
      "constant": true
    },
    {
      "inputs": [
        {
          "internalType": "string",
          "name": "_name",
          "type": "string"
        },
        {
          "internalType": "string",
          "name": "_description",
          "type": "string"
        },
        {
          "internalType": "uint256",
          "name": "_NumOfVotes",
          "type": "uint256"
        },
        {
          "internalType": "uint256",
          "name": "_NumOfCaptions",
          "type": "uint256"
        },
        {
          "internalType": "string[]",
          "name": "labels",
          "type": "string[]"
        }
      ],
      "name": "addModel",
      "outputs": [],
      "stateMutability": "payable",
      "type": "function",
      "payable": true
    },
    {
      "inputs": [
        {
          "internalType": "string",
          "name": "_caption",
          "type": "string"
        },
        {
          "internalType": "uint8",
          "name": "_lbl",
          "type": "uint8"
        },
        {
          "internalType": "uint256",
          "name": "_modelId",
          "type": "uint256"
        }
      ],
      "name": "addCaption",
      "outputs": [],
      "stateMutability": "payable",
      "type": "function",
      "payable": true
    },
    {
      "inputs": [
        {
          "internalType": "uint256",
          "name": "_idx",
          "type": "uint256"
        },
        {
          "internalType": "uint8",
          "name": "_lbl",
          "type": "uint8"
        },
        {
          "internalType": "uint256",
          "name": "_modelId",
          "type": "uint256"
        }
      ],
      "name": "reviewCaption",
      "outputs": [],
      "stateMutability": "payable",
      "type": "function",
      "payable": true
    },
    {
      "inputs": [],
      "name": "getModels",
      "outputs": [
        {
          "components": [
            {
              "internalType": "uint256",
              "name": "id",
              "type": "uint256"
            },
            {
              "internalType": "string",
              "name": "name",
              "type": "string"
            },
            {
              "internalType": "string",
              "name": "description",
              "type": "string"
            },
            {
              "internalType": "uint256",
              "name": "NumberOfVotes",
              "type": "uint256"
            },
            {
              "internalType": "uint256",
              "name": "NumberOfCaptions",
              "type": "uint256"
            },
            {
              "internalType": "string[]",
              "name": "labels",
              "type": "string[]"
            },
            {
              "internalType": "address",
              "name": "modelProviderAddr",
              "type": "address"
            },
            {
              "internalType": "uint256[]",
              "name": "accuracy",
              "type": "uint256[]"
            }
          ],
          "internalType": "struct CaptionReview.ModelInfo[]",
          "name": "",
          "type": "tuple[]"
        }
      ],
      "stateMutability": "view",
      "type": "function",
      "constant": true
    },
    {
      "inputs": [
        {
          "internalType": "uint256",
          "name": "_idx",
          "type": "uint256"
        }
      ],
      "name": "getModel",
      "outputs": [
        {
          "components": [
            {
              "internalType": "uint256",
              "name": "id",
              "type": "uint256"
            },
            {
              "internalType": "string",
              "name": "name",
              "type": "string"
            },
            {
              "internalType": "string",
              "name": "description",
              "type": "string"
            },
            {
              "internalType": "uint256",
              "name": "NumberOfVotes",
              "type": "uint256"
            },
            {
              "internalType": "uint256",
              "name": "NumberOfCaptions",
              "type": "uint256"
            },
            {
              "internalType": "string[]",
              "name": "labels",
              "type": "string[]"
            },
            {
              "internalType": "address",
              "name": "modelProviderAddr",
              "type": "address"
            },
            {
              "internalType": "uint256[]",
              "name": "accuracy",
              "type": "uint256[]"
            }
          ],
          "internalType": "struct CaptionReview.ModelInfo",
          "name": "",
          "type": "tuple"
        }
      ],
      "stateMutability": "view",
      "type": "function",
      "constant": true
    },
    {
      "inputs": [],
      "name": "getCaptions",
      "outputs": [
        {
          "components": [
            {
              "internalType": "string",
              "name": "content",
              "type": "string"
            },
            {
              "internalType": "uint256",
              "name": "modelId",
              "type": "uint256"
            },
            {
              "internalType": "uint8",
              "name": "proposedLabel",
              "type": "uint8"
            },
            {
              "internalType": "uint8",
              "name": "verifiedLabel",
              "type": "uint8"
            },
            {
              "internalType": "uint8[]",
              "name": "Votes",
              "type": "uint8[]"
            },
            {
              "internalType": "bool",
              "name": "verified",
              "type": "bool"
            },
            {
              "internalType": "address",
              "name": "providerAddr",
              "type": "address"
            },
            {
              "internalType": "address[]",
              "name": "voters",
              "type": "address[]"
            },
            {
              "internalType": "bool",
              "name": "trained",
              "type": "bool"
            }
          ],
          "internalType": "struct CaptionReview.Caption[]",
          "name": "",
          "type": "tuple[]"
        }
      ],
      "stateMutability": "view",
      "type": "function",
      "constant": true
    },
    {
      "inputs": [
        {
          "internalType": "uint256",
          "name": "_idx",
          "type": "uint256"
        }
      ],
      "name": "getCaption",
      "outputs": [
        {
          "components": [
            {
              "internalType": "string",
              "name": "content",
              "type": "string"
            },
            {
              "internalType": "uint256",
              "name": "modelId",
              "type": "uint256"
            },
            {
              "internalType": "uint8",
              "name": "proposedLabel",
              "type": "uint8"
            },
            {
              "internalType": "uint8",
              "name": "verifiedLabel",
              "type": "uint8"
            },
            {
              "internalType": "uint8[]",
              "name": "Votes",
              "type": "uint8[]"
            },
            {
              "internalType": "bool",
              "name": "verified",
              "type": "bool"
            },
            {
              "internalType": "address",
              "name": "providerAddr",
              "type": "address"
            },
            {
              "internalType": "address[]",
              "name": "voters",
              "type": "address[]"
            },
            {
              "internalType": "bool",
              "name": "trained",
              "type": "bool"
            }
          ],
          "internalType": "struct CaptionReview.Caption",
          "name": "",
          "type": "tuple"
        }
      ],
      "stateMutability": "view",
      "type": "function",
      "constant": true
    },
    {
      "inputs": [],
      "name": "getCaptionCnt",
      "outputs": [
        {
          "internalType": "uint256",
          "name": "",
          "type": "uint256"
        }
      ],
      "stateMutability": "view",
      "type": "function",
      "constant": true
    },
    {
      "inputs": [
        {
          "internalType": "uint256[]",
          "name": "_usedCaptions",
          "type": "uint256[]"
        }
      ],
      "name": "updateCaptionTrainStatus",
      "outputs": [],
      "stateMutability": "nonpayable",
      "type": "function"
    },
    {
      "inputs": [
        {
          "internalType": "uint256",
          "name": "_idx",
          "type": "uint256"
        },
        {
          "internalType": "uint256",
          "name": "_acc",
          "type": "uint256"
        }
      ],
      "name": "addAccuracy",
      "outputs": [],
      "stateMutability": "nonpayable",
      "type": "function"
    }
  ],
  "bytecode": "0x6080604052600060015534801561001557600080fd5b50336000806101000a81548173ffffffffffffffffffffffffffffffffffffffff021916908373ffffffffffffffffffffffffffffffffffffffff1602179055506134c9806100656000396000f3fe60806040526004361061009c5760003560e01c8063789446b811610064578063789446b81461019a578063948b831d146101b6578063b4416826146101d2578063cbeefb8c146101fd578063d69fca3214610219578063eef9cd3a146102425761009c565b80630257e249146100a157806309817d45146100de5780632e4176cf1461010957806341252ec2146101345780636d3616941461015d575b600080fd5b3480156100ad57600080fd5b506100c860048036038101906100c39190612071565b61026d565b6040516100d591906123ef565b60405180910390f35b3480156100ea57600080fd5b506100f3610569565b6040516101009190612709565b60405180910390f35b34801561011557600080fd5b5061011e610892565b60405161012b919061273a565b60405180910390f35b34801561014057600080fd5b5061015b60048036038101906101569190612755565b6108b6565b005b34801561016957600080fd5b50610184600480360381019061017f9190612071565b610906565b604051610191919061285a565b60405180910390f35b6101b460048036038101906101af9190612a97565b610c60565b005b6101d060048036038101906101cb9190612b92565b610ea5565b005b3480156101de57600080fd5b506101e76111fd565b6040516101f49190612c10565b60405180910390f35b61021760048036038101906102129190612c2b565b611207565b005b34801561022557600080fd5b50610240600480360381019061023b9190612d41565b6116b0565b005b34801561024e57600080fd5b5061025761172b565b6040516102649190612f1f565b60405180910390f35b610275611c7b565b60015482108015610287575060008210155b6102c6576040517f08c379a00000000000000000000000000000000000000000000000000000000081526004016102bd90612f9e565b60405180910390fd5b600282815481106102da576102d9612fbe565b5b9060005260206000209060070201604051806101200160405290816000820180546103049061301c565b80601f01602080910402602001604051908101604052809291908181526020018280546103309061301c565b801561037d5780601f106103525761010080835404028352916020019161037d565b820191906000526020600020905b81548152906001019060200180831161036057829003601f168201915b50505050508152602001600182015481526020016002820160009054906101000a900460ff1660ff1660ff1681526020016002820160019054906101000a900460ff1660ff1660ff1681526020016003820180548060200260200160405190810160405280929190818152602001828054801561043f57602002820191906000526020600020906000905b82829054906101000a900460ff1660ff16815260200190600101906020826000010492830192600103820291508084116104085790505b505050505081526020016004820160009054906101000a900460ff161515151581526020016004820160019054906101000a900473ffffffffffffffffffffffffffffffffffffffff1673ffffffffffffffffffffffffffffffffffffffff1673ffffffffffffffffffffffffffffffffffffffff1681526020016005820180548060200260200160405190810160405280929190818152602001828054801561053e57602002820191906000526020600020905b8160009054906101000a900473ffffffffffffffffffffffffffffffffffffffff1673ffffffffffffffffffffffffffffffffffffffff16815260200190600101908083116104f4575b505050505081526020016006820160009054906101000a900460ff1615151515815250509050919050565b60606003805480602002602001604051908101604052809291908181526020016000905b82821015610889578382906000526020600020906008020160405180610100016040529081600082015481526020016001820180546105cb9061301c565b80601f01602080910402602001604051908101604052809291908181526020018280546105f79061301c565b80156106445780601f1061061957610100808354040283529160200191610644565b820191906000526020600020905b81548152906001019060200180831161062757829003601f168201915b5050505050815260200160028201805461065d9061301c565b80601f01602080910402602001604051908101604052809291908181526020018280546106899061301c565b80156106d65780601f106106ab576101008083540402835291602001916106d6565b820191906000526020600020905b8154815290600101906020018083116106b957829003601f168201915b50505050508152602001600382015481526020016004820154815260200160058201805480602002602001604051908101604052809291908181526020016000905b828210156107c45783829060005260206000200180546107379061301c565b80601f01602080910402602001604051908101604052809291908181526020018280546107639061301c565b80156107b05780601f10610785576101008083540402835291602001916107b0565b820191906000526020600020905b81548152906001019060200180831161079357829003601f168201915b505050505081526020019060010190610718565b5050505081526020016006820160009054906101000a900473ffffffffffffffffffffffffffffffffffffffff1673ffffffffffffffffffffffffffffffffffffffff1673ffffffffffffffffffffffffffffffffffffffff1681526020016007820180548060200260200160405190810160405280929190818152602001828054801561087157602002820191906000526020600020905b81548152602001906001019080831161085d575b5050505050815250508152602001906001019061058d565b50505050905090565b60008054906101000a900473ffffffffffffffffffffffffffffffffffffffff1681565b600382815481106108ca576108c9612fbe565b5b90600052602060002090600802016007018190806001815401808255809150506001900390600052602060002001600090919091909150555050565b61090e611ce7565b60038054905082108015610923575060008210155b610962576040517f08c379a00000000000000000000000000000000000000000000000000000000081526004016109599061309a565b60405180910390fd5b6003828154811061097657610975612fbe565b5b906000526020600020906008020160405180610100016040529081600082015481526020016001820180546109aa9061301c565b80601f01602080910402602001604051908101604052809291908181526020018280546109d69061301c565b8015610a235780601f106109f857610100808354040283529160200191610a23565b820191906000526020600020905b815481529060010190602001808311610a0657829003601f168201915b50505050508152602001600282018054610a3c9061301c565b80601f0160208091040260200160405190810160405280929190818152602001828054610a689061301c565b8015610ab55780601f10610a8a57610100808354040283529160200191610ab5565b820191906000526020600020905b815481529060010190602001808311610a9857829003601f168201915b50505050508152602001600382015481526020016004820154815260200160058201805480602002602001604051908101604052809291908181526020016000905b82821015610ba3578382906000526020600020018054610b169061301c565b80601f0160208091040260200160405190810160405280929190818152602001828054610b429061301c565b8015610b8f5780601f10610b6457610100808354040283529160200191610b8f565b820191906000526020600020905b815481529060010190602001808311610b7257829003601f168201915b505050505081526020019060010190610af7565b5050505081526020016006820160009054906101000a900473ffffffffffffffffffffffffffffffffffffffff1673ffffffffffffffffffffffffffffffffffffffff1673ffffffffffffffffffffffffffffffffffffffff16815260200160078201805480602002602001604051908101604052809291908181526020018280548015610c5057602002820191906000526020600020905b815481526020019060010190808311610c3c575b5050505050815250509050919050565b670de0b6b3a7640000341015610cab576040517f08c379a0000000000000000000000000000000000000000000000000000000008152600401610ca290613106565b60405180910390fd5b600083118015610cbb5750600082115b610cfa576040517f08c379a0000000000000000000000000000000000000000000000000000000008152600401610cf190613198565b60405180910390fd5b600360405180610100016040528060038054905081526020018781526020018681526020018581526020018481526020018381526020013373ffffffffffffffffffffffffffffffffffffffff168152602001600067ffffffffffffffff811115610d6857610d67612886565b5b604051908082528060200260200182016040528015610d965781602001602082028036833780820191505090505b508152509080600181540180825580915050600190039060005260206000209060080201600090919091909150600082015181600001556020820151816001019080519060200190610de9929190611d42565b506040820151816002019080519060200190610e06929190611d42565b50606082015181600301556080820151816004015560a0820151816005019080519060200190610e37929190611dc8565b5060c08201518160060160006101000a81548173ffffffffffffffffffffffffffffffffffffffff021916908373ffffffffffffffffffffffffffffffffffffffff16021790555060e0820151816007019080519060200190610e9b929190611e28565b5050505050505050565b66038d7ea4c68000341015610eef576040517f08c379a0000000000000000000000000000000000000000000000000000000008152600401610ee690613106565b60405180910390fd5b60008260ff1610158015610f2d575060038181548110610f1257610f11612fbe565b5b9060005260206000209060080201600501805490508260ff16105b610f6c576040517f08c379a0000000000000000000000000000000000000000000000000000000008152600401610f6390613204565b60405180910390fd5b60026040518061012001604052808581526020018381526020018460ff1681526020018460ff16815260200160038481548110610fac57610fab612fbe565b5b90600052602060002090600802016005018054905067ffffffffffffffff811115610fda57610fd9612886565b5b6040519080825280602002602001820160405280156110085781602001602082028036833780820191505090505b5081526020016000151581526020013373ffffffffffffffffffffffffffffffffffffffff168152602001600067ffffffffffffffff81111561104e5761104d612886565b5b60405190808252806020026020018201604052801561107c5781602001602082028036833780820191505090505b50815260200160001515815250908060018154018082558091505060019003906000526020600020906007020160009091909190915060008201518160000190805190602001906110ce929190611d42565b506020820151816001015560408201518160020160006101000a81548160ff021916908360ff16021790555060608201518160020160016101000a81548160ff021916908360ff1602179055506080820151816003019080519060200190611137929190611e75565b5060a08201518160040160006101000a81548160ff02191690831515021790555060c08201518160040160016101000a81548173ffffffffffffffffffffffffffffffffffffffff021916908373ffffffffffffffffffffffffffffffffffffffff16021790555060e08201518160050190805190602001906111bb929190611f1c565b506101008201518160060160006101000a81548160ff021916908315150217905550505060018060008282546111f19190613253565b92505081905550505050565b6000600154905090565b66038d7ea4c68000341015611251576040517f08c379a000000000000000000000000000000000000000000000000000000000815260040161124890613106565b60405180910390fd5b600015156002848154811061126957611268612fbe565b5b906000526020600020906007020160040160009054906101000a900460ff161515146112ca576040517f08c379a00000000000000000000000000000000000000000000000000000000081526004016112c1906132f5565b60405180910390fd5b600283815481106112de576112dd612fbe565b5b906000526020600020906007020160040160019054906101000a900473ffffffffffffffffffffffffffffffffffffffff1673ffffffffffffffffffffffffffffffffffffffff163373ffffffffffffffffffffffffffffffffffffffff16141561137e576040517f08c379a000000000000000000000000000000000000000000000000000000000815260040161137590613361565b60405180910390fd5b60015483108015611390575060008310155b6113cf576040517f08c379a00000000000000000000000000000000000000000000000000000000081526004016113c690612f9e565b60405180910390fd5b60008260ff161015801561140d5750600381815481106113f2576113f1612fbe565b5b9060005260206000209060080201600501805490508260ff16105b61144c576040517f08c379a000000000000000000000000000000000000000000000000000000000815260040161144390613204565b60405180910390fd5b61145633846119f9565b611495576040517f08c379a000000000000000000000000000000000000000000000000000000000815260040161148c906133f3565b60405180910390fd5b6001600284815481106114ab576114aa612fbe565b5b90600052602060002090600702016003018360ff16815481106114d1576114d0612fbe565b5b90600052602060002090602091828204019190068282829054906101000a900460ff166114fe9190613413565b92506101000a81548160ff021916908360ff1602179055506002838154811061152a57611529612fbe565b5b9060005260206000209060070201600501339080600181540180825580915050600190039060005260206000200160009091909190916101000a81548173ffffffffffffffffffffffffffffffffffffffff021916908373ffffffffffffffffffffffffffffffffffffffff160217905550600381815481106115b0576115af612fbe565b5b906000526020600020906008020160030154600284815481106115d6576115d5612fbe565b5b90600052602060002090600702016003018360ff16815481106115fc576115fb612fbe565b5b90600052602060002090602091828204019190069054906101000a900460ff1660ff1614156116ab5760016002848154811061163b5761163a612fbe565b5b906000526020600020906007020160040160006101000a81548160ff021916908315150217905550816002848154811061167857611677612fbe565b5b906000526020600020906007020160020160016101000a81548160ff021916908360ff1602179055506116aa83611aef565b5b505050565b60005b815181101561172757600160028383815181106116d3576116d2612fbe565b5b6020026020010151815481106116ec576116eb612fbe565b5b906000526020600020906007020160060160006101000a81548160ff021916908315150217905550808061171f9061344a565b9150506116b3565b5050565b60606002805480602002602001604051908101604052809291908181526020016000905b828210156119f05783829060005260206000209060070201604051806101200160405290816000820180546117839061301c565b80601f01602080910402602001604051908101604052809291908181526020018280546117af9061301c565b80156117fc5780601f106117d1576101008083540402835291602001916117fc565b820191906000526020600020905b8154815290600101906020018083116117df57829003601f168201915b50505050508152602001600182015481526020016002820160009054906101000a900460ff1660ff1660ff1681526020016002820160019054906101000a900460ff1660ff1660ff168152602001600382018054806020026020016040519081016040528092919081815260200182805480156118be57602002820191906000526020600020906000905b82829054906101000a900460ff1660ff16815260200190600101906020826000010492830192600103820291508084116118875790505b505050505081526020016004820160009054906101000a900460ff161515151581526020016004820160019054906101000a900473ffffffffffffffffffffffffffffffffffffffff1673ffffffffffffffffffffffffffffffffffffffff1673ffffffffffffffffffffffffffffffffffffffff168152602001600582018054806020026020016040519081016040528092919081815260200182805480156119bd57602002820191906000526020600020905b8160009054906101000a900473ffffffffffffffffffffffffffffffffffffffff1673ffffffffffffffffffffffffffffffffffffffff1681526020019060010190808311611973575b505050505081526020016006820160009054906101000a900460ff1615151515815250508152602001906001019061174f565b50505050905090565b600080600090505b60028381548110611a1557611a14612fbe565b5b906000526020600020906007020160050180549050811015611ae3578373ffffffffffffffffffffffffffffffffffffffff1660028481548110611a5c57611a5b612fbe565b5b90600052602060002090600702016005018281548110611a7f57611a7e612fbe565b5b9060005260206000200160009054906101000a900473ffffffffffffffffffffffffffffffffffffffff1673ffffffffffffffffffffffffffffffffffffffff161415611ad0576000915050611ae9565b8080611adb9061344a565b915050611a01565b50600190505b92915050565b60028181548110611b0357611b02612fbe565b5b906000526020600020906007020160040160019054906101000a900473ffffffffffffffffffffffffffffffffffffffff1673ffffffffffffffffffffffffffffffffffffffff166108fc662386f26fc100009081150290604051600060405180830381858888f19350505050158015611b81573d6000803e3d6000fd5b5060005b60028281548110611b9957611b98612fbe565b5b906000526020600020906007020160050180549050811015611c775760028281548110611bc957611bc8612fbe565b5b90600052602060002090600702016005018181548110611bec57611beb612fbe565b5b9060005260206000200160009054906101000a900473ffffffffffffffffffffffffffffffffffffffff1673ffffffffffffffffffffffffffffffffffffffff166108fc662386f26fc100009081150290604051600060405180830381858888f19350505050158015611c63573d6000803e3d6000fd5b508080611c6f9061344a565b915050611b85565b5050565b6040518061012001604052806060815260200160008152602001600060ff168152602001600060ff16815260200160608152602001600015158152602001600073ffffffffffffffffffffffffffffffffffffffff168152602001606081526020016000151581525090565b604051806101000160405280600081526020016060815260200160608152602001600081526020016000815260200160608152602001600073ffffffffffffffffffffffffffffffffffffffff168152602001606081525090565b828054611d4e9061301c565b90600052602060002090601f016020900481019282611d705760008555611db7565b82601f10611d8957805160ff1916838001178555611db7565b82800160010185558215611db7579182015b82811115611db6578251825591602001919060010190611d9b565b5b509050611dc49190611fa6565b5090565b828054828255906000526020600020908101928215611e17579160200282015b82811115611e16578251829080519060200190611e06929190611d42565b5091602001919060010190611de8565b5b509050611e249190611fc3565b5090565b828054828255906000526020600020908101928215611e64579160200282015b82811115611e63578251825591602001919060010190611e48565b5b509050611e719190611fa6565b5090565b82805482825590600052602060002090601f01602090048101928215611f0b5791602002820160005b83821115611edc57835183826101000a81548160ff021916908360ff1602179055509260200192600101602081600001049283019260010302611e9e565b8015611f095782816101000a81549060ff0219169055600101602081600001049283019260010302611edc565b505b509050611f189190611fa6565b5090565b828054828255906000526020600020908101928215611f95579160200282015b82811115611f945782518260006101000a81548173ffffffffffffffffffffffffffffffffffffffff021916908373ffffffffffffffffffffffffffffffffffffffff16021790555091602001919060010190611f3c565b5b509050611fa29190611fa6565b5090565b5b80821115611fbf576000816000905550600101611fa7565b5090565b5b80821115611fe35760008181611fda9190611fe7565b50600101611fc4565b5090565b508054611ff39061301c565b6000825580601f106120055750612024565b601f0160209004906000526020600020908101906120239190611fa6565b5b50565b6000604051905090565b600080fd5b600080fd5b6000819050919050565b61204e8161203b565b811461205957600080fd5b50565b60008135905061206b81612045565b92915050565b60006020828403121561208757612086612031565b5b60006120958482850161205c565b91505092915050565b600081519050919050565b600082825260208201905092915050565b60005b838110156120d85780820151818401526020810190506120bd565b838111156120e7576000848401525b50505050565b6000601f19601f8301169050919050565b60006121098261209e565b61211381856120a9565b93506121238185602086016120ba565b61212c816120ed565b840191505092915050565b6121408161203b565b82525050565b600060ff82169050919050565b61215c81612146565b82525050565b600081519050919050565b600082825260208201905092915050565b6000819050602082019050919050565b600061219a8383612153565b60208301905092915050565b6000602082019050919050565b60006121be82612162565b6121c8818561216d565b93506121d38361217e565b8060005b838110156122045781516121eb888261218e565b97506121f6836121a6565b9250506001810190506121d7565b5085935050505092915050565b60008115159050919050565b61222681612211565b82525050565b600073ffffffffffffffffffffffffffffffffffffffff82169050919050565b60006122578261222c565b9050919050565b6122678161224c565b82525050565b600081519050919050565b600082825260208201905092915050565b6000819050602082019050919050565b60006122a5838361225e565b60208301905092915050565b6000602082019050919050565b60006122c98261226d565b6122d38185612278565b93506122de83612289565b8060005b8381101561230f5781516122f68882612299565b9750612301836122b1565b9250506001810190506122e2565b5085935050505092915050565b600061012083016000830151848203600086015261233a82826120fe565b915050602083015161234f6020860182612137565b5060408301516123626040860182612153565b5060608301516123756060860182612153565b506080830151848203608086015261238d82826121b3565b91505060a08301516123a260a086018261221d565b5060c08301516123b560c086018261225e565b5060e083015184820360e08601526123cd82826122be565b9150506101008301516123e461010086018261221d565b508091505092915050565b60006020820190508181036000830152612409818461231c565b905092915050565b600081519050919050565b600082825260208201905092915050565b6000819050602082019050919050565b600081519050919050565b600082825260208201905092915050565b6000819050602082019050919050565b600061247583836120fe565b905092915050565b6000602082019050919050565b60006124958261243d565b61249f8185612448565b9350836020820285016124b185612459565b8060005b858110156124ed57848403895281516124ce8582612469565b94506124d98361247d565b925060208a019950506001810190506124b5565b50829750879550505050505092915050565b600081519050919050565b600082825260208201905092915050565b6000819050602082019050919050565b60006125378383612137565b60208301905092915050565b6000602082019050919050565b600061255b826124ff565b612565818561250a565b93506125708361251b565b8060005b838110156125a1578151612588888261252b565b975061259383612543565b925050600181019050612574565b5085935050505092915050565b6000610100830160008301516125c76000860182612137565b50602083015184820360208601526125df82826120fe565b915050604083015184820360408601526125f982826120fe565b915050606083015161260e6060860182612137565b5060808301516126216080860182612137565b5060a083015184820360a0860152612639828261248a565b91505060c083015161264e60c086018261225e565b5060e083015184820360e08601526126668282612550565b9150508091505092915050565b600061267f83836125ae565b905092915050565b6000602082019050919050565b600061269f82612411565b6126a9818561241c565b9350836020820285016126bb8561242d565b8060005b858110156126f757848403895281516126d88582612673565b94506126e383612687565b925060208a019950506001810190506126bf565b50829750879550505050505092915050565b600060208201905081810360008301526127238184612694565b905092915050565b6127348161224c565b82525050565b600060208201905061274f600083018461272b565b92915050565b6000806040838503121561276c5761276b612031565b5b600061277a8582860161205c565b925050602061278b8582860161205c565b9150509250929050565b6000610100830160008301516127ae6000860182612137565b50602083015184820360208601526127c682826120fe565b915050604083015184820360408601526127e082826120fe565b91505060608301516127f56060860182612137565b5060808301516128086080860182612137565b5060a083015184820360a0860152612820828261248a565b91505060c083015161283560c086018261225e565b5060e083015184820360e086015261284d8282612550565b9150508091505092915050565b600060208201905081810360008301526128748184612795565b905092915050565b600080fd5b600080fd5b7f4e487b7100000000000000000000000000000000000000000000000000000000600052604160045260246000fd5b6128be826120ed565b810181811067ffffffffffffffff821117156128dd576128dc612886565b5b80604052505050565b60006128f0612027565b90506128fc82826128b5565b919050565b600067ffffffffffffffff82111561291c5761291b612886565b5b612925826120ed565b9050602081019050919050565b82818337600083830152505050565b600061295461294f84612901565b6128e6565b9050828152602081018484840111156129705761296f612881565b5b61297b848285612932565b509392505050565b600082601f8301126129985761299761287c565b5b81356129a8848260208601612941565b91505092915050565b600067ffffffffffffffff8211156129cc576129cb612886565b5b602082029050602081019050919050565b600080fd5b60006129f56129f0846129b1565b6128e6565b90508083825260208201905060208402830185811115612a1857612a176129dd565b5b835b81811015612a5f57803567ffffffffffffffff811115612a3d57612a3c61287c565b5b808601612a4a8982612983565b85526020850194505050602081019050612a1a565b5050509392505050565b600082601f830112612a7e57612a7d61287c565b5b8135612a8e8482602086016129e2565b91505092915050565b600080600080600060a08688031215612ab357612ab2612031565b5b600086013567ffffffffffffffff811115612ad157612ad0612036565b5b612add88828901612983565b955050602086013567ffffffffffffffff811115612afe57612afd612036565b5b612b0a88828901612983565b9450506040612b1b8882890161205c565b9350506060612b2c8882890161205c565b925050608086013567ffffffffffffffff811115612b4d57612b4c612036565b5b612b5988828901612a69565b9150509295509295909350565b612b6f81612146565b8114612b7a57600080fd5b50565b600081359050612b8c81612b66565b92915050565b600080600060608486031215612bab57612baa612031565b5b600084013567ffffffffffffffff811115612bc957612bc8612036565b5b612bd586828701612983565b9350506020612be686828701612b7d565b9250506040612bf78682870161205c565b9150509250925092565b612c0a8161203b565b82525050565b6000602082019050612c256000830184612c01565b92915050565b600080600060608486031215612c4457612c43612031565b5b6000612c528682870161205c565b9350506020612c6386828701612b7d565b9250506040612c748682870161205c565b9150509250925092565b600067ffffffffffffffff821115612c9957612c98612886565b5b602082029050602081019050919050565b6000612cbd612cb884612c7e565b6128e6565b90508083825260208201905060208402830185811115612ce057612cdf6129dd565b5b835b81811015612d095780612cf5888261205c565b845260208401935050602081019050612ce2565b5050509392505050565b600082601f830112612d2857612d2761287c565b5b8135612d38848260208601612caa565b91505092915050565b600060208284031215612d5757612d56612031565b5b600082013567ffffffffffffffff811115612d7557612d74612036565b5b612d8184828501612d13565b91505092915050565b600081519050919050565b600082825260208201905092915050565b6000819050602082019050919050565b6000610120830160008301518482036000860152612dd482826120fe565b9150506020830151612de96020860182612137565b506040830151612dfc6040860182612153565b506060830151612e0f6060860182612153565b5060808301518482036080860152612e2782826121b3565b91505060a0830151612e3c60a086018261221d565b5060c0830151612e4f60c086018261225e565b5060e083015184820360e0860152612e6782826122be565b915050610100830151612e7e61010086018261221d565b508091505092915050565b6000612e958383612db6565b905092915050565b6000602082019050919050565b6000612eb582612d8a565b612ebf8185612d95565b935083602082028501612ed185612da6565b8060005b85811015612f0d5784840389528151612eee8582612e89565b9450612ef983612e9d565b925060208a01995050600181019050612ed5565b50829750879550505050505092915050565b60006020820190508181036000830152612f398184612eaa565b905092915050565b600082825260208201905092915050565b7f496e76616c69642063617074696f6e2069647800000000000000000000000000600082015250565b6000612f88601383612f41565b9150612f9382612f52565b602082019050919050565b60006020820190508181036000830152612fb781612f7b565b9050919050565b7f4e487b7100000000000000000000000000000000000000000000000000000000600052603260045260246000fd5b7f4e487b7100000000000000000000000000000000000000000000000000000000600052602260045260246000fd5b6000600282049050600182168061303457607f821691505b6020821081141561304857613047612fed565b5b50919050565b7f496e76616c6964206d6f64656c20696478000000000000000000000000000000600082015250565b6000613084601183612f41565b915061308f8261304e565b602082019050919050565b600060208201905081810360008301526130b381613077565b9050919050565b7f4e6f7420656e6f75676820657468000000000000000000000000000000000000600082015250565b60006130f0600e83612f41565b91506130fb826130ba565b602082019050919050565b6000602082019050818103600083015261311f816130e3565b9050919050565b7f496e76616c6964204e756d626572206f6620566f746573206f7220436170746960008201527f6f6e730000000000000000000000000000000000000000000000000000000000602082015250565b6000613182602383612f41565b915061318d82613126565b604082019050919050565b600060208201905081810360008301526131b181613175565b9050919050565b7f496e76616c6964206c6162656c00000000000000000000000000000000000000600082015250565b60006131ee600d83612f41565b91506131f9826131b8565b602082019050919050565b6000602082019050818103600083015261321d816131e1565b9050919050565b7f4e487b7100000000000000000000000000000000000000000000000000000000600052601160045260246000fd5b600061325e8261203b565b91506132698361203b565b9250827fffffffffffffffffffffffffffffffffffffffffffffffffffffffffffffffff0382111561329e5761329d613224565b5b828201905092915050565b7f43616e6e6f742072657669657720612076657269666965642063617074696f6e600082015250565b60006132df602083612f41565b91506132ea826132a9565b602082019050919050565b6000602082019050818103600083015261330e816132d2565b9050919050565b7f43616e6e6f742072657669657720796f7572206f776e2063617074696f6e0000600082015250565b600061334b601e83612f41565b915061335682613315565b602082019050919050565b6000602082019050818103600083015261337a8161333e565b9050919050565b7f4f6e6c79206f6e6520766f746520706572206163636f756e7420666f7220657660008201527f6572792063617074696f6e000000000000000000000000000000000000000000602082015250565b60006133dd602b83612f41565b91506133e882613381565b604082019050919050565b6000602082019050818103600083015261340c816133d0565b9050919050565b600061341e82612146565b915061342983612146565b92508260ff0382111561343f5761343e613224565b5b828201905092915050565b60006134558261203b565b91507fffffffffffffffffffffffffffffffffffffffffffffffffffffffffffffffff82141561348857613487613224565b5b60018201905091905056fea2646970667358221220617f107fc07da40eeb9f42f0cecc7ba8c4b3f0af49ef72a75775495002659b7e64736f6c634300080c0033",
  "immutableReferences": {},
  "source": "// SPDX-License-Identifier: MIT\npragma solidity >=0.4.22 <0.9.0;\n\ncontract CaptionReview {\n    address public chairperson;\n    uint captionCnt = 0;\n    uint constant modelCost = 1e18;\n    uint constant captionCost = 1e15;\n    uint constant reviewCost = 1e15;\n    uint constant captionRefund = 1e16;\n    uint constant reviewRefund = 1e16;\n\n    struct Caption{\n        string content;\n        uint256 modelId;\n        uint8 proposedLabel;\n        uint8 verifiedLabel;\n        uint8[] Votes;\n        bool verified;\n        address providerAddr;\n        address[] voters;\n        bool trained;\n    }\n\n    struct ModelInfo{\n        uint256 id;\n        string name;\n        string description;\n        uint256 NumberOfVotes;\n        uint256 NumberOfCaptions;\n        string[] labels;\n        address modelProviderAddr;\n        uint256[] accuracy;\n    }\n\n    Caption[] captions;\n\n    ModelInfo[] models;\n\n    constructor(){\n        chairperson = msg.sender;\n    }\n\n    function addModel(string memory _name, string memory _description, uint _NumOfVotes, uint _NumOfCaptions, string[] memory labels) external payable{\n        require(msg.value >= modelCost,\"Not enough eth\");\n        require(_NumOfVotes > 0 && _NumOfCaptions > 0,\"Invalid Number of Votes or Captions\");\n        models.push(ModelInfo(models.length, _name, _description, _NumOfVotes, _NumOfCaptions, labels, msg.sender, new uint[](0)));\n    }\n\n    function addCaption(string memory _caption, uint8 _lbl, uint _modelId) external payable{\n        require(msg.value >= captionCost,\"Not enough eth\");\n        require(_lbl >= 0 && _lbl < models[_modelId].labels.length,\"Invalid label\");\n        captions.push(Caption(_caption, _modelId, _lbl, _lbl, new uint8[](models[_modelId].labels.length), false, msg.sender, new address[](0), false));\n        captionCnt += 1;\n    }\n\n    function notVoted(address _voter, uint _idx) private view returns (bool) {\n        for (uint i = 0; i < captions[_idx].voters.length; i++) {\n            if (captions[_idx].voters[i] == _voter) {\n                return false;\n            }\n        }\n        return true;\n    }\n\n    function refunding(uint _captionId) private {\n        payable(captions[_captionId].providerAddr).transfer(captionRefund);\n        for (uint i = 0; i < captions[_captionId].voters.length; i++){\n            payable(captions[_captionId].voters[i]).transfer(reviewRefund);\n        }\n    }\n\n    function reviewCaption(uint _idx, uint8 _lbl, uint _modelId) external payable{\n        require(msg.value >= reviewCost,\"Not enough eth\");\n        require(captions[_idx].verified == false, \"Cannot review a verified caption\");\n        require(msg.sender != captions[_idx].providerAddr, \"Cannot review your own caption\");\n        require(_idx < captionCnt && _idx >= 0,\"Invalid caption idx\");\n        require(_lbl >= 0 && _lbl < models[_modelId].labels.length,\"Invalid label\");\n        require(notVoted(msg.sender,_idx),\"Only one vote per account for every caption\");\n        captions[_idx].Votes[_lbl] += 1;\n        captions[_idx].voters.push(msg.sender);\n        if(captions[_idx].Votes[_lbl] == models[_modelId].NumberOfVotes){\n            captions[_idx].verified = true;\n            captions[_idx].verifiedLabel = _lbl;\n            refunding(_idx);\n        }\n    }\n\n    function getModels() public view returns( ModelInfo  [] memory){\n        return models;\n    }\n\n    function getModel(uint _idx) public view returns (ModelInfo memory) {\n        require(_idx < models.length && _idx >= 0,\"Invalid model idx\");\n    \treturn models[_idx];\n    }\n\n    function getCaptions() public view returns( Caption  [] memory){\n        return captions;\n    }\n\n    function getCaption(uint _idx) public view returns (Caption memory) {\n        require(_idx < captionCnt && _idx >= 0,\"Invalid caption idx\");\n    \treturn captions[_idx];\n    }\n\n    function getCaptionCnt() public view returns (uint){\n        return(captionCnt);\n    }\n\n    function updateCaptionTrainStatus(uint[] memory _usedCaptions) public {\n        for(uint i = 0; i < _usedCaptions.length ; i++){\n            captions[_usedCaptions[i]].trained = true;\n        }\n    }\n\n    function addAccuracy(uint _idx, uint _acc) public{\n        models[_idx].accuracy.push(_acc);\n    }\n\n}",
  "sourcePath": "/home/demet/Desktop/blockchain-ml/contracts/contracts/CaptionReview.sol",
  "compiler": {
    "name": "solc",
    "version": "0.8.12+commit.f00d7308.Emscripten.clang"
  },
  "schemaVersion": "3.4.6",
  "updatedAt": "2022-06-06T10:26:11.356Z",
  "networkType": "ethereum",
  "devdoc": {
    "kind": "dev",
    "methods": {},
    "version": 1
  },
  "userdoc": {
    "kind": "user",
    "methods": {},
    "version": 1
  }
}