{
  "contractName": "TwitterReview",
  "abi": [
    {
      "inputs": [],
      "stateMutability": "nonpayable",
      "type": "constructor"
    },
    {
      "inputs": [],
      "name": "chairperson",
      "outputs": [
        {
          "internalType": "address",
          "name": "",
          "type": "address"
        }
      ],
      "stateMutability": "view",
      "type": "function",
      "constant": true
    },
    {
      "inputs": [
        {
          "internalType": "string",
          "name": "_caption",
          "type": "string"
        },
        {
          "internalType": "uint8",
          "name": "_lbl",
          "type": "uint8"
        }
      ],
      "name": "addCaption",
      "outputs": [],
      "stateMutability": "payable",
      "type": "function",
      "payable": true
    },
    {
      "inputs": [
        {
          "internalType": "uint256",
          "name": "_idx",
          "type": "uint256"
        },
        {
          "internalType": "uint8",
          "name": "_lbl",
          "type": "uint8"
        }
      ],
      "name": "reviewCaption",
      "outputs": [],
      "stateMutability": "payable",
      "type": "function",
      "payable": true
    },
    {
      "inputs": [
        {
          "internalType": "uint256",
          "name": "_idx",
          "type": "uint256"
        }
      ],
      "name": "getCaption",
      "outputs": [
        {
          "components": [
            {
              "internalType": "string",
              "name": "content",
              "type": "string"
            },
            {
              "internalType": "uint8",
              "name": "label",
              "type": "uint8"
            },
            {
              "internalType": "uint8[3]",
              "name": "Votes",
              "type": "uint8[3]"
            },
            {
              "internalType": "bool",
              "name": "verified",
              "type": "bool"
            },
            {
              "internalType": "bool",
              "name": "goodData",
              "type": "bool"
            },
            {
              "internalType": "address",
              "name": "providerAddr",
              "type": "address"
            }
          ],
          "internalType": "struct TwitterReview.Caption",
          "name": "",
          "type": "tuple"
        }
      ],
      "stateMutability": "view",
      "type": "function",
      "constant": true
    },
    {
      "inputs": [],
      "name": "getCaptionCnt",
      "outputs": [
        {
          "internalType": "uint256",
          "name": "",
          "type": "uint256"
        }
      ],
      "stateMutability": "view",
      "type": "function",
      "constant": true
    }
  ],
  "bytecode": "0x6080604052600060015534801561001557600080fd5b50336000806101000a81548173ffffffffffffffffffffffffffffffffffffffff021916908373ffffffffffffffffffffffffffffffffffffffff160217905550610ffb806100656000396000f3fe60806040526004361061004a5760003560e01c80630257e2491461004f578063098464301461008c5780632e4176cf146100a8578063856a3f9c146100d3578063b4416826146100ef575b600080fd5b34801561005b57600080fd5b50610076600480360381019061007191906109a2565b61011a565b6040516100839190610c06565b60405180910390f35b6100a660048036038101906100a19190610c54565b610317565b005b3480156100b457600080fd5b506100bd6105a3565b6040516100ca9190610ca3565b60405180910390f35b6100ed60048036038101906100e89190610df3565b6105c7565b005b3480156100fb57600080fd5b50610104610796565b6040516101119190610e5e565b60405180910390f35b6101226107a0565b60015482108015610134575060008210155b61013d57600080fd5b6002828154811061015157610150610e79565b5b90600052602060002090600402016040518060c001604052908160008201805461017a90610ed7565b80601f01602080910402602001604051908101604052809291908181526020018280546101a690610ed7565b80156101f35780601f106101c8576101008083540402835291602001916101f3565b820191906000526020600020905b8154815290600101906020018083116101d657829003601f168201915b505050505081526020016001820160009054906101000a900460ff1660ff1660ff1681526020016002820160038060200260405190810160405280929190826003801561027b576020028201916000905b82829054906101000a900460ff1660ff16815260200190600101906020826000010492830192600103820291508084116102445790505b505050505081526020016003820160009054906101000a900460ff161515151581526020016003820160019054906101000a900460ff161515151581526020016003820160029054906101000a900473ffffffffffffffffffffffffffffffffffffffff1673ffffffffffffffffffffffffffffffffffffffff1673ffffffffffffffffffffffffffffffffffffffff16815250509050919050565b600015156002838154811061032f5761032e610e79565b5b906000526020600020906004020160030160009054906101000a900460ff1615151461035a57600080fd5b6002828154811061036e5761036d610e79565b5b906000526020600020906004020160030160029054906101000a900473ffffffffffffffffffffffffffffffffffffffff1673ffffffffffffffffffffffffffffffffffffffff163373ffffffffffffffffffffffffffffffffffffffff1614156103d857600080fd5b600154821080156103ea575060008210155b6103f357600080fd5b60008160ff161015801561040b575060028160ff1611155b61041457600080fd5b60016002838154811061042a57610429610e79565b5b90600052602060002090600402016002018260ff16600381106104505761044f610e79565b5b602091828204019190068282829054906101000a900460ff166104739190610f38565b92506101000a81548160ff021916908360ff160217905550600360ff16600283815481106104a4576104a3610e79565b5b90600052602060002090600402016002018260ff16600381106104ca576104c9610e79565b5b602091828204019190069054906101000a900460ff1660ff16141561059f576001600283815481106104ff576104fe610e79565b5b906000526020600020906004020160030160006101000a81548160ff0219169083151502179055506002828154811061053b5761053a610e79565b5b906000526020600020906004020160010160009054906101000a900460ff1660ff168160ff16146002838154811061057657610575610e79565b5b906000526020600020906004020160030160016101000a81548160ff0219169083151502179055505b5050565b60008054906101000a900473ffffffffffffffffffffffffffffffffffffffff1681565b670de0b6b3a76400003410156105dc57600080fd5b60008160ff16101580156105f4575060028160ff1611155b6105fd57600080fd5b60026040518060c001604052808481526020018360ff1681526020016040518060600160405280600060ff168152602001600060ff168152602001600060ff1681525081526020016000151581526020016000151581526020013373ffffffffffffffffffffffffffffffffffffffff16815250908060018154018082558091505060019003906000526020600020906004020160009091909190915060008201518160000190805190602001906106b69291906107f9565b5060208201518160010160006101000a81548160ff021916908360ff1602179055506040820151816002019060036106ef92919061087f565b5060608201518160030160006101000a81548160ff02191690831515021790555060808201518160030160016101000a81548160ff02191690831515021790555060a08201518160030160026101000a81548173ffffffffffffffffffffffffffffffffffffffff021916908373ffffffffffffffffffffffffffffffffffffffff1602179055505050600180600082825461078b9190610f6f565b925050819055505050565b6000600154905090565b6040518060c0016040528060608152602001600060ff1681526020016107c4610919565b8152602001600015158152602001600015158152602001600073ffffffffffffffffffffffffffffffffffffffff1681525090565b82805461080590610ed7565b90600052602060002090601f016020900481019282610827576000855561086e565b82601f1061084057805160ff191683800117855561086e565b8280016001018555821561086e579182015b8281111561086d578251825591602001919060010190610852565b5b50905061087b919061093b565b5090565b826003601f016020900481019282156109085791602002820160005b838211156108d957835183826101000a81548160ff021916908360ff160217905550926020019260010160208160000104928301926001030261089b565b80156109065782816101000a81549060ff02191690556001016020816000010492830192600103026108d9565b505b509050610915919061093b565b5090565b6040518060600160405280600390602082028036833780820191505090505090565b5b8082111561095457600081600090555060010161093c565b5090565b6000604051905090565b600080fd5b600080fd5b6000819050919050565b61097f8161096c565b811461098a57600080fd5b50565b60008135905061099c81610976565b92915050565b6000602082840312156109b8576109b7610962565b5b60006109c68482850161098d565b91505092915050565b600081519050919050565b600082825260208201905092915050565b60005b83811015610a095780820151818401526020810190506109ee565b83811115610a18576000848401525b50505050565b6000601f19601f8301169050919050565b6000610a3a826109cf565b610a4481856109da565b9350610a548185602086016109eb565b610a5d81610a1e565b840191505092915050565b600060ff82169050919050565b610a7e81610a68565b82525050565b600060039050919050565b600081905092915050565b6000819050919050565b6000610ab08383610a75565b60208301905092915050565b6000602082019050919050565b610ad281610a84565b610adc8184610a8f565b9250610ae782610a9a565b8060005b83811015610b18578151610aff8782610aa4565b9650610b0a83610abc565b925050600181019050610aeb565b505050505050565b60008115159050919050565b610b3581610b20565b82525050565b600073ffffffffffffffffffffffffffffffffffffffff82169050919050565b6000610b6682610b3b565b9050919050565b610b7681610b5b565b82525050565b6000610100830160008301518482036000860152610b9a8282610a2f565b9150506020830151610baf6020860182610a75565b506040830151610bc26040860182610ac9565b506060830151610bd560a0860182610b2c565b506080830151610be860c0860182610b2c565b5060a0830151610bfb60e0860182610b6d565b508091505092915050565b60006020820190508181036000830152610c208184610b7c565b905092915050565b610c3181610a68565b8114610c3c57600080fd5b50565b600081359050610c4e81610c28565b92915050565b60008060408385031215610c6b57610c6a610962565b5b6000610c798582860161098d565b9250506020610c8a85828601610c3f565b9150509250929050565b610c9d81610b5b565b82525050565b6000602082019050610cb86000830184610c94565b92915050565b600080fd5b600080fd5b7f4e487b7100000000000000000000000000000000000000000000000000000000600052604160045260246000fd5b610d0082610a1e565b810181811067ffffffffffffffff82111715610d1f57610d1e610cc8565b5b80604052505050565b6000610d32610958565b9050610d3e8282610cf7565b919050565b600067ffffffffffffffff821115610d5e57610d5d610cc8565b5b610d6782610a1e565b9050602081019050919050565b82818337600083830152505050565b6000610d96610d9184610d43565b610d28565b905082815260208101848484011115610db257610db1610cc3565b5b610dbd848285610d74565b509392505050565b600082601f830112610dda57610dd9610cbe565b5b8135610dea848260208601610d83565b91505092915050565b60008060408385031215610e0a57610e09610962565b5b600083013567ffffffffffffffff811115610e2857610e27610967565b5b610e3485828601610dc5565b9250506020610e4585828601610c3f565b9150509250929050565b610e588161096c565b82525050565b6000602082019050610e736000830184610e4f565b92915050565b7f4e487b7100000000000000000000000000000000000000000000000000000000600052603260045260246000fd5b7f4e487b7100000000000000000000000000000000000000000000000000000000600052602260045260246000fd5b60006002820490506001821680610eef57607f821691505b60208210811415610f0357610f02610ea8565b5b50919050565b7f4e487b7100000000000000000000000000000000000000000000000000000000600052601160045260246000fd5b6000610f4382610a68565b9150610f4e83610a68565b92508260ff03821115610f6457610f63610f09565b5b828201905092915050565b6000610f7a8261096c565b9150610f858361096c565b9250827fffffffffffffffffffffffffffffffffffffffffffffffffffffffffffffffff03821115610fba57610fb9610f09565b5b82820190509291505056fea2646970667358221220c895e0ae18cec93b6f758ace5b7e39ecbff430ec815cdb9c6fdd7434b377fdbe64736f6c634300080c0033",
  "immutableReferences": {},
  "source": "// SPDX-License-Identifier: MIT\npragma solidity >=0.4.22 <0.9.0;\n\ncontract TwitterReview {\n    address public chairperson;\n    uint8 constant MAX_VOTES = 3;\n    uint captionCnt = 0;\n\n    struct Caption{\n        string content;\n        uint8 label;\n        uint8[3] Votes;\n        bool verified;\n        bool goodData;\n        address providerAddr;\n    }\n\n    Caption[] captions;\n\n    constructor(){\n        chairperson = msg.sender;\n    }\n\n    function addCaption(string memory _caption, uint8 _lbl) external payable{\n        require(msg.value >= 1e18);\n        require(_lbl >= 0 && _lbl <= 2);\n        captions.push(Caption(_caption, _lbl, [0, 0, 0], false, false, msg.sender));\n        captionCnt += 1;\n    }\n\n    function reviewCaption(uint _idx, uint8 _lbl) external payable{\n        require(captions[_idx].verified == false);\n        require(msg.sender != captions[_idx].providerAddr);\n        require(_idx < captionCnt && _idx >= 0);\n        require(_lbl >= 0 && _lbl <= 2);\n        // req only one vote per person\n        captions[_idx].Votes[_lbl] += 1;\n        if(captions[_idx].Votes[_lbl] == MAX_VOTES){\n            captions[_idx].verified = true;\n            captions[_idx].goodData = (_lbl == captions[_idx].label);\n        }\n    }\n\n    function getCaption(uint _idx) public view returns (Caption memory) {\n        require(_idx < captionCnt && _idx >= 0);\n    \treturn captions[_idx];\n    }\n\n    function getCaptionCnt() public view returns (uint){\n        return(captionCnt);\n    }\n\n}",
  "sourcePath": "/home/demet/Desktop/thesis/contracts/contracts/TwitterReview.sol",
  "compiler": {
    "name": "solc",
    "version": "0.8.12+commit.f00d7308.Emscripten.clang"
  },
  "schemaVersion": "3.4.6",
  "updatedAt": "2022-04-23T16:06:06.271Z",
  "networkType": "ethereum",
  "devdoc": {
    "kind": "dev",
    "methods": {},
    "version": 1
  },
  "userdoc": {
    "kind": "user",
    "methods": {},
    "version": 1
  }
}