{
  "contractName": "TwitterReview",
  "abi": [
    {
      "inputs": [],
      "stateMutability": "nonpayable",
      "type": "constructor"
    },
    {
      "inputs": [],
      "name": "chairperson",
      "outputs": [
        {
          "internalType": "address",
          "name": "",
          "type": "address"
        }
      ],
      "stateMutability": "view",
      "type": "function",
      "constant": true
    },
    {
      "inputs": [
        {
          "internalType": "string",
          "name": "_caption",
          "type": "string"
        },
        {
          "internalType": "uint8",
          "name": "_lbl",
          "type": "uint8"
        }
      ],
      "name": "addCaption",
      "outputs": [],
      "stateMutability": "payable",
      "type": "function",
      "payable": true
    },
    {
      "inputs": [
        {
          "internalType": "uint256",
          "name": "_idx",
          "type": "uint256"
        },
        {
          "internalType": "uint8",
          "name": "_lbl",
          "type": "uint8"
        }
      ],
      "name": "reviewCaption",
      "outputs": [],
      "stateMutability": "payable",
      "type": "function",
      "payable": true
    },
    {
      "inputs": [
        {
          "internalType": "uint256",
          "name": "_idx",
          "type": "uint256"
        }
      ],
      "name": "getCaption",
      "outputs": [
        {
          "components": [
            {
              "internalType": "string",
              "name": "content",
              "type": "string"
            },
            {
              "internalType": "uint8",
              "name": "label",
              "type": "uint8"
            },
            {
              "internalType": "uint8[3]",
              "name": "Votes",
              "type": "uint8[3]"
            },
            {
              "internalType": "bool",
              "name": "verified",
              "type": "bool"
            },
            {
              "internalType": "bool",
              "name": "goodData",
              "type": "bool"
            },
            {
              "internalType": "address",
              "name": "providerAddr",
              "type": "address"
            }
          ],
          "internalType": "struct TwitterReview.Caption",
          "name": "",
          "type": "tuple"
        }
      ],
      "stateMutability": "view",
      "type": "function",
      "constant": true
    },
    {
      "inputs": [],
      "name": "getCaptionCnt",
      "outputs": [
        {
          "internalType": "uint256",
          "name": "",
          "type": "uint256"
        }
      ],
      "stateMutability": "view",
      "type": "function",
      "constant": true
    }
  ],
  "bytecode": "0x6080604052600060015534801561001557600080fd5b50336000806101000a81548173ffffffffffffffffffffffffffffffffffffffff021916908373ffffffffffffffffffffffffffffffffffffffff160217905550611150806100656000396000f3fe60806040526004361061004a5760003560e01c80630257e2491461004f578063098464301461008c5780632e4176cf146100a8578063856a3f9c146100d3578063b4416826146100ef575b600080fd5b34801561005b57600080fd5b5061007660048036038101906100719190610a0e565b61011a565b6040516100839190610c72565b60405180910390f35b6100a660048036038101906100a19190610cc0565b610317565b005b3480156100b457600080fd5b506100bd6105a3565b6040516100ca9190610d0f565b60405180910390f35b6100ed60048036038101906100e89190610e5f565b6105c7565b005b3480156100fb57600080fd5b50610104610802565b6040516101119190610eca565b60405180910390f35b61012261080c565b60015482108015610134575060008210155b61013d57600080fd5b6002828154811061015157610150610ee5565b5b90600052602060002090600402016040518060c001604052908160008201805461017a90610f43565b80601f01602080910402602001604051908101604052809291908181526020018280546101a690610f43565b80156101f35780601f106101c8576101008083540402835291602001916101f3565b820191906000526020600020905b8154815290600101906020018083116101d657829003601f168201915b505050505081526020016001820160009054906101000a900460ff1660ff1660ff1681526020016002820160038060200260405190810160405280929190826003801561027b576020028201916000905b82829054906101000a900460ff1660ff16815260200190600101906020826000010492830192600103820291508084116102445790505b505050505081526020016003820160009054906101000a900460ff161515151581526020016003820160019054906101000a900460ff161515151581526020016003820160029054906101000a900473ffffffffffffffffffffffffffffffffffffffff1673ffffffffffffffffffffffffffffffffffffffff1673ffffffffffffffffffffffffffffffffffffffff16815250509050919050565b600015156002838154811061032f5761032e610ee5565b5b906000526020600020906004020160030160009054906101000a900460ff1615151461035a57600080fd5b6002828154811061036e5761036d610ee5565b5b906000526020600020906004020160030160029054906101000a900473ffffffffffffffffffffffffffffffffffffffff1673ffffffffffffffffffffffffffffffffffffffff163373ffffffffffffffffffffffffffffffffffffffff1614156103d857600080fd5b600154821080156103ea575060008210155b6103f357600080fd5b60008160ff161015801561040b575060028160ff1611155b61041457600080fd5b60016002838154811061042a57610429610ee5565b5b90600052602060002090600402016002018260ff16600381106104505761044f610ee5565b5b602091828204019190068282829054906101000a900460ff166104739190610fa4565b92506101000a81548160ff021916908360ff160217905550600360ff16600283815481106104a4576104a3610ee5565b5b90600052602060002090600402016002018260ff16600381106104ca576104c9610ee5565b5b602091828204019190069054906101000a900460ff1660ff16141561059f576001600283815481106104ff576104fe610ee5565b5b906000526020600020906004020160030160006101000a81548160ff0219169083151502179055506002828154811061053b5761053a610ee5565b5b906000526020600020906004020160010160009054906101000a900460ff1660ff168160ff16146002838154811061057657610575610ee5565b5b906000526020600020906004020160030160016101000a81548160ff0219169083151502179055505b5050565b60008054906101000a900473ffffffffffffffffffffffffffffffffffffffff1681565b670de0b6b3a7640000341015610612576040517f08c379a000000000000000000000000000000000000000000000000000000000815260040161060990611038565b60405180910390fd5b60008160ff161015801561062a575060028160ff1611155b610669576040517f08c379a0000000000000000000000000000000000000000000000000000000008152600401610660906110a4565b60405180910390fd5b60026040518060c001604052808481526020018360ff1681526020016040518060600160405280600060ff168152602001600060ff168152602001600060ff1681525081526020016000151581526020016000151581526020013373ffffffffffffffffffffffffffffffffffffffff1681525090806001815401808255809150506001900390600052602060002090600402016000909190919091506000820151816000019080519060200190610722929190610865565b5060208201518160010160006101000a81548160ff021916908360ff16021790555060408201518160020190600361075b9291906108eb565b5060608201518160030160006101000a81548160ff02191690831515021790555060808201518160030160016101000a81548160ff02191690831515021790555060a08201518160030160026101000a81548173ffffffffffffffffffffffffffffffffffffffff021916908373ffffffffffffffffffffffffffffffffffffffff160217905550505060018060008282546107f791906110c4565b925050819055505050565b6000600154905090565b6040518060c0016040528060608152602001600060ff168152602001610830610985565b8152602001600015158152602001600015158152602001600073ffffffffffffffffffffffffffffffffffffffff1681525090565b82805461087190610f43565b90600052602060002090601f01602090048101928261089357600085556108da565b82601f106108ac57805160ff19168380011785556108da565b828001600101855582156108da579182015b828111156108d95782518255916020019190600101906108be565b5b5090506108e791906109a7565b5090565b826003601f016020900481019282156109745791602002820160005b8382111561094557835183826101000a81548160ff021916908360ff1602179055509260200192600101602081600001049283019260010302610907565b80156109725782816101000a81549060ff0219169055600101602081600001049283019260010302610945565b505b50905061098191906109a7565b5090565b6040518060600160405280600390602082028036833780820191505090505090565b5b808211156109c05760008160009055506001016109a8565b5090565b6000604051905090565b600080fd5b600080fd5b6000819050919050565b6109eb816109d8565b81146109f657600080fd5b50565b600081359050610a08816109e2565b92915050565b600060208284031215610a2457610a236109ce565b5b6000610a32848285016109f9565b91505092915050565b600081519050919050565b600082825260208201905092915050565b60005b83811015610a75578082015181840152602081019050610a5a565b83811115610a84576000848401525b50505050565b6000601f19601f8301169050919050565b6000610aa682610a3b565b610ab08185610a46565b9350610ac0818560208601610a57565b610ac981610a8a565b840191505092915050565b600060ff82169050919050565b610aea81610ad4565b82525050565b600060039050919050565b600081905092915050565b6000819050919050565b6000610b1c8383610ae1565b60208301905092915050565b6000602082019050919050565b610b3e81610af0565b610b488184610afb565b9250610b5382610b06565b8060005b83811015610b84578151610b6b8782610b10565b9650610b7683610b28565b925050600181019050610b57565b505050505050565b60008115159050919050565b610ba181610b8c565b82525050565b600073ffffffffffffffffffffffffffffffffffffffff82169050919050565b6000610bd282610ba7565b9050919050565b610be281610bc7565b82525050565b6000610100830160008301518482036000860152610c068282610a9b565b9150506020830151610c1b6020860182610ae1565b506040830151610c2e6040860182610b35565b506060830151610c4160a0860182610b98565b506080830151610c5460c0860182610b98565b5060a0830151610c6760e0860182610bd9565b508091505092915050565b60006020820190508181036000830152610c8c8184610be8565b905092915050565b610c9d81610ad4565b8114610ca857600080fd5b50565b600081359050610cba81610c94565b92915050565b60008060408385031215610cd757610cd66109ce565b5b6000610ce5858286016109f9565b9250506020610cf685828601610cab565b9150509250929050565b610d0981610bc7565b82525050565b6000602082019050610d246000830184610d00565b92915050565b600080fd5b600080fd5b7f4e487b7100000000000000000000000000000000000000000000000000000000600052604160045260246000fd5b610d6c82610a8a565b810181811067ffffffffffffffff82111715610d8b57610d8a610d34565b5b80604052505050565b6000610d9e6109c4565b9050610daa8282610d63565b919050565b600067ffffffffffffffff821115610dca57610dc9610d34565b5b610dd382610a8a565b9050602081019050919050565b82818337600083830152505050565b6000610e02610dfd84610daf565b610d94565b905082815260208101848484011115610e1e57610e1d610d2f565b5b610e29848285610de0565b509392505050565b600082601f830112610e4657610e45610d2a565b5b8135610e56848260208601610def565b91505092915050565b60008060408385031215610e7657610e756109ce565b5b600083013567ffffffffffffffff811115610e9457610e936109d3565b5b610ea085828601610e31565b9250506020610eb185828601610cab565b9150509250929050565b610ec4816109d8565b82525050565b6000602082019050610edf6000830184610ebb565b92915050565b7f4e487b7100000000000000000000000000000000000000000000000000000000600052603260045260246000fd5b7f4e487b7100000000000000000000000000000000000000000000000000000000600052602260045260246000fd5b60006002820490506001821680610f5b57607f821691505b60208210811415610f6f57610f6e610f14565b5b50919050565b7f4e487b7100000000000000000000000000000000000000000000000000000000600052601160045260246000fd5b6000610faf82610ad4565b9150610fba83610ad4565b92508260ff03821115610fd057610fcf610f75565b5b828201905092915050565b600082825260208201905092915050565b7f4e6f7420656e6f75676820657468000000000000000000000000000000000000600082015250565b6000611022600e83610fdb565b915061102d82610fec565b602082019050919050565b6000602082019050818103600083015261105181611015565b9050919050565b7f496c6c6567616c206c6162656c00000000000000000000000000000000000000600082015250565b600061108e600d83610fdb565b915061109982611058565b602082019050919050565b600060208201905081810360008301526110bd81611081565b9050919050565b60006110cf826109d8565b91506110da836109d8565b9250827fffffffffffffffffffffffffffffffffffffffffffffffffffffffffffffffff0382111561110f5761110e610f75565b5b82820190509291505056fea264697066735822122072f3429b7a272ba6a8afd4964e875ff31be6a50892e9d6b90d98819e28880b4c64736f6c634300080c0033",
  "immutableReferences": {},
  "source": "// SPDX-License-Identifier: MIT\npragma solidity >=0.4.22 <0.9.0;\n\ncontract TwitterReview {\n    address public chairperson;\n    uint8 constant MAX_VOTES = 3;\n    uint captionCnt = 0;\n\n    struct Caption{\n        string content;\n        uint8 label;\n        uint8[3] Votes;\n        bool verified;\n        bool goodData;\n        address providerAddr;\n    }\n\n    Caption[] captions;\n\n    constructor(){\n        chairperson = msg.sender;\n    }\n\n    function addCaption(string memory _caption, uint8 _lbl) external payable{\n        require(msg.value >= 1e18,\"Not enough eth\");\n        require(_lbl >= 0 && _lbl <= 2,\"Illegal label\");\n        captions.push(Caption(_caption, _lbl, [0, 0, 0], false, false, msg.sender));\n        captionCnt += 1;\n    }\n\n    function reviewCaption(uint _idx, uint8 _lbl) external payable{\n        require(captions[_idx].verified == false);\n        require(msg.sender != captions[_idx].providerAddr);\n        require(_idx < captionCnt && _idx >= 0);\n        require(_lbl >= 0 && _lbl <= 2);\n        // req only one vote per person\n        captions[_idx].Votes[_lbl] += 1;\n        if(captions[_idx].Votes[_lbl] == MAX_VOTES){\n            captions[_idx].verified = true;\n            captions[_idx].goodData = (_lbl == captions[_idx].label);\n        }\n    }\n\n    function getCaption(uint _idx) public view returns (Caption memory) {\n        require(_idx < captionCnt && _idx >= 0);\n    \treturn captions[_idx];\n    }\n\n    function getCaptionCnt() public view returns (uint){\n        return(captionCnt);\n    }\n\n}",
  "sourcePath": "/home/demet/Desktop/thesis/contracts/contracts/TwitterReview.sol",
  "compiler": {
    "name": "solc",
    "version": "0.8.12+commit.f00d7308.Emscripten.clang"
  },
  "schemaVersion": "3.4.6",
  "updatedAt": "2022-05-04T14:56:10.143Z",
  "networkType": "ethereum",
  "devdoc": {
    "kind": "dev",
    "methods": {},
    "version": 1
  },
  "userdoc": {
    "kind": "user",
    "methods": {},
    "version": 1
  }
}