{
  "contractName": "TwitterReview",
  "abi": [
    {
      "inputs": [],
      "stateMutability": "nonpayable",
      "type": "constructor"
    },
    {
      "inputs": [
        {
          "internalType": "uint256",
          "name": "",
          "type": "uint256"
        }
      ],
      "name": "captions",
      "outputs": [
        {
          "internalType": "string",
          "name": "content",
          "type": "string"
        },
        {
          "internalType": "uint8",
          "name": "label",
          "type": "uint8"
        },
        {
          "internalType": "bool",
          "name": "verified",
          "type": "bool"
        },
        {
          "internalType": "bool",
          "name": "goodData",
          "type": "bool"
        },
        {
          "internalType": "address",
          "name": "providerAddr",
          "type": "address"
        }
      ],
      "stateMutability": "view",
      "type": "function",
      "constant": true
    },
    {
      "inputs": [],
      "name": "chairperson",
      "outputs": [
        {
          "internalType": "address",
          "name": "",
          "type": "address"
        }
      ],
      "stateMutability": "view",
      "type": "function",
      "constant": true
    },
    {
      "inputs": [
        {
          "internalType": "string",
          "name": "_caption",
          "type": "string"
        },
        {
          "internalType": "uint8",
          "name": "_lbl",
          "type": "uint8"
        }
      ],
      "name": "addCaption",
      "outputs": [],
      "stateMutability": "payable",
      "type": "function",
      "payable": true
    },
    {
      "inputs": [
        {
          "internalType": "uint256",
          "name": "_idx",
          "type": "uint256"
        },
        {
          "internalType": "uint8",
          "name": "_lbl",
          "type": "uint8"
        }
      ],
      "name": "reviewCaption",
      "outputs": [],
      "stateMutability": "payable",
      "type": "function",
      "payable": true
    },
    {
      "inputs": [],
      "name": "getCaptions",
      "outputs": [
        {
          "components": [
            {
              "internalType": "string",
              "name": "content",
              "type": "string"
            },
            {
              "internalType": "uint8",
              "name": "label",
              "type": "uint8"
            },
            {
              "internalType": "uint8[3]",
              "name": "Votes",
              "type": "uint8[3]"
            },
            {
              "internalType": "bool",
              "name": "verified",
              "type": "bool"
            },
            {
              "internalType": "bool",
              "name": "goodData",
              "type": "bool"
            },
            {
              "internalType": "address",
              "name": "providerAddr",
              "type": "address"
            },
            {
              "internalType": "address[]",
              "name": "voters",
              "type": "address[]"
            }
          ],
          "internalType": "struct TwitterReview.Caption[]",
          "name": "",
          "type": "tuple[]"
        }
      ],
      "stateMutability": "view",
      "type": "function",
      "constant": true
    },
    {
      "inputs": [
        {
          "internalType": "uint256",
          "name": "_idx",
          "type": "uint256"
        }
      ],
      "name": "getCaption",
      "outputs": [
        {
          "components": [
            {
              "internalType": "string",
              "name": "content",
              "type": "string"
            },
            {
              "internalType": "uint8",
              "name": "label",
              "type": "uint8"
            },
            {
              "internalType": "uint8[3]",
              "name": "Votes",
              "type": "uint8[3]"
            },
            {
              "internalType": "bool",
              "name": "verified",
              "type": "bool"
            },
            {
              "internalType": "bool",
              "name": "goodData",
              "type": "bool"
            },
            {
              "internalType": "address",
              "name": "providerAddr",
              "type": "address"
            },
            {
              "internalType": "address[]",
              "name": "voters",
              "type": "address[]"
            }
          ],
          "internalType": "struct TwitterReview.Caption",
          "name": "",
          "type": "tuple"
        }
      ],
      "stateMutability": "view",
      "type": "function",
      "constant": true
    },
    {
      "inputs": [],
      "name": "getCaptionCnt",
      "outputs": [
        {
          "internalType": "uint256",
          "name": "",
          "type": "uint256"
        }
      ],
      "stateMutability": "view",
      "type": "function",
      "constant": true
    },
    {
      "inputs": [
        {
          "internalType": "uint256",
          "name": "_idx",
          "type": "uint256"
        }
      ],
      "name": "getCaptionText",
      "outputs": [
        {
          "internalType": "string",
          "name": "",
          "type": "string"
        }
      ],
      "stateMutability": "view",
      "type": "function",
      "constant": true
    },
    {
      "inputs": [],
      "name": "getCaptionTexts",
      "outputs": [
        {
          "internalType": "string[]",
          "name": "",
          "type": "string[]"
        }
      ],
      "stateMutability": "view",
      "type": "function",
      "constant": true
    }
  ],
  "bytecode": "0x6080604052600060015534801561001557600080fd5b50336000806101000a81548173ffffffffffffffffffffffffffffffffffffffff021916908373ffffffffffffffffffffffffffffffffffffffff160217905550612318806100656000396000f3fe6080604052600436106100865760003560e01c806366a1c31e1161005957806366a1c31e1461013a578063856a3f9c14610177578063b441682614610193578063ccc5c4dc146101be578063eef9cd3a146101ff57610086565b80630257e2491461008b57806309846430146100c85780632e4176cf146100e45780634ac59de21461010f575b600080fd5b34801561009757600080fd5b506100b260048036038101906100ad9190611541565b61022a565b6040516100bf919061186f565b60405180910390f35b6100e260048036038101906100dd91906118bd565b6104eb565b005b3480156100f057600080fd5b506100f961091e565b604051610106919061190c565b60405180910390f35b34801561011b57600080fd5b50610124610942565b60405161013191906119e9565b60405180910390f35b34801561014657600080fd5b50610161600480360381019061015c9190611541565b610a1b565b60405161016e9190611a55565b60405180910390f35b610191600480360381019061018c9190611bac565b610b23565b005b34801561019f57600080fd5b506101a8610e06565b6040516101b59190611c17565b60405180910390f35b3480156101ca57600080fd5b506101e560048036038101906101e09190611541565b610e10565b6040516101f6959493929190611c50565b60405180910390f35b34801561020b57600080fd5b50610214610f25565b6040516102219190611e11565b60405180910390f35b6102326112ae565b60015482108015610244575060008210155b610283576040517f08c379a000000000000000000000000000000000000000000000000000000000815260040161027a90611e7f565b60405180910390fd5b6003828154811061029757610296611e9f565b5b90600052602060002090600502016040518060e00160405290816000820180546102c090611efd565b80601f01602080910402602001604051908101604052809291908181526020018280546102ec90611efd565b80156103395780601f1061030e57610100808354040283529160200191610339565b820191906000526020600020905b81548152906001019060200180831161031c57829003601f168201915b505050505081526020016001820160009054906101000a900460ff1660ff1660ff168152602001600282016003806020026040519081016040528092919082600380156103c1576020028201916000905b82829054906101000a900460ff1660ff168152602001906001019060208260000104928301926001038202915080841161038a5790505b505050505081526020016003820160009054906101000a900460ff161515151581526020016003820160019054906101000a900460ff161515151581526020016003820160029054906101000a900473ffffffffffffffffffffffffffffffffffffffff1673ffffffffffffffffffffffffffffffffffffffff1673ffffffffffffffffffffffffffffffffffffffff168152602001600482018054806020026020016040519081016040528092919081815260200182805480156104db57602002820191906000526020600020905b8160009054906101000a900473ffffffffffffffffffffffffffffffffffffffff1673ffffffffffffffffffffffffffffffffffffffff1681526020019060010190808311610491575b5050505050815250509050919050565b600015156003838154811061050357610502611e9f565b5b906000526020600020906005020160030160009054906101000a900460ff16151514610564576040517f08c379a000000000000000000000000000000000000000000000000000000000815260040161055b90611f7b565b60405180910390fd5b6003828154811061057857610577611e9f565b5b906000526020600020906005020160030160029054906101000a900473ffffffffffffffffffffffffffffffffffffffff1673ffffffffffffffffffffffffffffffffffffffff163373ffffffffffffffffffffffffffffffffffffffff161415610618576040517f08c379a000000000000000000000000000000000000000000000000000000000815260040161060f90611fe7565b60405180910390fd5b6001548210801561062a575060008210155b610669576040517f08c379a000000000000000000000000000000000000000000000000000000000815260040161066090611e7f565b60405180910390fd5b60008160ff1610158015610681575060028160ff1611155b6106c0576040517f08c379a00000000000000000000000000000000000000000000000000000000081526004016106b790612053565b60405180910390fd5b6106ca33836111b8565b610709576040517f08c379a0000000000000000000000000000000000000000000000000000000008152600401610700906120e5565b60405180910390fd5b60016003838154811061071f5761071e611e9f565b5b90600052602060002090600502016002018260ff166003811061074557610744611e9f565b5b602091828204019190068282829054906101000a900460ff166107689190612134565b92506101000a81548160ff021916908360ff1602179055506003828154811061079457610793611e9f565b5b9060005260206000209060050201600401339080600181540180825580915050600190039060005260206000200160009091909190916101000a81548173ffffffffffffffffffffffffffffffffffffffff021916908373ffffffffffffffffffffffffffffffffffffffff160217905550600360ff166003838154811061081f5761081e611e9f565b5b90600052602060002090600502016002018260ff166003811061084557610844611e9f565b5b602091828204019190069054906101000a900460ff1660ff16141561091a5760016003838154811061087a57610879611e9f565b5b906000526020600020906005020160030160006101000a81548160ff021916908315150217905550600382815481106108b6576108b5611e9f565b5b906000526020600020906005020160010160009054906101000a900460ff1660ff168160ff1614600383815481106108f1576108f0611e9f565b5b906000526020600020906005020160030160016101000a81548160ff0219169083151502179055505b5050565b60008054906101000a900473ffffffffffffffffffffffffffffffffffffffff1681565b60606002805480602002602001604051908101604052809291908181526020016000905b82821015610a1257838290600052602060002001805461098590611efd565b80601f01602080910402602001604051908101604052809291908181526020018280546109b190611efd565b80156109fe5780601f106109d3576101008083540402835291602001916109fe565b820191906000526020600020905b8154815290600101906020018083116109e157829003601f168201915b505050505081526020019060010190610966565b50505050905090565b606060015482108015610a2f575060008210155b610a6e576040517f08c379a0000000000000000000000000000000000000000000000000000000008152600401610a6590611e7f565b60405180910390fd5b60038281548110610a8257610a81611e9f565b5b90600052602060002090600502016000018054610a9e90611efd565b80601f0160208091040260200160405190810160405280929190818152602001828054610aca90611efd565b8015610b175780601f10610aec57610100808354040283529160200191610b17565b820191906000526020600020905b815481529060010190602001808311610afa57829003601f168201915b50505050509050919050565b670de0b6b3a7640000341015610b6e576040517f08c379a0000000000000000000000000000000000000000000000000000000008152600401610b65906121b7565b60405180910390fd5b60008160ff1610158015610b86575060028160ff1611155b610bc5576040517f08c379a0000000000000000000000000000000000000000000000000000000008152600401610bbc90612223565b60405180910390fd5b60036040518060e001604052808481526020018360ff1681526020016040518060600160405280600060ff168152602001600060ff168152602001600060ff1681525081526020016000151581526020016000151581526020013373ffffffffffffffffffffffffffffffffffffffff168152602001600067ffffffffffffffff811115610c5657610c55611a81565b5b604051908082528060200260200182016040528015610c845781602001602082028036833780820191505090505b5081525090806001815401808255809150506001900390600052602060002090600502016000909190919091506000820151816000019080519060200190610ccd92919061130e565b5060208201518160010160006101000a81548160ff021916908360ff160217905550604082015181600201906003610d06929190611394565b5060608201518160030160006101000a81548160ff02191690831515021790555060808201518160030160016101000a81548160ff02191690831515021790555060a08201518160030160026101000a81548173ffffffffffffffffffffffffffffffffffffffff021916908373ffffffffffffffffffffffffffffffffffffffff16021790555060c0820151816004019080519060200190610daa92919061142e565b505050600282908060018154018082558091505060019003906000526020600020016000909190919091509080519060200190610de892919061130e565b506001806000828254610dfb9190612243565b925050819055505050565b6000600154905090565b60038181548110610e2057600080fd5b9060005260206000209060050201600091509050806000018054610e4390611efd565b80601f0160208091040260200160405190810160405280929190818152602001828054610e6f90611efd565b8015610ebc5780601f10610e9157610100808354040283529160200191610ebc565b820191906000526020600020905b815481529060010190602001808311610e9f57829003601f168201915b5050505050908060010160009054906101000a900460ff16908060030160009054906101000a900460ff16908060030160019054906101000a900460ff16908060030160029054906101000a900473ffffffffffffffffffffffffffffffffffffffff16905085565b60606003805480602002602001604051908101604052809291908181526020016000905b828210156111af57838290600052602060002090600502016040518060e0016040529081600082018054610f7c90611efd565b80601f0160208091040260200160405190810160405280929190818152602001828054610fa890611efd565b8015610ff55780601f10610fca57610100808354040283529160200191610ff5565b820191906000526020600020905b815481529060010190602001808311610fd857829003601f168201915b505050505081526020016001820160009054906101000a900460ff1660ff1660ff1681526020016002820160038060200260405190810160405280929190826003801561107d576020028201916000905b82829054906101000a900460ff1660ff16815260200190600101906020826000010492830192600103820291508084116110465790505b505050505081526020016003820160009054906101000a900460ff161515151581526020016003820160019054906101000a900460ff161515151581526020016003820160029054906101000a900473ffffffffffffffffffffffffffffffffffffffff1673ffffffffffffffffffffffffffffffffffffffff1673ffffffffffffffffffffffffffffffffffffffff1681526020016004820180548060200260200160405190810160405280929190818152602001828054801561119757602002820191906000526020600020905b8160009054906101000a900473ffffffffffffffffffffffffffffffffffffffff1673ffffffffffffffffffffffffffffffffffffffff168152602001906001019080831161114d575b50505050508152505081526020019060010190610f49565b50505050905090565b600080600090505b600383815481106111d4576111d3611e9f565b5b9060005260206000209060050201600401805490508110156112a2578373ffffffffffffffffffffffffffffffffffffffff166003848154811061121b5761121a611e9f565b5b9060005260206000209060050201600401828154811061123e5761123d611e9f565b5b9060005260206000200160009054906101000a900473ffffffffffffffffffffffffffffffffffffffff1673ffffffffffffffffffffffffffffffffffffffff16141561128f5760009150506112a8565b808061129a90612299565b9150506111c0565b50600190505b92915050565b6040518060e0016040528060608152602001600060ff1681526020016112d26114b8565b8152602001600015158152602001600015158152602001600073ffffffffffffffffffffffffffffffffffffffff168152602001606081525090565b82805461131a90611efd565b90600052602060002090601f01602090048101928261133c5760008555611383565b82601f1061135557805160ff1916838001178555611383565b82800160010185558215611383579182015b82811115611382578251825591602001919060010190611367565b5b50905061139091906114da565b5090565b826003601f0160209004810192821561141d5791602002820160005b838211156113ee57835183826101000a81548160ff021916908360ff16021790555092602001926001016020816000010492830192600103026113b0565b801561141b5782816101000a81549060ff02191690556001016020816000010492830192600103026113ee565b505b50905061142a91906114da565b5090565b8280548282559060005260206000209081019282156114a7579160200282015b828111156114a65782518260006101000a81548173ffffffffffffffffffffffffffffffffffffffff021916908373ffffffffffffffffffffffffffffffffffffffff1602179055509160200191906001019061144e565b5b5090506114b491906114da565b5090565b6040518060600160405280600390602082028036833780820191505090505090565b5b808211156114f35760008160009055506001016114db565b5090565b6000604051905090565b600080fd5b600080fd5b6000819050919050565b61151e8161150b565b811461152957600080fd5b50565b60008135905061153b81611515565b92915050565b60006020828403121561155757611556611501565b5b60006115658482850161152c565b91505092915050565b600081519050919050565b600082825260208201905092915050565b60005b838110156115a857808201518184015260208101905061158d565b838111156115b7576000848401525b50505050565b6000601f19601f8301169050919050565b60006115d98261156e565b6115e38185611579565b93506115f381856020860161158a565b6115fc816115bd565b840191505092915050565b600060ff82169050919050565b61161d81611607565b82525050565b600060039050919050565b600081905092915050565b6000819050919050565b600061164f8383611614565b60208301905092915050565b6000602082019050919050565b61167181611623565b61167b818461162e565b925061168682611639565b8060005b838110156116b757815161169e8782611643565b96506116a98361165b565b92505060018101905061168a565b505050505050565b60008115159050919050565b6116d4816116bf565b82525050565b600073ffffffffffffffffffffffffffffffffffffffff82169050919050565b6000611705826116da565b9050919050565b611715816116fa565b82525050565b600081519050919050565b600082825260208201905092915050565b6000819050602082019050919050565b6000611753838361170c565b60208301905092915050565b6000602082019050919050565b60006117778261171b565b6117818185611726565b935061178c83611737565b8060005b838110156117bd5781516117a48882611747565b97506117af8361175f565b925050600181019050611790565b5085935050505092915050565b60006101208301600083015184820360008601526117e882826115ce565b91505060208301516117fd6020860182611614565b5060408301516118106040860182611668565b50606083015161182360a08601826116cb565b50608083015161183660c08601826116cb565b5060a083015161184960e086018261170c565b5060c0830151848203610100860152611862828261176c565b9150508091505092915050565b6000602082019050818103600083015261188981846117ca565b905092915050565b61189a81611607565b81146118a557600080fd5b50565b6000813590506118b781611891565b92915050565b600080604083850312156118d4576118d3611501565b5b60006118e28582860161152c565b92505060206118f3858286016118a8565b9150509250929050565b611906816116fa565b82525050565b600060208201905061192160008301846118fd565b92915050565b600081519050919050565b600082825260208201905092915050565b6000819050602082019050919050565b600061195f83836115ce565b905092915050565b6000602082019050919050565b600061197f82611927565b6119898185611932565b93508360208202850161199b85611943565b8060005b858110156119d757848403895281516119b88582611953565b94506119c383611967565b925060208a0199505060018101905061199f565b50829750879550505050505092915050565b60006020820190508181036000830152611a038184611974565b905092915050565b600082825260208201905092915050565b6000611a278261156e565b611a318185611a0b565b9350611a4181856020860161158a565b611a4a816115bd565b840191505092915050565b60006020820190508181036000830152611a6f8184611a1c565b905092915050565b600080fd5b600080fd5b7f4e487b7100000000000000000000000000000000000000000000000000000000600052604160045260246000fd5b611ab9826115bd565b810181811067ffffffffffffffff82111715611ad857611ad7611a81565b5b80604052505050565b6000611aeb6114f7565b9050611af78282611ab0565b919050565b600067ffffffffffffffff821115611b1757611b16611a81565b5b611b20826115bd565b9050602081019050919050565b82818337600083830152505050565b6000611b4f611b4a84611afc565b611ae1565b905082815260208101848484011115611b6b57611b6a611a7c565b5b611b76848285611b2d565b509392505050565b600082601f830112611b9357611b92611a77565b5b8135611ba3848260208601611b3c565b91505092915050565b60008060408385031215611bc357611bc2611501565b5b600083013567ffffffffffffffff811115611be157611be0611506565b5b611bed85828601611b7e565b9250506020611bfe858286016118a8565b9150509250929050565b611c118161150b565b82525050565b6000602082019050611c2c6000830184611c08565b92915050565b611c3b81611607565b82525050565b611c4a816116bf565b82525050565b600060a0820190508181036000830152611c6a8188611a1c565b9050611c796020830187611c32565b611c866040830186611c41565b611c936060830185611c41565b611ca060808301846118fd565b9695505050505050565b600081519050919050565b600082825260208201905092915050565b6000819050602082019050919050565b6000610120830160008301518482036000860152611cf482826115ce565b9150506020830151611d096020860182611614565b506040830151611d1c6040860182611668565b506060830151611d2f60a08601826116cb565b506080830151611d4260c08601826116cb565b5060a0830151611d5560e086018261170c565b5060c0830151848203610100860152611d6e828261176c565b9150508091505092915050565b6000611d878383611cd6565b905092915050565b6000602082019050919050565b6000611da782611caa565b611db18185611cb5565b935083602082028501611dc385611cc6565b8060005b85811015611dff5784840389528151611de08582611d7b565b9450611deb83611d8f565b925060208a01995050600181019050611dc7565b50829750879550505050505092915050565b60006020820190508181036000830152611e2b8184611d9c565b905092915050565b7f496e76616c69642063617074696f6e2069647800000000000000000000000000600082015250565b6000611e69601383611a0b565b9150611e7482611e33565b602082019050919050565b60006020820190508181036000830152611e9881611e5c565b9050919050565b7f4e487b7100000000000000000000000000000000000000000000000000000000600052603260045260246000fd5b7f4e487b7100000000000000000000000000000000000000000000000000000000600052602260045260246000fd5b60006002820490506001821680611f1557607f821691505b60208210811415611f2957611f28611ece565b5b50919050565b7f43616e6e6f742072657669657720612076657269666965642063617074696f6e600082015250565b6000611f65602083611a0b565b9150611f7082611f2f565b602082019050919050565b60006020820190508181036000830152611f9481611f58565b9050919050565b7f43616e6e6f742072657669657720796f7572206f776e2063617074696f6e0000600082015250565b6000611fd1601e83611a0b565b9150611fdc82611f9b565b602082019050919050565b6000602082019050818103600083015261200081611fc4565b9050919050565b7f496e76616c6964206c6162656c00000000000000000000000000000000000000600082015250565b600061203d600d83611a0b565b915061204882612007565b602082019050919050565b6000602082019050818103600083015261206c81612030565b9050919050565b7f4f6e6c79206f6e6520766f746520706572206163636f756e7420666f7220657660008201527f6572792063617074696f6e000000000000000000000000000000000000000000602082015250565b60006120cf602b83611a0b565b91506120da82612073565b604082019050919050565b600060208201905081810360008301526120fe816120c2565b9050919050565b7f4e487b7100000000000000000000000000000000000000000000000000000000600052601160045260246000fd5b600061213f82611607565b915061214a83611607565b92508260ff038211156121605761215f612105565b5b828201905092915050565b7f4e6f7420656e6f75676820657468000000000000000000000000000000000000600082015250565b60006121a1600e83611a0b565b91506121ac8261216b565b602082019050919050565b600060208201905081810360008301526121d081612194565b9050919050565b7f496c6c6567616c206c6162656c00000000000000000000000000000000000000600082015250565b600061220d600d83611a0b565b9150612218826121d7565b602082019050919050565b6000602082019050818103600083015261223c81612200565b9050919050565b600061224e8261150b565b91506122598361150b565b9250827fffffffffffffffffffffffffffffffffffffffffffffffffffffffffffffffff0382111561228e5761228d612105565b5b828201905092915050565b60006122a48261150b565b91507fffffffffffffffffffffffffffffffffffffffffffffffffffffffffffffffff8214156122d7576122d6612105565b5b60018201905091905056fea26469706673582212209218dada652a4ae1bd04beba01a342603ebc0f9637f9a467f72ba5c26405cb4364736f6c634300080c0033",
  "immutableReferences": {},
  "source": "// SPDX-License-Identifier: MIT\npragma solidity >=0.4.22 <0.9.0;\n\ncontract TwitterReview {\n    address public chairperson;\n    uint8 constant MAX_VOTES = 3;\n    uint captionCnt = 0;\n\n    struct Caption{\n        string content;\n        uint8 label;\n        uint8[3] Votes;\n        bool verified;\n        bool goodData;\n        address providerAddr;\n        address[] voters;\n    }\n\n    string[] CaptionTexts;\n\n    Caption[] public captions;\n\n    constructor(){\n        chairperson = msg.sender;\n    }\n\n    function addCaption(string memory _caption, uint8 _lbl) external payable{\n        require(msg.value >= 1e18,\"Not enough eth\");\n        require(_lbl >= 0 && _lbl <= 2,\"Illegal label\");\n        captions.push(Caption(_caption, _lbl, [0, 0, 0], false, false, msg.sender, new address[](0)));\n        CaptionTexts.push(_caption);\n        captionCnt += 1;\n    }\n\n    function notVoted(address _voter, uint _idx) private view returns (bool) {\n        for (uint i = 0; i < captions[_idx].voters.length; i++) {\n            if (captions[_idx].voters[i] == _voter) {\n                return false;\n            }\n        }\n        return true;\n    }\n\n    function reviewCaption(uint _idx, uint8 _lbl) external payable{\n        require(captions[_idx].verified == false, \"Cannot review a verified caption\");\n        require(msg.sender != captions[_idx].providerAddr, \"Cannot review your own caption\");\n        require(_idx < captionCnt && _idx >= 0,\"Invalid caption idx\");\n        require(_lbl >= 0 && _lbl <= 2,\"Invalid label\");\n        require(notVoted(msg.sender,_idx),\"Only one vote per account for every caption\");\n        captions[_idx].Votes[_lbl] += 1;\n        captions[_idx].voters.push(msg.sender);\n        if(captions[_idx].Votes[_lbl] == MAX_VOTES){\n            captions[_idx].verified = true;\n            captions[_idx].goodData = (_lbl == captions[_idx].label);\n        }\n    }\n\n    function getCaptions() public view returns( Caption  [] memory){\n        return captions;\n    }\n\n    function getCaption(uint _idx) public view returns (Caption memory) {\n        require(_idx < captionCnt && _idx >= 0,\"Invalid caption idx\");\n    \treturn captions[_idx];\n    }\n\n    function getCaptionCnt() public view returns (uint){\n        return(captionCnt);\n    }\n\n    function getCaptionText(uint _idx) public view returns (string memory){\n        require(_idx < captionCnt && _idx >= 0,\"Invalid caption idx\");\n        return captions[_idx].content;\n    }\n\n    function getCaptionTexts() public view returns (string[] memory){\n        return CaptionTexts;\n    }\n\n}",
  "sourcePath": "/home/demet/Desktop/thesis/contracts/contracts/TwitterReview.sol",
  "compiler": {
    "name": "solc",
    "version": "0.8.12+commit.f00d7308.Emscripten.clang"
  },
  "schemaVersion": "3.4.6",
  "updatedAt": "2022-05-06T10:28:04.713Z",
  "networkType": "ethereum",
  "devdoc": {
    "kind": "dev",
    "methods": {},
    "version": 1
  },
  "userdoc": {
    "kind": "user",
    "methods": {},
    "version": 1
  }
}